:020000040000fa
:080000000001040000000000f3
:020000040000fa
:040008006e04000082
:020000040000fa
:04000c006e0400007e
:020000040000fa
:040010006e0400007a
:020000040000fa
:040014006e04000076
:020000040000fa
:040018006e04000072
:020000040000fa
:04001c006e0400006e
:020000040000fa
:040020006e0400006a
:020000040000fa
:040024006e04000066
:020000040000fa
:0400280030020000a2
:020000040000fa
:04002c006e0400005e
:020000040000fa
:040030006e0400005a
:020000040000fa
:040034008e02000038
:020000040000fa
:040038006e04000052
:020000040000fa
:04003c006e0400004e
:020000040000fa
:040040006e0400004a
:020000040000fa
:040044007e02000038
:020000040000fa
:04004800860200002c
:020000040000fa
:04004c006e0400003e
:020000040000fa
:040050006e0400003a
:020000040000fa
:04005400aa030000fb
:020000040000fa
:040058006e04000032
:020000040000fa
:04005c006e0400002e
:020000040000fa
:040060006e0400002a
:020000040000fa
:040064006e04000026
:020000040000fa
:040068006e04000022
:020000040000fa
:04006c006e0400001e
:020000040000fa
:040070006e0400001a
:020000040000fa
:04007400e0030000a5
:020000040000fa
:040078004a02000038
:020000040000fa
:04007c006e0400000e
:020000040000fa
:040080006e0400000a
:020000040000fa
:040084006e04000006
:020000040000fa
:040088006e04000002
:020000040000fa
:04008c006e040000fe
:020000040000fa
:040090006e040000fa
:020000040000fa
:040094006e040000f6
:020000040000fa
:040098006e040000f2
:020000040000fa
:04009c0064020000fa
:020000040000fa
:0400a00074030000e5
:020000040000fa
:0400a4006e040000e6
:020000040000fa
:0400a8006e040000e2
:020000040000fa
:0400ac006e040000de
:020000040000fa
:0400b0006e040000da
:020000040000fa
:0400b4006e040000d6
:020000040000fa
:0400b8006e040000d2
:020000040000fa
:0400bc006e040000ce
:020000040000fa
:0400c0006e040000ca
:020000040000fa
:0400c4006e040000c6
:020000040000fa
:0400c8006e040000c2
:020000040000fa
:0400cc006e040000be
:020000040000fa
:0400d0006e040000ba
:020000040000fa
:0400d4006e040000b6
:020000040000fa
:0400d8006e040000b2
:020000040000fa
:0400dc006e040000ae
:020000040000fa
:0400e0006e040000aa
:020000040000fa
:0400e4006e040000a6
:020000040000fa
:0400e8006e040000a2
:020000040000fa
:0400ec006e0400009e
:020000040000fa
:0400f0006e0400009a
:020000040000fa
:0400f4006e04000096
:020000040000fa
:0400f8006e04000092
:020000040000fa
:0400fc006e0400008e
:020000040000fa
:040100006e04000089
:020000040000fa
:040104006e04000085
:020000040000fa
:040108006e04000081
:020000040000fa
:04010c006e0400007d
:020000040000fa
:040110006e04000079
:020000040000fa
:040114006e04000075
:020000040000fa
:040118006e04000071
:020000040000fa
:04011c006e0400006d
:020000040000fa
:040120006e04000069
:020000040000fa
:040124006e04000065
:020000040000fa
:040128006e04000061
:020000040000fa
:04012c006e0400005d
:020000040000fa
:040130006e04000059
:020000040000fa
:040134006e04000055
:020000040000fa
:040138006e04000051
:020000040000fa
:04013c006e0400004d
:020000040000fa
:040140006e04000049
:020000040000fa
:040144006e04000045
:020000040000fa
:040148006e04000041
:020000040000fa
:04014c006e0400003d
:020000040000fa
:040150006e04000039
:020000040000fa
:040154006e04000035
:020000040000fa
:040158006e04000031
:020000040000fa
:04015c006e0400002d
:020000040000fa
:040160006e04000029
:020000040000fa
:040164006e04000025
:020000040000fa
:040168006e04000021
:020000040000fa
:04016c006e0400001d
:020000040000fa
:040170004a0300003e
:020000040000fa
:040174006e04000015
:020000040000fa
:040178006e04000011
:020000040000fa
:04017c006e0400000d
:020000040000fa
:040180006e04000009
:020000040000fa
:040184006e04000005
:020000040000fa
:040188006e04000001
:020000040000fa
:04018c006e040000fd
:020000040000fa
:040190006e040000f9
:020000040000fa
:040194006e040000f5
:020000040000fa
:040198006e040000f1
:020000040000fa
:04019c006e040000ed
:020000040000fa
:0401a0006e040000e9
:020000040000fa
:0401a4006e040000e5
:020000040000fa
:0401a8006e040000e1
:020000040000fa
:0401ac006e040000dd
:020000040000fa
:0401b0006e040000d9
:020000040000fa
:0401b4006e040000d5
:020000040000fa
:0401b8006e040000d1
:020000040000fa
:0401bc006e040000cd
:020000040000fa
:0401c0006e040000c9
:020000040000fa
:0401c4006e040000c5
:020000040000fa
:0401c8006e040000c1
:020000040000fa
:0401cc006e040000bd
:020000040000fa
:0401d0006e040000b9
:020000040000fa
:0401d4006e040000b5
:020000040000fa
:0401d8006e040000b1
:020000040000fa
:0401dc006e040000ad
:020000040000fa
:0401e0006e040000a9
:020000040000fa
:0401e4006e040000a5
:020000040000fa
:0401e8006e040000a1
:020000040000fa
:0401ec006e0400009d
:020000040000fa
:0401f0006e04000099
:020000040000fa
:0401f4006e04000095
:020000040000fa
:0401f8006e04000091
:020000040000fa
:0401fc006e0400008d
:020000040000fa
:100200000f3b23000eff27000e01880000000000b6
:10021000000020000000e000020032000001200089
:1002200020028800140007005f0207000000e000c1
:1002300003003a0040b121002100200002003700f5
:100240000000200001002000810f7000010032003a
:1002500014000700000020000000e000020032004f
:1002600000000200000000007a9802000100000077
:100270000040da000000fe004440a900008f230087
:100280000000e00003003200a02020009001880060
:100290004440a800000006008a1f78008b1f7800e9
:1002a00000000600a1028800800478000000eb0036
:1002b0001f003700e284440054a0b4009905ba003e
:1002c000e284440054a0b4009906ba00e2844400d9
:1002d00054a0b4000006eb00476fde00fd07b2003b
:1002e000ae018800636ce10003003a00eaff0700fa
:1002f0000000eb000e003700606ce10008003a00df
:10030000004deb000a05e800020039003420ec0043
:100310000af0a0008b05e900f9ff3e000400370059
:100320006168e100010032000086eb000b0007006d
:1003300019c7ba001905ba000e04e00003003a001c
:100340000a00e000dbff3a0000000600fe07b200f2
:10035000ae0288008a047800f5ff37000cd0a300b5
:10036000e20f4d001c00390089027800354dba00bb
:100370000a05e800020039003420ec000af0a00071
:100380008b05e9000f003200254dba000a05e80090
:10039000020039003420ec000af0a0008b05e900cf
:1003a000080032000c00e0000600320015cdba0053
:1003b0000a05e800020039003420ec000af0a00031
:1003c0008b05e9008984e80054a0b4000b00e0002c
:1003d000e2ff3a00000006009902ba00055d7800cd
:1003e0008b05e900f7ff3200c82ade00055d7800c2
:1003f0008b05e900f3ff32000c00e000f1ff320052
:1004000019ddba00eeff3700ca0c0400000000003e
:10041000940c040000000000500d040000000000d7
:10042000940c0400000000002819040000000000e3
:100430001e3c040000000000fc3d04000000000021
:10044000a83c040000000000183d0400000000006b
:10045000ac3d0400000000001e3c04000000000051
:100460003200f8003400f800881f780018002000df
:10047000a8018800a8202000980188004f04780077
:100480000000fa000080fa003400f9003200f900a0
:10049000004006003200f8003400f800881f7800a1
:1004a00018002000a8018800a820200098018800da
:1004b0004f0478000000fa000080fa003400f900d0
:1004c0003200f900004006003200f8003400f80065
:1004d000881f780018002000a8018800a8202000ac
:1004e000980188004f0478000000fa000080fa00ac
:1004f0003400f9003200f900004006000000fa0064
:1005000088e0a9000080fa00004006000000fa0020
:100510008900a9000080fa0000400600809fbe000c
:10052000829fbe000200fa00c004800068006000e4
:100530000000e000520032004004800068006000cb
:100540000000e0004e003200003a210011c0b3006c
:1005500001487800009b81000000e00003003200a9
:10056000009b81000000e900009b8900b036230059
:10057000104078000004e00005003200b03623008f
:10058000104078008040e900b03623000148780030
:10059000e05980000000e00003003200e0598000d4
:1005a0000000e900e05988000040eb00004f7800af
:1005b000300037001e80fb006600b9008000780024
:1005c000003121000080400010407800e14f5000d1
:1005d00027003a001e80fb006600b900000078008a
:1005e0008080e80000312100008040001000780089
:1005f0000000e0000e0032009e81fb001e80fb0028
:100600006600b900000078008080e8000031210019
:1006100000804000100078000001e9006618b90071
:10062000800078002031210000804000020878001e
:100630001e80fb006600b900000078008080e800a2
:100640000031210000804000100078000000e00030
:1006500007003a001e80fb006600b90080007800a9
:1006600000312100008040008040eb00014878000c
:100670001e4fe8001e407800f74f5000cdff3600b7
:100680008860a9000080fa004f01be004f00be0044
:10069000004006003600f800809fbe00829fbe002a
:1006a000849fbe00869fbe000000fa000200370053
:1006b0003098020001000000301e800061006000e0
:1006c0000000e000faff3a009240a9000080fa0022
:1006d0004f03be004f02be004f01be004f00be00e0
:1006e0003600f900004006003600f800809fbe008a
:1006f000829fbe00849fbe00869fbe000000fa005d
:10070000020037003e98020001000000801d8000ba
:10071000610060000000e000faff3a008bc0a90011
:10072000602f210010407800804078000144a00034
:10073000602f2100014878000080fa004f03be00be
:100740004f02be004f01be004f00be003600f90050
:10075000004006003600f800809fbe00829fbe0069
:10076000849fbe00869fbe000000fa000200370092
:100770002830020001000000d01c800061006000f1
:100780000000e000faff3a008960a900602f210014
:1007900010407800804078000154a000602f2100b4
:1007a000014878000080fa004f03be004f02be00ef
:1007b0004f01be004f00be003600f90000400600a9
:1007c000809fbe000000fa00d00480006800600036
:1007d0000000e0003e00320050048000680060002d
:1007e0000000e0003a003200413780000020200085
:1007f000008060000000e00007003200e926a90048
:10080000602f210010407800804078000124a00073
:10081000602f210001487800a136800000042000ec
:10082000008060000000e00007003200d4c6a9008c
:10083000602f210010407800804078000114a00053
:10084000602f210001487800a0368000640060001d
:100850000000e00007003200d446a900602f21000c
:1008600010407800804078000104a000602f210033
:1008700001487800a0368000680060000000e000b9
:1008800001003200d466a900a136800000022000d9
:10089000008060000000e00001003200d4a6a90042
:1008a000a0368000700060000000e000010032000f
:1008b000d486a9008a60a900602f2100104078002a
:1008c000804078000134a000602f210001487800aa
:1008d0000080fa004f00be00004006000040da0031
:1008e0000000fe000a00fa000000e00037003a00b5
:1008f000639d8100e18f510003003200e28f5100bf
:100900000e003a0009003700803920000000e000a6
:1009100001003a000040da009803e2000b003500c5
:10092000a023ef0099e3a80008003700e03a200078
:100930000000e00001003a000040da00ae03e200ef
:1009400002003500b623ef00afe3a80002007800f4
:100950001a003700040a2000e18f51000b003a0012
:10096000030037000402e90002003a0003003700e8
:10097000040a20009a03ab00faff3200d41c800066
:10098000050037000402e90002003200b003ab00aa
:10099000fcff3200841d8000610262000900320009
:1009a000e18f510002003a00f41c80000100370082
:1009b000a41d8000845878000000e9000000e000d9
:1009c000e4ff3a0000005100080037002300200037
:1009d000b3bf9f00c0bf9f00d1bf9f00e2bf9f0079
:1009e0006a805700a11d07006fb897000080fa00c9
:1009f000000006000a00fa0011002000b1bf9f00ad
:100a0000c0bf9f006a8057009a1d07004fb897002b
:100a10000080fa00000006000a00fa00e20f500011
:100a200034003e00609d8100e10f50000300320061
:100a3000e20f500011003a000c003700833920000b
:100a40000300e00001003a000040da009803e200f1
:100a500002003500a023ef0099e3a8009b43ab0000
:100a60000d003a009b43a8000b003700e33a20003a
:100a70000300e00001003a000040da00ae03e200ab
:100a800002003500b623ef00afe3a800b143ab008e
:100a900001003a00b143a800820178000b00370042
:100aa0003102fb00e10f500004003a009b23ab0031
:100ab000feff3a00e41c880003003700b123ab00be
:100ac000feff3a00941d88008301e9000300e00066
:100ad000f3ff3a00e10f500003003a009b03ab0024
:100ae000feff32000b003700b103ab00feff320007
:100af0000800370033002000b3bf9f00c0bf9f0035
:100b0000d1bf9f00e2bf9f006a8057005b1d0700b6
:100b10006fb99700020078000080fa00000006001c
:100b2000889fbe0080047800709d81000000e00076
:100b300005003a000000eb000e0007000084eb0007
:100b40000000e00008003500789d81000900e00009
:100b50000500320009004400060007000000e00024
:100b600001003d000084eb00080078004f04be0047
:100b700000000600800078000100e00003003a0059
:100b800000002000709d8900000005000080eb003f
:100b900002002000828f500002003e00719d8900fb
:100ba0000000eb000000060000000500140020001b
:100bb0003e023700f4ff2f003c0237000001be0068
:100bc000220007000470a70003f0a1006509b1002e
:100bd000160032000d0035006828e10006003500df
:100be000f0ff2f00f1ff27000300e00013003b009f
:100bf000010028000000050000004000818048003e
:100c00008502e900fcff3a0008003700f88f420037
:100c100002003c008000eb00000005008100d100d4
:100c20000080d3008502e800fcff3a000300e000ea
:100c300002003b0060001000e08018000000060089
:100c40004f89de008201780033023700c70ade00d8
:100c5000f107b200f50fb20008003200e1cf420008
:100c6000020032000170a00024000500810f700016
:100c7000010032000408050044000500810f7000e7
:100c800002003a00140005008502e900000040005f
:100c900081c04800fcff3b000170a000240005005b
:100ca0006022b800060220000000d0008180d2003f
:100cb0000482d2008582d2000000a000020252000d
:100cc00083825a00030031000202420083824a00fc
:100cd0000000a1000603e900f3ff3a00000006004f
:100ce000efff07000400be000000060007f8270021
:100cf000078361000638e10004003a00f70720008e
:100d0000878361008703710001003a0003f0a200ad
:100d1000889fbe008a9fbe008c9fbe00470ade00ef
:100d20000480a100c71ade000580a100070028008a
:100d30000785600087856100f70f20000720e1002c
:100d40009e0032000728e1009c0032000106780076
:100d50000400e000b4003200f70720008780600044
:100d60000170a0000500e000c0003200f70720007d
:100d7000878161000370a000050652000f003a0051
:100d80000b50e1000b0032000308e10002003a00c2
:100d90000200e1007e00320002045000838458000b
:100da000040031000001fd008101fd008402fd000e
:100db0008a05fd006044b800210037000520e100ed
:100dc00005003d000001fd008101fd008402fd00e1
:100dd0008a05fd00050652007a60e1000500350035
:100de0000170a1004722dd00848070008a807000bd
:100df000630037006044b800ef02660007ff2f0071
:100e0000070666000500e00006003400f0831200cb
:100e10008714dd000511de00071bdd0006017100ef
:100e20008519de007060e1000500350009047800d6
:100e300082047800030178008001eb007006560000
:100e40000b50e10003003a0002004000838048009c
:100e50000400370060041400e0841c000200580005
:100e6000838058000188a300060032008100d10071
:100e70000080d3008984d3000884d3000402e800f2
:100e8000270037000178a30025003a000100e000a8
:100e9000030032008186cf00698656000a003700c1
:100ea0008c0020000000e00004003a0009007800f7
:100eb000880478000004eb00700252008086cf00a6
:100ec0000d0646000c06e9007060e10006003500e2
:100ed0008000780009007800880478000004eb00a6
:100ee00070065600700252000c00e0000c00340046
:100ef0008c08dd00f00316000703de00868070001a
:100f00000c00dd00074bde00060070008c4cdd009d
:100f10000743de00868474000c44dd000c0252009e
:100f20006120e10020003500610160000700280019
:100f300087816400f7ff270087836400070374003c
:100f40000300e00006003200820373000400320058
:100f50000000e800e08048000188a3000e003a008d
:100f6000f70f20000720e1004a003d000170a100ba
:100f70004722dd00810072008a8070000000be0000
:100f80004f06be004f05be004f04be000000060025
:100f90006000b800faff37008100d1000080d30064
:100fa0000402e800eeff37000401780089017400b4
:100fb000c20007008a807000f1ff370018010700a7
:100fc000070278000001fd008101fd001401070007
:100fd00087027800850372000778a30004003200be
:100fe0000001fd008101fd0027010700e4ff37003b
:100ff000850362000768a300080032000b50e1007f
:1010000003003200f0ff2f00f1ff2700dcff370064
:101010000001fd008101fd00d9ff37000468a30035
:10102000d7ff3200faff3700f8ff270088836000ff
:101030000b003a000000e00009003a00830364005e
:1010400082837300020032000200be00ccff370032
:101050000b50e100ceff3a000200be00c8ff37008f
:1010600014002000810064003eff3700f8ff2700d5
:101070008883610004003a000200e00002003a00a8
:101080008c007800beff370015002000830164004b
:1010900039ff370001f827000000200081007500ab
:1010a000b7ff3700038368000700280007036300c9
:1010b000470ade000480a100c71ade000580a100f7
:1010c000f70f20000720e100420032000728e1006e
:1010d00040003200889fbe008a9fbe008c1f7800af
:1010e000f107b200f307b2000400e0006400320030
:1010f0000170a0000500e000680032000370a0004d
:1011000085054200eb07b1000204b8000302b800f5
:101110008484440060854a00020ab8008484440044
:101120000a854a00030ab80004054500040033009c
:101130000804d0008984d2000a85d2008b05e9001a
:101140006158e1003d0035000210200009016100f6
:101150000308200089816100f7072000878364006d
:1011600008867300c84cde00c853dd008784740015
:101170004855de000300e0000600320082037600de
:10118000040032008904e80060054d000a88a300cd
:101190000c003a00f70f20000758e10044003d0022
:1011a0000a70a100c75ddd000a8575008a00730022
:1011b000090078004f0678004f05be004f04be00be
:1011c000000006000a05d1008984d3008b05e800e1
:1011d000f0ff3700881f78000604780090000700b1
:1011e000070278000001fd008101fd008c0007006e
:1011f00087027800850372000778a300050032009b
:101200000001fd008101fd009f0007004f047800f0
:1012100000000600850372000748a30003003200a7
:10122000f0ff2f00f1ff2700f8ff3700000020003b
:1012300001f8270088807000f4ff370088017800eb
:101240004848dd00808171004848de00c850dd005c
:1012500001007000c850de00060478000b01780021
:101260001600070088807000d2ff37000500e000fc
:1012700005003200170020003a0007009dff3700ec
:1012800081037000f9ff3a00860078004f0678006d
:101290004f05be004f04be0000000500830371002f
:1012a000f9ff3200270020002e00070094ff3700ce
:1012b00001f8270086807000f4ff37000100e0008d
:1012c00026003200610111007810e10023003c008b
:1012d0006022b8007010e100040035008002780040
:1012e000010078008000eb00700151000200e00076
:1012f0000900340070031100062add00822ade0096
:101300008603dd00878272000200de00860bdd00ae
:10131000070070008208de0084817100f4ff27005e
:1013200004826200848171000400280084826200cb
:101330006102600005f0a600000006000482710052
:10134000070032000000e800e080480000000600ce
:101350000002be006000b800efff37006000b80078
:1013600000000600889fbe000004eb006138e10029
:1013700016003a000100e00008003a00c800de0054
:101380004800dd00880020000100e00003003a0072
:10139000c800de004800dd00680444008184cf00fe
:1013a000e9845400060034008908dd00f08314004d
:1013b0008703de00878070000900dd000904440017
:1013c000610214004f04be00000006000300e000ac
:1013d00008003a00c811de004811dd008800200036
:1013e0000300e00003003a00c811de004811dd00f0
:1013f000680444008384cf00e9845400060034006c
:101400008919dd00f08314008713de0087817100e5
:101410000911dd0009044400e1021400e9ff37006e
:101420002700200001f0a70017002000470bde0076
:10143000f60fb200040032000643e8000a00320052
:101440004702b3000000060001037800f607b2006f
:101450000603700002003a000703b3000000060014
:101460008702b3000000060001037800f607b2000f
:1014700006037000020032000770a00000000600a2
:101480000760a000000006000478a30004003200fa
:101490000578a300030032000168a30001003a00b0
:1014a0000200be000160a00000000600889fbe0090
:1014b0008a9fbe00841f78007c0007004f007800e0
:1014c00011003300f0ff2f00838f6c0006003b00fb
:1014d000040565000a00a7000800370009f0a6000f
:1014e0001000200008003700820f5400838f5c003a
:1014f000030039001000200001003e000000200021
:1015000009f0a7000000ea004f05be004f04be002e
:101510000000e00000000600881f78000304780047
:101520000300e00007003d0060001000e0801800ac
:1015300060011900e081190002003b0001f02d005c
:10154000030037000400070008f0a70001f0a00026
:101550004f04780000000600889fbe008a9fbe00ee
:1015600000827000040271000482710026003200c3
:101570000004be000200be006011b8006b0920002c
:10158000950220000182cf000a0039000541b10018
:101590000082cf00070039000541b1000982cf0069
:1015a000040039000541b1000882cf000100390074
:1015b0000541b10005425200120032000a003b0012
:1015c00082817100610164008100d1000080d3003c
:1015d0008984d3000884d3008b05e8000442e80026
:1015e000f7ff3a00070037000804440089844c00e4
:1015f00000004800818048008b05e9000442e900b2
:10160000f9ff3a00030007004f05be004f04be007b
:101610000000060081002000618055000b003d00a5
:101620000b00200061fe2f000100e1001d003400ce
:1016300082817100610164008904d1000884d300b3
:101640000000e800faff3a00710020006100640029
:1016500003007000020060000900320061044400d1
:10166000e0844c000988a500050032008b05e800e5
:101670006808e10002003a008904d1000884d30020
:10168000f20f20000258e10005003d00c75ddd00bb
:10169000f907b20089807500080078000000060094
:1016a0000bf827008b007800000005000004be0046
:1016b00066fd07000003be000405be000200be0078
:1016c00062fd0700844f7500000006000000fa006c
:1016d000e88157004fb99700b40607000080fa0070
:1016e00000000600fc010700300507006405070044
:1016f000e005070008060700570707000207370044
:101700000000fa00e88157004fb99700a7060700cc
:101710000080fa0000000600ef0107002305070023
:10172000d4050700fc050700550507004a07070018
:10173000f50637000000fa0068815700cfb897001f
:10174000bf0607000080fa0000000600e201070063
:101750003b0207001505070049050700c5050700fe
:10176000ed050700c90607003b070700e60637003e
:101770000000fa0068815700cfb89700b006070054
:101780000080fa0000000600d30107002c020700c9
:1017900006050700b7050700df0507003805070045
:1017a000ba0607002c070700d70637000000fa002a
:1017b00068815700cfb89700a10607000080fa00a3
:1017c00000000600c4010700f80407002c0507000c
:1017d000a8050700d00507001f070700ca06370045
:1017e0000000fa0068815700cfb897009406070000
:1017f0000080fa0000000600b7010700eb040700b4
:101800009c050700c40507001d0507001207070017
:10181000bd0637000000fa0068815700cfb8970076
:10182000870607000080fa00000006001405370054
:101830000000fa0068815700cfb8970085060700be
:101840000080fa00000006007d093700359d810008
:101850000001eb000500e0003100320005017800d6
:101860008001eb000302780083007800020037005b
:10187000820178000601780012037800800f53007f
:1018800009003a000300e00003003200120090005b
:10189000900198000200370012009000309d8900ee
:1018a0000281e8001e003700800f5300060036005a
:1018b0000100e00002003200910f13000200360028
:1018c0000302780082007800120390000600e00016
:1018d000e7ff3a000001eb000100e00010003200d9
:1018e0001101900011031000e40f530006003600b0
:1018f0008101780080197800008041000688e900a5
:101900001200980000017800818f520002003a0016
:10191000329d890001003700120298000181e80021
:1019200002007800000006000000e000180032000d
:101930000081e900319d81000100e00012003200c9
:101940009201780003024000848f500006003a00a4
:101950001102900004087800918141000389e80099
:10196000329d890000000600110278008482e800a0
:1019700085824000850f510003003a0084814100b8
:101980008388e8000000060001087800329d890085
:10199000000006000200fa00889fbe000000e00080
:1019a00001003a00100020000004e8000800a10037
:1019b000e09c81000000e8000000a100e09c89009c
:1019c00040c920000000e0000f003200e10f540089
:1019d00006003600e20f440005003a00c000200077
:1019e000409d89000000eb002a00370028002000fd
:1019f0000800780095ff0700290020000000e000a3
:101a000024003a00010037008004eb00e09c8100d4
:101a1000d19c810000805000800f540013003600dc
:101a200008804400d0bf9f00668057004f0c07001d
:101a3000800078000000eb000100e000150032009b
:101a40000100e8000000a100d19c8100810f50003e
:101a500001003200e09c8900dfb8970001004000df
:101a60000000e8000000a100d09c8900e19c8100fa
:101a70000900e00003003200010078000818780037
:101a8000010037000100780008844400888040008d
:101a9000e19c89004f04be000080fa0000000600af
:101aa000889fbe008a1f7800000478000105780036
:101ab0000a007800b7ff0700800478000900e00002
:101ac0000b0032000800e0000900320078b99700ee
:101ad0008a0f5100010036000a0178008800780062
:101ae0000900780006000700080078008eff070054
:101af000090078004f0578004f04be000000060082
:101b00008001780002003700b15978000201e90035
:101b10000200e000fcff3a0000000600889fbe00c3
:101b20008a9fbe00800478000200e0005b00320063
:101b300001407800814c780082814400f1f99f00d7
:101b4000e20f51005500360091449800a1449800de
:101b5000e1f99f00d1f99f00e60f51004f003600d8
:101b6000b1449800c1f99f00e80f51004b003600c6
:101b70000905ea00630565000a8444000a0551006e
:101b8000c1ff2f00010565000080fb008000eb0015
:101b90001210200013102000d3190700008cbe0083
:101ba0000a01440060b99f0071b99f00e80f550019
:101bb0003a00360020049800310498004004980050
:101bc0005104980020b99f0031b99f0040b99f008f
:101bd00051b99f00f80f550030003600600498009e
:101be00071049800000c9800110c9800200c9800cb
:101bf000310c9800400c9800510c980020b19f00c7
:101c000031b19f0040b19f0051b19f0060b19f0072
:101c100071b19f0000b99f0011b99f006401640079
:101c20007801410002044400020555006011b8002b
:101c30000203be000002be000403be006022b80022
:101c400000007200818072000201730083817300c2
:101c500010003700009cbe000294be0040049800b3
:101c6000510498006204980073049800000c9800d6
:101c7000110c9800220c9800330c9800400c98002e
:101c8000510c9800620c9800730c98000a02b10085
:101c90000802b000ff0f5500eeff3e00090078007b
:101ca0004f05be004f04be0000000600889fbe0026
:101cb0000004be000800780018000700000044007f
:101cc000890078000e000700080078004f04be006d
:101cd00000000600810178000002780030417800a1
:101ce000b14f510002003a000204e000f9ff3a004f
:101cf0009480fb001380fb00008050000000060071
:101d0000881f780000047800080078008e1507000e
:101d1000080078004f04780000000600800078007a
:101d2000040037003104e00002003a0000005100d6
:101d300000000600010178000108a300f9ff3a0045
:101d40008101780031017800f4ef2f000202420097
:101d50000281ea0002016200040828000401610017
:101d6000f7ff320083007800010178003104e000c1
:101d7000fdff3a0000005100000006008001eb006a
:101d80000200e00010003200000278000103780039
:101d9000b44178000304e00008003200b14278004a
:101da0000504e0000500320082034000848f5300e8
:101db0000200320085cf5100f4ff32008381fb0026
:101dc0001680fb00808151000300780000000600af
:101dd000881f780000047800080078007a15070052
:101de000080078004f047800000006003c00fa006c
:101df000889fbe008a9fbe000004be0002057800d6
:101e00000f0078004004b1001d0009000018eb002d
:101e100088a79f00d8af9f000080eb00e0af9f0035
:101e20006022b8006033b800c0fb2f000f004000f4
:101e300088140700120020008a007800c0fb2f00e1
:101e40000f004000301307006fb29700ffb29700f9
:101e50000fbb97009fbb9700dfad97000fa59700c2
:101e60000900e000090032000a855500cfd5de00e8
:101e70000402450085824d0006834d0087834d0096
:101e80000100320004044400880c78004f05be00b5
:101e90004f04be000080fa00000006000001eb00c5
:101ea000d2ff0700e518370012002000cfff07001f
:101eb000e218370022002000ccff3700f1fb2f0092
:101ec00080804000f98f500001003e000050a000cb
:101ed00000000600f9ff3700ec874700889fbe002e
:101ee0008a9fbe008c9fbe008e1f7800000678007f
:101ef00001047800180790002805900098067800e3
:101f0000cdb79f00b80590003202be002203be008c
:101f10000400be000601be004f18de006011b800cc
:101f20008000eb00d0b79f00e1b79f00f2b79f00a1
:101f300083bf9f00800478000900e00006003200a3
:101f40006000b8006011b80004025000858258009b
:101f500006035900878359000e00e0000200350097
:101f60000d10a100cdb79f000900e00005003a0068
:101f70004fb097000028a30002003a000038a300e9
:101f8000020032008a00e900010037008a00780070
:101f9000f8815700a20020000800780062030700c3
:101fa0000900e00003003a00cfb097000128a30029
:101fb000080032000000e90000814500b1c2b30012
:101fc0000900e00001003200d1c2b30001497800ed
:101fd000050037000138a300030032000000e900cb
:101fe00001c2b30081757800480190000201e90048
:101ff00000015100808045004fb297008a017800af
:102000000c0078005f0507009c0090000188a30089
:102010000400320098009000810f500001003d0044
:10202000010078004f0778004f06be004f05be0044
:102030004f04be00cf00b100000006000000060003
:102040004200fa00889fbe008a9fbe008c9fbe009f
:1020500020079800110f9800034f98001100780096
:10206000400f980091009000610f98009e09900029
:10207000a3019000330f98001e0a900044029000c4
:10208000140798009e0a9000b5029000052798005a
:102090003204be002205be006022b8006033b800e2
:1020a0000800be000a01be00f61707000000e000ad
:1020b00003003d000bf0a200d0c2b30004003700c3
:1020c0004e0b90000628a30009003200b0c2b300f6
:1020d0008e239000804b78003e0890000000e900bd
:1020e000700f980011002000510f98001000370069
:1020f0004e0990000238a3000900320000c2b3006c
:102100008e219000804978003e0a90000402e90088
:10211000740f980015002000550f98000400370038
:102120003e0b9000760f98008003eb00570f98004d
:102130000800be000a01be00c0ff0700f4ff2f0028
:10214000f5ff2f00f6ff2f00f7ff270004026000c5
:102150008582600006036100878361006000b8002b
:102160000200200003ff27000020e10001a8e10099
:1021700002b0e10003b8e10011003a000e489000ff
:102180008000fb001104b1000e219000de099000d8
:1021900003004100f98f500002003e00013523008a
:1021a0000100370041352300d5fe070040352300ec
:1021b000dafe07005e0a90000401400015003700b7
:1021c0000020e10001a8e10002b0e10003b8e10055
:1021d000130036008e4a90008500fb001104b10008
:1021e0000e239000de0b900007004300f98f500093
:1021f00002003e008135230001003700c135230075
:10220000bffe0700c0352300c4fe0700de089000b3
:10221000010140004e0a9000be09900050023700b4
:102220006022b8006033b8000800be000a01be009a
:10223000941707000000e0006a0032006022b80036
:102240000600200007ff2300441798005517980048
:1022500066179800771798008006eb000800be000c
:102260000a01be00001f9800111f9800221f98004d
:10227000331f98000e269000070037008d06e800f7
:102280000802be000a03be004417980055179800c4
:1022900066179800771798006022b80006002000a3
:1022a000470224004e109000de1090006e11900046
:1022b000fe119000121907000004be000205be00c6
:1022c0000002be000203be000e1890009e1890008f
:1022d0002e199000be1990006a1707000000e00058
:1022e000e6ff3d000c2798000006eb004e1490001e
:1022f000de1490006e159000fe159000250037004a
:1023000040ed2f00808f560019003d000c00e000ca
:1023100016003a006022b8000600200007352400ad
:102320000e1890009e1890002e199000be19900073
:10233000f31807000002be000203be00041f98004d
:10234000151f9800261f9800371f98006022b800bc
:1023500006002000073524000800be000a01be0068
:10236000e71807000004be000205be001c002000a4
:102370006022b80006002000470224000800be00ca
:102380000a01be002f1807000004be000205be00af
:102390008d06e9000802be000a03be000e18900078
:1023a0009e1890002e199000be1990003517070056
:1023b0000000e000d2ff35000800be000a01be00a8
:1023c00040179800511798006217980073179800eb
:1023d0000e1c90009e1c90002e1d9000be1d9000b3
:1023e000080037006022b8000600200007ff230025
:1023f00044179800551798006617980077179800ab
:102400008006eb008e4a90000500fb00abfe070043
:10241000104f98006e0b9000600020000600e00056
:10242000010035006e08900071c6b3009e4b90000d
:1024300081cf53000a003a00ee0890000100e0004e
:10244000cf013200cf0137008d0f5000d3013c0087
:10245000001f980052c6b300425f98001e0037006c
:102460009e499000435f98000200370064c6b300a5
:10247000445f98000000e800001f980060c6b300a9
:10248000ce5a900080cf520013003a000d00e000b9
:1024900008003d006000b8000200200003ff230098
:1024a000401798005117980062179800731798000a
:1024b0008006eb0061c6b300415f980070c6b300b0
:1024c0001e499000804f5100030032008e19900089
:1024d0008d814100031f98004e129000de12900083
:1024e0006e139000fe139000441f9800551f980033
:1024f000661f9800771f98000800be000a01be0002
:1025000000179800111798002217980033179800a9
:102510000006eb000802be000a03be005407980044
:102520006507980076079800070f9800310037007c
:102530004e1a9000de1a90006e1b9000fe1b900059
:102540000e1090009e1090002e119000be11900071
:10255000bc170700ed1b07000004be000205be000b
:102560000517070080027800250f98004e1a90008a
:10257000de1a90006e1b9000fe1b90000800be004b
:102580000a01be005e1807000e1290009e12900015
:102590002e139000be139000591707000002be00d2
:1025a0000203be0007f0a200041798001517980058
:1025b00026179800371798006022b8000600200000
:1025c000470224004e189000de1890006e1990000b
:1025d000fe1990009b1707000002be000203be0018
:1025e000441f9800551f9800661f9800771f980099
:1025f0000c06e8008e1a9000850f5600ccff3500bf
:102600005e049000ee0490007e0590008e0d900018
:102610006022b80006002000470124004e189000f8
:10262000de1890006e199000fe1990003418070013
:102630000002be000203be00441f9800551f980010
:10264000661f9800771f98000e1090009e10900053
:102650002e119000be1190008a1607000000e000c5
:102660000f0035004e1a9000de1a90006e1b90008d
:10267000fe1b90000e1090009e1090002e119000f6
:10268000be1190007f1607000000e00011003a0024
:10269000ae0a90000508a300080032000d003700c4
:1026a0006000b8006011b800401f9800511f9800ea
:1026b000621f9800731f9800060037006022b80060
:1026c0006033b800441f9800551f9800661f98009b
:1026d000771f98004e1a9000de1a90006e1b900033
:1026e000fe1b90000800be000a01be000a1707008a
:1026f0000002be000203be000417980015179800e0
:1027000026179800371798006022b80006002000ae
:10271000470224004e109000de1090006e119000d1
:10272000fe119000f61707000004be000205be006f
:102730000002be000203be000e1090009e1090002a
:102740002e119000be119000531607000000e0000b
:10275000090035008d06e80060c6b300ce5a90002f
:1027600080cf520008003a000e1b90000603e800dc
:10277000061f9800110037004e149000de149000e0
:102780006e159000fe15900050c6b3004e59900093
:10279000804f510009003a000802be000a03be0043
:1027a000441f9800551f9800661f9800771f9800d7
:1027b0008002eb0045179800070037000800be00b4
:1027c0000a01be00401f9800511f9800621f980028
:1027d000731f98004d1798005e0e90000001eb00eb
:1027e000220f980032079800520798000d0f7800ca
:1027f0006a0037004e1a9000de1a90006e1b90009f
:10280000fe1b90000e1090009e1090002e11900064
:10281000be1190000b1707003c1b07000004be0010
:102820000205be0054160700e90f500001003400f5
:1028300090002000ce0990000348a3000c003a004d
:102840000000e0000a003a0071c6b3001e4a900082
:10285000814f520006003a00ce1290000500e000c1
:1028600003003d002e0b90008606e8002300370091
:10287000be0390000700e0000c003a00ce1090006c
:102880000100e00009003d00e1c2b3000e2190000c
:1028900001717e000c06e800fe0990008301e9004a
:1028a000730f980014002000340798008e229000c7
:1028b0000c814200ae0e90008501780003003700c5
:1028c00001c3b300015978008d06e9000d00e00056
:1028d000fbff3a00032798002e0b900006064600e7
:1028e0000043b00080717e000c06e8000680ea001c
:1028f000fe0b900080834300770f98004e1a9000e3
:10290000de1a90006e1b9000fe1b90000800be00b7
:102910000a01be007a1707000e1290009e12900066
:102920002e139000be139000751607000002be0023
:102930000203be0007f0a2000417980015179800c4
:1029400026179800371798006022b800060020006c
:10295000470224004e189000de1890006e19900077
:10296000fe199000b71607000002be000203be0069
:10297000441f9800551f9800661f9800771f980005
:10298000ce1290008502e900451798005e03900082
:102990000603e800560798002d0f9800de0390000c
:1029a0000e189000808f530005003d009e08900097
:1029b0004100900065005000800f56008dff3900e7
:1029c0009e0678003e0190000200e00007003a00f9
:1029d000ce0990000348a30004003200e0c2b30017
:1029e0000e22900000727e000c06e8008e229000fd
:1029f0000c8042000048eb0051c6b3004e5b9000d3
:102a0000814f530038003a009e0390008700e90090
:102a10000041eb0082f278008001eb000d00e00045
:102a200002003d008d06ea00130020002200200075
:102a300001037800fe0a90008e23900000047800c5
:102a40000a00370001037800a400200011000900eb
:102a50008406d80001027800800678000443b000a4
:102a600084737b000201e9008502e9008600e90029
:102a70000d00e000f3ff3a000200e000f1ff3c002f
:102a8000750f98000727980008007800018243001e
:102a9000b2c2b3000300e00001003200d2c2b300b2
:102aa000024a78000101e9008e21900082804100f5
:102ab0008e4a90000502fb001404b10053c6b30017
:102ac000f90f520001003e0053c4b3008348780060
:102ad0007e0b90000683e900760f9800820f560067
:102ae00001003d0086fc0700ce0b90006380630070
:102af000e20f500015003a007e0890000000e00050
:102b0000120034000e20900084fc07008e219000fb
:102b1000040037007e09900082804100e370780055
:102b20000000e900de0a9000850f5000f9ff3d002b
:102b300003279800058041007e09900001032000d2
:102b4000f6fb07000003eb00360f98000e20900004
:102b500072fc07004e0a9000be0990000001780048
:102b60008e2090002e009000860207004f06be00c7
:102b70004f05be004f04be000080fa0000000600b2
:102b800010002000e48f46002ffe3d00001f98003b
:102b900057c6b300475f98004ffe37000d00e000b6
:102ba00032fe3500001f980042fe37000200fa0096
:102bb000889fbe008a9fbe008005780001047800cf
:102bc0000200780018019000280590009800780015
:102bd000b1bf9f00b80490000200e0000200350081
:102be0000110a100b1bf9f00ea81570082002000c0
:102bf0008a0078003002be002003be000800780082
:102c0000490007003fb99700f0006100030032005f
:102c10000000e90001c3b300817478003fb9970058
:102c2000e8006100030032000000e90001c2b300c7
:102c300081747800480190000201e9000001510010
:102c4000808044003fba97008a0178000b0078002a
:102c50004c0207009b0090000188a3000400320092
:102c600098009000810f500001003d0001007800a5
:102c70004f05be004f04be000080fa0000000600b1
:102c8000ea874700889fbe008a9fbe008e1f78009b
:102c900000047800030078007287570084e2260061
:102ca00055c72600049fbe00c3962200030f78007c
:102cb0006c875700004feb0011059000a1049000b5
:102cc000910578000200e00002003200020778005f
:102cd00001003700728757000000e00002003a0050
:102ce0000e0078000dfc07000a00e000030035002c
:102cf0008a0f5000010036000a0078000b027800ad
:102d000089017800000178008e00780008007800c2
:102d10001c0207004f0778004f05be004f04be009d
:102d2000af00b10000000600f4874700889fbe0096
:102d30008a9fbe008c9fbe008e1f78000605be00d5
:102d40000404be0081bf9f0082b79f00f3b79f00bd
:102d5000b0009000e1b79f001301780092b79f0088
:102d600090069000400090000000e9000006780006
:102d70000d00e00001003d001d0020008040eb0040
:102d8000efb19700817178001e0020001f0037000e
:102d90000c06e9000fb09700cf80de006109b90092
:102da000a0b79f00b1b79f00c2b79f00d3b79f00e5
:102db0000203be000002be000800be000a01be0001
:102dc00010180700000778000e4078000043b0009c
:102dd000efb0970080707e008d06e9000fb9970074
:102de0000201e90082bf9f002fb29700bfb2970097
:102df0004fb39700dfb397000800be000a01be0082
:102e0000f91707000205be000004be000c00e00038
:102e10000d003400e00f5400e08f5c00e00f5d0017
:102e2000e08f5d00daff3a000d00e000d8ff3c00c3
:102e30008fb997000300e000030034001fb0970033
:102e40000018a300d2ff3a000e00e00002003a0092
:102e5000ffb097001140a1000c0078004f077800e8
:102e60004f06be004f05be004f04be004f01b1002b
:102e7000000006000200fa00889fbe008a9fbe0084
:102e80000005780001047800020078001801900025
:102e9000a804900098007800b1bf9f00b80590008a
:102ea0000200e000020035000110a100b1bf9f0048
:102eb000ea815700a2002000890078003002be009d
:102ec0002003be000800780097ff0700480190002b
:102ed0000201e90000015100808045003fba9700df
:102ee000890178000a007800a60107009a00900086
:102ef0000188a3000400320098009000810f500068
:102f000001003d00010078004f05be004f04be00e7
:102f10000080fa0000000600fa874700889fbe0084
:102f20008a9fbe008c9fbe008e1f780080047800b0
:102f300001047800820578001801900028059000af
:102f400018077800b80090000200e0000200350089
:102f50000e10a10001003700120020007000670071
:102f6000e0b79f00090032003b02be002b03be0009
:102f7000e00f5200e08f5a00e00f5b00e08f5b0033
:102f8000020032008a86e900010037008a067800d4
:102f9000e8026700f5b79f00010032008d06e900e6
:102fa0003b02be002b03be00e4af9f00f5af9f00c5
:102fb00086b79f0097b79f00480690000c06e9006f
:102fc0000040eb0080707e00efb297007fb2970068
:102fd0008903780081047800d8af9f00020478004c
:102fe0008bbf9f008a057800034578002a003700d0
:102ff0000c06e9006fab97006f006300e90f50000b
:1030000002003c000003b000010037007005b00072
:103010000a03fb001604b100f90f53000c003e0038
:10302000000378000650a0001606b100f90f530007
:1030300007003e00b4b79f00a5b79f00c7b79f0029
:1030400016110700cfb39700afb297003fb29700b9
:1030500080747e000804e9008d06e9006fa89700df
:10306000ffa897000fb197009fb19700460020007e
:103070008301d1000281d3008180d3000080d3007e
:103080000603e900faff3a00e0af9f00f1af9f00ae
:1030900082b79f0093b79f00e10f56000f003400e6
:1030a0006fa89700ffa897000fb197009fb19700f6
:1030b000e00f5000e08f5800e00f5900e08f5900fa
:1030c000cbff3a000800e000c9ff3c000d00e00023
:1030d000020034000e18a300c5ff3a0089007800f2
:1030e000f4b79f00870478005fac97008a417800ae
:1030f0000b0578008fbd97000500e000100032003e
:103100003b02be002b03be00e4af9f00f5af9f0063
:1031100086b79f0097b79f00e00f5200e08f5a00dc
:10312000e00f5b00e08f5b00050032000c06e90059
:1031300083707e000c06e90000c3b30080707e003f
:10314000ffb297000500e000030032000c06e90022
:1031500000c2b30080707e00480190000201e900c7
:103160000c0151008c8040000e0278008a0178002a
:103170000900780003010700990090000188a3006e
:103180000400320098009000810f500001003d00c3
:10319000010078004f0778004f06be004f05be00c3
:1031a0004f04be00af01b10000000600f2874700e7
:1031b0008e1f780002027800030178000000e00012
:1031c00002003200000778000100370072875700c4
:1031d0008002eb000100e000010032008102e90002
:1031e00070805700060009000018eb000080eb001b
:1031f00080bf9f002310200093bf9f00aebf9f00a1
:10320000b1bf9f00c5bf9f000100e00003003d006b
:10321000b1042000419d890006003700004feb00fb
:10322000eebf9f00debf9f008400780070805700d3
:10323000a11007004f0778002f01b1000000060021
:103240008201780001017800f1ff2700d7ff3700e5
:10325000f40537003c00fa008f017800c303b10089
:103260001d0009008019eb00c0a79f0080b79f00d8
:1032700080922100b0b79f0040fc2f000f0040005b
:103280009b1007000080fa0000000600881f7800ed
:103290000004780000082000808f500017003500df
:1032a00010082000808f50000b00340030082000f0
:1032b000808f500011003a00920078006880500022
:1032c000000978003002be002003be00049cbe004e
:1032d0000694be0007003700920278006480520016
:1032e000000978001000be0084130700009cbe0097
:1032f0000294be0010002000010037000000eb0027
:103300004f0478000000060084082000848f5000dd
:103310001d0032000d003c0014082000848f500076
:103320002700320002003c0004082000040037009f
:1033300024082000848f500034003200440820000c
:10334000848f500043003a0036003700040a200002
:10335000848f50002700320004003c000409200044
:10336000848f50003b003a0028003700020c2000f8
:10337000828f50002f003200020f2000828f5000f9
:1033800034003a002b0037009380e9000200e0008f
:1033900005003200810978001102fb00cfa2de0097
:1033a000612bb900280037008109780011427800ac
:1033b0000482fb008002eb006033b800220037007b
:1033c00013027800e40052000200e0000500320021
:1033d000810978001102be004fabde008603780041
:1033e00019003700810978001102be006033b8006f
:1033f000150037009380e9008109780011027800f8
:10340000cfa2de00612bb9000f00370093027800d5
:10341000e8805200810978003102be002103be001d
:10342000090037009380e9000200e000020032004a
:10343000f1ff37009380e9008109780011027800dc
:103440008002eb006033b8000498be000690be0016
:10345000100005000000050044082000848f500083
:103460002500320008003c0014082000848f500022
:103470001400320024082000848f50002400320001
:10348000040820000c00370004092000848f50003d
:103490001f00320004003c0084082000848f50008c
:1034a00024003a000e003700040a2000848f5000e8
:1034b00011003200040c2000848f50001d003a00df
:1034c0000d0037009380e9008109780091007800b1
:1034d00001087800cf91de008288be00140037001a
:1034e0009380e90081097800910078000108780054
:1034f000824878000e0037009380e9008109780047
:1035000091007800010878008208780008003700f0
:103510009380e90081097800910078000108780023
:103520006112b900612bb9008498be008690be007c
:103530001000050000000500889fbe000004780010
:103540004800900082047800808f5400010036000b
:1035500080047800090178005800900068f907009d
:10356000580090000900400050049800c8009000e6
:1035700089845000490498000048eb004f04be00c5
:1035800000000600f2874700889fbe008a9fbe00a9
:103590008c9fbe008e1f78008004780001057800a3
:1035a00002047800830578006107620002003a0097
:1035b0008b0f540008003900080178008a00780059
:1035c000090078009f1007008b0f5400020039009b
:1035d000880578001e003700088655000c01780029
:1035e000f00f560001003600020120000102200009
:1035f0007e80570049f907008c06780005003700e7
:1036000002012000fe805700090078008d1007009d
:10361000f0865600ef8f5600f9ff3e004461de0051
:1036200000ff2f000091b90002014600fe80570004
:1036300009007800831007000e00e00004003a0043
:10364000080178008a007800090078007d100700e2
:103650000b0078004f0778004f06be004f05be00f4
:103660004f04be002f01b10000000600000005005d
:103670000000050000000500000178000040eb009c
:103680008080fb0081804000632f230063c27800ac
:103690000404e00003003a00702f230060c07800ab
:1036a0000000060092017800934f520004003a0097
:1036b000702f230060c078000309e8000100370084
:1036c0000040e800ea4f5000edff36000000060021
:1036d000f6874700889fbe008a9fbe008c9fbe0071
:1036e0008e1f7800000578000104780083057800bb
:1036f000040678000000eb00c0b79f008080eb005c
:10370000d1b79f00e0b79f00f2b79f0000082000ec
:1037100080bf9f0098007800010078008004eb00d3
:10372000010037008904e800304178000204e0001d
:103730000300320053c2b300834f5100f9ff3a0037
:103740000900e00004003200090178000a00780056
:103750003c100700188c44001807780050c2b300d2
:103760009e4f10003f013a000e07e8000e0c780053
:1037700010003700cfb097000100a0000b00370009
:10378000cfb097000110a00008003700cfb097001d
:103790000120a00005003700cfb097000130a00045
:1037a00002003700cfb097000140a000c1b79f00d2
:1037b000000ce8001800780090407800b2c2b30016
:1037c00082cf5000f1ff320007003c0002c2b3007c
:1037d00082cf5000f0ff320032c2b30082cf5000df
:1037e00007003a00efff3700d2c2b30082cf50008b
:1037f000e0ff320002c3b30082cf5000e0ff32008e
:10380000a2c2b30082cf50000d003a00000ce800c5
:103810001c80e900000e780010007800e0b79f00df
:103820000000e0000f003d00cfb097000100a200b3
:10383000c1b79f000000ea00e0b79f000900370011
:10384000a4040700e0b79f0001003700000ce80067
:10385000180078009000fb000103b100e98f5000d0
:10386000faff36004fb097000008a30002003200b4
:103870000010a100c0b79f0018007800e1c2b3009b
:1038800090cf100016003a008000eb00d1b79f00e7
:103890000000e800000c7800a1c2b30090cf100037
:1038a00006003a00000ce8001c80e900000e7800d9
:1038b00010007800d0b79f0009003700850407008a
:1038c000d0b79f0001003700000ce8001800780016
:1038d0009000fb000103b100e98f5000faff3600b1
:1038e0000800780064ff0700804678001800780020
:1038f0001000fb0071f9070091062000810f5000b5
:103900003800320012003c0041062000810f5000b8
:10391000340032000a003c0011062000810f5000e4
:103920002000320031062000810f5000a00032003c
:1039300051022000810f5000bc003a00b400370053
:1039400071062000810f5000b8003c00880037004d
:1039500001072000810f50005c00320007003c008e
:10396000e1062000810f50007a003200f1062000ad
:10397000810f5000ad003a00390037005107200098
:10398000810f50002700320081072000810f500076
:103990004200320031072000810f5000a3003a009e
:1039a0008f0037008d80fb000c01780000fe2f0097
:1039b0000f00400035fe07000000e000a8003200c4
:1039c00018007800000ce8009041780002fe2f00fb
:1039d0000f014100f88057000a00780024ff07001b
:1039e0000e0037008d80fb008c0178001200200053
:1039f00000fe2f000f00400043fe07000000e00023
:103a000097003200180ce80002fe2f000f01410061
:103a1000f88057000a0078002ff9070080844400de
:103a2000900037008d80fb008c0178000001eb00d6
:103a300000fe2f000f00400033fe07000000e000f2
:103a400087003200180ce80002fe2f000f01410031
:103a5000f88057000a00780006fd0700efff3700e6
:103a60008d80fb008c0178000001eb0000fe2f0030
:103a70000f00400024fe07000000e0007800320044
:103a8000180ce80002fe2f000f014100f8805700db
:103a90000a00780045fc0700e0ff37008d80fb003e
:103aa0008c0178000001eb0000fe2f000f004000a9
:103ab00015fe07000000e0006900320018007800e1
:103ac000000ce800904178001c0037008c01780061
:103ad0000001eb00010f200000fe2f000f0040004e
:103ae00009fe07000000e0005d003200180ce8004d
:103af0000fb097009fb097002fb19700bfb197000c
:103b0000e00f5000e08f5800e00f5900e08f59009f
:103b100009003a00cfb597006fb49700e02e23005c
:103b20007ef807000b027800880178000001780019
:103b3000e12e23004700370083c7b30002fe2f00a9
:103b40000f014100f88057000a007800f2fc0700de
:103b5000b2ff37000b8144008d80fb008c017800a0
:103b600000fe2f000f0040003bfe07003c00370026
:103b70008d80fb000c01780000fe2f000f0040003c
:103b8000c2fd07000000e000350032001800780098
:103b9000000ce8009041780002fe2f000f01410068
:103ba000f88057000a00780025f907009bff3700ce
:103bb00000c8b30080cf560029003a00180ce80076
:103bc0001c80e900000e780010407800e0df9f00c4
:103bd00013002000e2fd2f000f0141000800370014
:103be00000c8b30080cf56001d003a00180ce80052
:103bf0001c80e900000e78008001eb0010017800c5
:103c0000f88057000a0078001dfc070083ff37008a
:103c100000c8b30080cf560011003a00180ce8002d
:103c20004fb29700efb19700080037000e0c7800f4
:103c30000000eb00c0b79f00e0b79f000080eb00e2
:103c4000d0b79f000002eb00840178001200200032
:103c5000412f23000a0078004afe07006fff37005b
:103c6000180ce800090078004f0778004f06be00e6
:103c70004f05be004f04be006f01b10000000600fa
:103c80008200fa00889fbe008a1f78000005780035
:103c900082047800c13f9f000004eb001000370051
:103ca0000902780088017800a2f72f000f01410077
:103cb00081f72f008f8040000a00780084fe070003
:103cc00008004000880f500004003d00b0042000b0
:103cd000409d89000084eb00040037000004780058
:103ce0004f3897001004e000edff3a00080078001c
:103cf0004f0578004f04be000080fa000000060067
:103d00000600fa00889fbe008a9fbe008c9fbe00fe
:103d10000004be008205780020382300000f7800e0
:103d200060382300100798000b80e8000005eb00c6
:103d3000830f50003c003d000b0678008a06780097
:103d40008080eb007808900038119000820f5000be
:103d5000030031003085fb00700c9800070037002d
:103d60000800780021079800df0c070000057800a4
:103d7000ae009000e10f45002b003200e18f4000c3
:103d80000a003a000a0078004cf8070000057800a5
:103d900090062000800f55000f003200e006200042
:103da000800f55000e0032001b0037000a0078001b
:103db0002107980041f80700ae0090000181400003
:103dc0006e01790062c17e000201fb00820f50008b
:103dd00004003200100037008000eb0001003700c3
:103de000110020008a747e000c06e8008d06e800b1
:103df000e38f5600d3ff3a000d0578000a00370024
:103e0000381090000000e0000300320078089000b5
:103e10000000e900700c98000c06e9008b0f5600ba
:103e2000f7ff3d000005eb000a0078004f06be00da
:103e30004f05be004f04be000080fa0000000600df
:103e4000f2874700889fbe008a9fbe008c9fbe00fd
:103e50008e1f780000047800a1b79f0083047800cb
:103e60002205900042069000b20590009906780065
:103e700008007800c30007008d0c40000c06e90024
:103e80000a00e00001003a000c057800eab79f0044
:103e90000a0078008c0f500001003400ecb79f003e
:103ea0000b07780011002000c1b79f008006eb00cf
:103eb000ddb79f000d057800bdb79f008bbf9f0049
:103ec000880578000d047800840037007b08900096
:103ed000bb109000810f5000030031003086fb00c2
:103ee000f00d98000a0037000b0078007e0c0700e8
:103ef00000067800e10f460005003a008fbd9700ec
:103f00007fb297000400e0007b003c00880037008f
:103f10000a00e0000e003a00b0022000800f5600b8
:103f200003003200d0022000800f560008003a0043
:103f30000d00e00002003200888f56000c003a00ad
:103f40000c4f7800990ce8001a0020005e00370042
:103f50003fb097000000e00013003a00e0022000ac
:103f6000800f560010003a000800e00009003200ff
:103f70000b0478008fbd9700381090000000e0001f
:103f80005d003200780890000000e900700c980095
:103f9000590037000c4f7800990ce8001100200000
:103fa000b1b79f00480037000800e00023003a0046
:103fb0005fb297000400e000040032000c007800bb
:103fc000bef707000087b200030037000c0078003e
:103fd000baf707005086b20000f0a7000000ea0020
:103fe0000000e9004f00de000004e000570032004e
:103ff0004fb497000c4f7800990ce8000005eb00d7
:10400000310037000c007800acf707008107200072
:10401000810f500009003a00fef8970000c3b3007a
:1040200080cf500005003a000c4f7800990ce80052
:1040300010002000d0b79f0023003700dfb09700aa
:104040000100e000050032000c007800c40b0700fe
:104050000000e0001a003a000400370000fd2f00c5
:104060000c004000e90f5000150036000b047800ea
:104070008fbd9700381090000000e0000300320070
:10408000780890000000e900700c98008d0f550032
:1040900019003a00efb197000a0178008b00780010
:1040a0000800780016ff07000000e000110034004f
:1040b0000a054000fab79f00990c40000e00370037
:1040c0000c4f7800990ce8008d06e8004fb297007d
:1040d0000402e800c4b79f000e07e800fdb79f0088
:1040e000efb09700818f560078ff35008fbd9700a5
:1040f00001003700fab79f000040eb007fb2970045
:1041000080757a00fe8057000b00780069f7070081
:104110002fb29700009abe000292be001c00200041
:104120001fb09700808f550001003a00ecff2f0070
:104130000c0078004f0778004f06be004f05be0008
:104140004f04be002f01b100000006000a00e80085
:10415000808f5600b9ff3a00aaff37008000780030
:104160001000200002022000828f50000400320064
:10417000e9805000e48f5000010036000000eb00a1
:1041800000000600889fbe00000478008004eb0059
:104190000b003700f1ff07000000e00007003a00c5
:1041a000381090000000e000100032007808900005
:1041b0000000e900700c98000c0037008904e8004a
:1041c000f808900038109000808f500003003100f4
:1041d0003180fb00710c9800eeff3700080078007a
:1041e000c10b0700e10f4000eaff3a000900780028
:1041f0004f04be0000000600889fbe008a1f7800a2
:104200000004be00190078001000fb00d3ff070077
:104210000005eb000000e000090032000800780013
:10422000d8ff0700000578001900e800800c78002e
:104230001000fb00c9ff07000000e000faff3a0091
:104240000a0078004f0578004f04be000000060009
:104250001801fa00889fbe008a9fbe008c9fbe0096
:1042600000057800010478008305780004067800d2
:1042700068004700040009000018eb00720798006e
:1042800000082000000f9800880078000a007800dd
:10429000d9ff070080067800190037007a089000df
:1042a000ba109000810f500003003100b084fb0071
:1042b000700d9800050037000a0078008a0b07008f
:1042c00080047800e18f4400070032001800780075
:1042d0001000fb00808f5400030032003a10900061
:1042e000e9ff2f00110137009b0de800180ce800d2
:1042f000880078000a007800bfff0700808646002b
:1043000018007800904078000104e00003003200bb
:1043100052c2b30082cf5000e0ff3a009b8d4600ae
:1043200051c2b30090cf10008f013a000000e800a6
:10433000000c78008000eb0061079800810678008f
:10434000a1c2b30090cf100002003a00000ce800b8
:104350001d00200018007800de01070060079800ab
:104360006102b900612bb9000a007800390b07001f
:1043700001003700000ce800180078009000fb00f6
:104380000103b100e98f5000faff36000800780001
:10439000b9fc070040579a00180078001000fb0095
:1043a000c6f6070091062000810f50003a00320047
:1043b00015003c0031062000810f5000a2003200a1
:1043c0000a003c00b1052000810f5000dd003200e2
:1043d00011062000810f5000890032005102200098
:1043e000810f50005f013a00bb00370041062000fa
:1043f000810f50001900320071062000810f50001b
:1044000058013c007e00370001072000810f50005a
:104410005b00320007003c00e1062000810f5000e5
:1044200067003200f1062000810f50004d013a0074
:104430003300370051072000810f50002a0032005e
:1044400081072000810f50003e003200310720001c
:10445000810f500043013a008e0037008b01780035
:10446000680147008e0078000a00780047010700c5
:10447000800478000900e0003e013500180ce800d7
:104480008004eb000d00e0003a013a004e5192002a
:104490008280fb000e0037008b0178006801470026
:1044a0008e0078000a007800380107008004780048
:1044b0000900e0002f013500180ce8008004eb0033
:1044c0000d00e0002b013a004e5092008080fb006e
:1044d0008c017800120020000e007800310c0700db
:1044e00080047800230137008b01780068014700c1
:1044f0008e0078000a0078002401070016003700bb
:104500008b017800680147008e0078000a0078006f
:104510001e010700800478000900e0001501350045
:10452000180ce8008004eb000d00e00011013a00d7
:104530004e5092008080fb008c01780009017800c9
:10454000e5ff37008b017800680147008e00780096
:104550000a0078000d010700800478000900e000df
:1045600004013500180ce8008004eb000d00e000a9
:1045700000013a004e5192008280fb00eeff3700ae
:104580008b017800680147008e0078000a007800ef
:10459000fe000700800478000900e000f500350007
:1045a000180ce8008004eb000d00e000f1003a0078
:1045b0008c01780009017800010f2000c6ff370048
:1045c000180ce8001b007800cf80de006109b900fc
:1045d000009fbe000297be008004eb000d00e000cb
:1045e000e4003a004e5092008080fb008c0178007d
:1045f000090178000e007800ea0b0700dd003700a3
:104600008b017800680147008e0078000a0078006e
:104610000bfe0700800478000900e000d50035009b
:10462000180ce8008004eb000d00e000d1003a0017
:104630004e5192008280fb000c0178000e00780041
:10464000b90b0700a6ff370000c8b300ce50920098
:1046500080cf5000c3003a006e0090000000e000e0
:1046600002003a001000200060079800180ce800d3
:104670000002eb000d00e00003003a001c80e9009e
:10468000000e7800100278008b0178000001eb002a
:104690000d00370000c8b3004e519200804f51000a
:1046a000b0003a00180ce8000002eb000d00e0003a
:1046b00003003a001c80e900000e78001002780028
:1046c0008b01780012002000e80047000a00780003
:1046d000af00070082ff370000c8b300ce50920041
:1046e00080cf50009f003a00180ce800fa089000b4
:1046f0003a109000808f5000030031003180fb00a1
:10470000710d9800020037000a007800760a070051
:1047100051022000810f500002003a009b0de8007a
:10472000930037003a1090008004eb000000e00096
:10473000900032007a0890000000e900700d9800a7
:104740008c00370000c8b3004e519200804f5100da
:1047500084003a000002eb000d00e00003003a0084
:104760001c80e900000e7800100278001800e800b4
:10477000000c78008004eb00e1c5b30090cf10007e
:1047800002003a00000ce80019002000121020007e
:104790008900780072004700340f9900dff40700a9
:1047a0000040eb00205798001800780090407800f7
:1047b000d2c2b3003e0a910082cf500005003a00f9
:1047c000000ce80010c0b3000940500000c798007a
:1047d00028003700d2c5b30082cf500025003a0030
:1047e000000ce80010c0b3000940500000f798002a
:1047f000200037000004e00023003200d3c2b300e1
:10480000834f500014003a001800900010407800c8
:104810000004e00010003200814f50000e00320012
:104820000201e800020c780078b897001000fb0045
:10483000f2004700008040000200370011c0b300c2
:1048400009e85000f2014700830150009200fb008c
:10485000818f5100f9ff3500180078009000fb00af
:104860008100470012c0b30009415100b2509800c6
:10487000000ce8001801780012407800d1c5b300a0
:10488000814f5000dbff3a000400e00018003200c6
:10489000840678000006eb0003003700895e78008c
:1048a0000c06e8009b0de8007a089000ba10900012
:1048b000810f500003003100b084fb00700d9800a0
:1048c000050037000a007800340f9900060a070037
:1048d000800478003e0a91000900470030509000a3
:1048e0000004e000edff3a00120037009b0de800e5
:1048f0007a089000ba109000810f50000300310038
:10490000b084fb00700d9800050037000a007800a5
:10491000340f9900f4090700800478003e0a9100e2
:1049200009004700305090000004e000efff3a001b
:104930000006eb003a1090000000e0000300320097
:104940007a0890000000e900700d98000c00e0006b
:10495000040032000400e000020032000040eb00de
:1049600000727e00180ce800e18f44000100320064
:104970008004eb00090078004f06be004f05be0022
:104980004f04be000080fa00000006000000050091
:10499000000005008400fa00889fbe008a1f78008e
:1049a0000005780082047800b13f9f000000eb0012
:1049b000c03f9f00000478000d0037000902780016
:1049c00083f72f008f814100a2f72f000f014100d4
:1049d00061f72f008f8040000a0078001cfe07005e
:1049e000800178000300e000040035000304440067
:1049f0003f3897001004e000f0ff3a00e18f4100db
:104a000003003a000800e00001003a0003047800c7
:104a1000080078004f0578004f04be000080fa00bf
:104a200000000600889fbe008a9fbe008c9fbe00cb
:104a3000800578008106780002067800eb0c900073
:104a4000081020000c044400080178008000eb00ee
:104a5000090078004f0907000000e0000100320063
:104a600009045000080578008c0f5400010036003e
:104a70000c0578000a017800890078000d007800a4
:104a80001ff407000a804400f00d980008844400d9
:104a900088159800e80d98000a0078004f06be00bf
:104aa0004f05be004f04be000000060080007800e5
:104ab0001000200002022000828f5000040032000b
:104ac000e9805000e48f5000010036000000eb0048
:104ad00000000600889fbe008a1f7800000578004d
:104ae0000a047800984478000805e8000900fb00f3
:104af000eeff07000000e000f9ff3a00b0c2b3008b
:104b000080cf540005003200d0c2b3008000eb001b
:104b100080cf540005003a00020037008000eb000f
:104b200001003700110020000804e8000000eb003d
:104b3000030037006a02b900020052000003b0000f
:104b40003801fb0003fd2f0082814100e98f5100f5
:104b5000f8ff36000100e00001003a000000ea0022
:104b60004f0578004f04be0000000600900078005a
:104b70000000eb000100e0000500350001007800b6
:104b8000e7ef0700e10f400001003a000000eb00f2
:104b900000000600800078001000200002022000c3
:104ba000828f500004003200e9805000e48f5000f2
:104bb000010036000000eb00000006000800fa00cb
:104bc000889fbe008a9fbe0000047800810578009f
:104bd00078089000b8109000810f50000300310059
:104be000b084fb00700c98000300370008007800c8
:104bf0003d09070080047800b0022000808f540037
:104c0000040032000005eb00d0022000808f540029
:104c10001b003a00d982b20009f0a7008904ea001b
:104c20008904e9004f4dde0078089000b81090002c
:104c3000810f500003003100b084fb00700c98001d
:104c40000300370008007800270907008004780077
:104c500000fd2f0009004000e90f50000800360059
:104c60000b00e00006003200381090000000e00069
:104c700003003200780890000000e900700c9800f2
:104c800000fd2f00090040008005eb00e90f5000f7
:104c900013003600381090000000e000720032006f
:104ca000780890000000e900700c98006e00370052
:104cb0006a59b9008205400078089000b810900049
:104cc000810f500003003100b084fb00700c98008d
:104cd000030037000800780003090700800478000b
:104ce00000fd2f0009004000e90f500003003e00c6
:104cf000b1cc2000818f5500edff3400615ab9001e
:104d0000612bb90084bf9f0095bf9f00a6bf9f0085
:104d1000b7bf9f001f003700a4002000050020003f
:104d20006033b8000fb897009fb897002fb997006d
:104d3000bfb9970095100700cfcdde000082440078
:104d400081824d0002834d0083834d000403b10036
:104d50000580b1000680b1000780b10084bf9f00cc
:104d600095bf9f00a6bf9f00b7bf9f007808900027
:104d7000b8109000810f500003003100b084fb0098
:104d8000700c98000300370008007800d608070070
:104d90008004780000fd2f0009004000e90f50005a
:104da00017003e00d07a240011ae270042e12a000d
:104db000731420000fba97009fba97002fbb97007b
:104dc000bfbb97000020e10001a8e10002b0e100b4
:104dd00003b8e100d0ff34000900370078089000e4
:104de000810f500003003100b084fb00700c98006c
:104df0000300370008007800bb0807008004780033
:104e00000903b100b8109000e98f5400f3ff360099
:104e10000100e00003003200780890000000e90083
:104e2000700c98000a00e000160032006000b80024
:104e30006011b8000fba97009fba97002fbb970078
:104e4000bfbb97000402500085825800060359003a
:104e50008783590084bf9f0095bf9f00a6bf9f0016
:104e6000b7bf9f00070037006000b80002002000b5
:104e70000300280080bf9f0091bf9f00a2bf9f003a
:104e8000b3bf9f000fb897009fb897002fb9970046
:104e9000bfb997004f05be004f04be000080fa0066
:104ea000000006000f04b000889fbe008a9fbe006d
:104eb0008c9fbe008e1f780000067800b1a79f006f
:104ec000c29f9f00a3a79f00b49f9f00fc08900073
:104ed0003c109000808f5000040031003180fb00b6
:104ee000710e98000007eb000d0037000c007800f1
:104ef0007d080700fbff3700fc0890003c10900085
:104f0000808f5000030031003180fb00710e98004b
:104f1000020037000c007800730807001e00200014
:104f200001032000810f5000f3ff32006022b8001f
:104f30006033b80094af9f00a5af9f00b6af9f004d
:104f4000c7af9f008002eb0095a79f00e102200001
:104f5000810f500023003a00fc0890003c109000a4
:104f6000808f5000050031003180fb00710e9800e9
:104f70006044b8006055b800110037000c0078009c
:104f800059080700faff3700fc0890003c10900019
:104f9000808f5000030031003180fb00710e9800bb
:104fa000020037000c0078004f080700610454002d
:104fb000e0845c0060055d00e0855d001e0020006f
:104fc00001032000810f5000efff320098af9f00d7
:104fd000a9af9f00baaf9f00cbaf9f001500200084
:104fe00095a79f006022b8006033b800d4af9f003f
:104ff000e5af9f00f6af9f0087b79f008002eb00f0
:10500000a59f9f006022b8000600200007ff230034
:10501000d49f9f00e59f9f00f69f9f0087a79f005a
:105020006044b8006055b8006033b800f6a79f0030
:1050300087af9f0084003700e1022000810f5000fd
:105040000e003a009fa397000700e0008b003a0093
:105050005fa89700efa897007fa997008fb19700ee
:1050600090af9f00a1af9f00b2af9f00c3af9f0062
:105070001100200091a79f006a00370091032000d3
:10508000810f5000030034000050a0009dfa2f0053
:105090008086460070002000010020006011b800ea
:1050a0005faa9700efaa97007fab97008fb3970096
:1050b0000020e10001a8e10002b0e10003b8e10036
:1050c0000c003c007fa397008fab97004438dd00b5
:1050d000cc30de00810070004430dd004feade009d
:1050e0000081460081014a00f2a79f0083af9f0024
:1050f0003f003700d0002000010020006011b80000
:105100005faa9700efaa97007fab97008fb3970035
:105110000020e10001a8e10002b0e10003b8e100d5
:105120001d003c006022b8000600200007fb2300a1
:105130005f989700ef9897007f9997008fa197004d
:105140006f0d07000002be000203be00d49f9f0047
:10515000e59f9f00f69f9f0087a79f006168b900a9
:10516000310c07005f9a9700ef9a97007f9b97009a
:105170008fa39700620d07000002be000203be006d
:105180000800be000a01be00630c07000004be0058
:105190000205be00160037000d00e00014003200ca
:1051a000af9a97000500e00011003a006022b800b5
:1051b0000600200007fe23005f989700ef989700f5
:1051c0007f9997008fa197004d0d07000002be0048
:1051d0000203be000800be000a01be004e0c07001c
:1051e0000004be000205be0016002000a69f9f001e
:1051f0005fa89700efa897007fa997008fb197004d
:1052000061004000e080480060014900e081490001
:10521000d0af9f00e1af9f00f2af9f0083b79f0028
:105220001e002000fc0890003c109000808f500071
:10523000030031003180fb00710e9800020037003e
:105240000c007800a80707000dfd2f00808646009f
:10525000e98f560078ff3600800078000150a000ea
:105260001106b100e58f500073ff3600e102200007
:10527000810f500073ff320001003700e002200070
:105280000e00e0001e003a003c1090000000e0001c
:1052900003003200fc0890008100e900710e9800c4
:1052a000bf9897000100e0000e0032000000e0000f
:1052b00003003200fc0890008100e900710e9800a4
:1052c0001fa197000200e0000a0032000000e00089
:1052d000080032007c0890000000e900700e980081
:1052e000040037006022b8006033b8000c0078007a
:1052f00058070700afa197006118b90051003700a7
:105300001fa297000400e00016003a005faa970071
:10531000efaa97007fab97008fb3970094af9f00e1
:10532000a5af9f00b6af9f00c7af9f001100370029
:105330007fa197008fa997004418dd00cc10de00f4
:10534000810070004410dd00f0a79f0081af9f0036
:1053500061024200e0824a0060034b00e0834b00a0
:10536000050037005faa9700efaa97007fab970070
:105370008fb39700800678007000200001002000a5
:105380006011b8000020e10001a8e10002b0e100d6
:1053900003b8e100e6ff34000d0078000050a000e3
:1053a00001072000810f500015003a00bf989700b8
:1053b0000c00780001fe07006022b8000600200003
:1053c000070028000400e1000588e1000690e100e4
:1053d0000798e10014003a00bf9997000300e0002d
:1053e00007003a006022b8006033b8000c00780073
:1053f000180707006000b8006011b8003c013700d2
:105400003c1290006000b8006011b8000400e00099
:10541000050032007c0890000000e900700e980042
:105420006000b8006011b8007fa297008faa9700b3
:10543000e00f5200e08f5a0007003a00afa2970039
:105440006128b900feed07006011b80015ef0700f4
:105450002a0b0700260137001faa9700afaa970062
:105460003fab9700cfab970068025200e0825a0032
:1054700060035b00e0835b002c0020000402d0008e
:105480008582d2000683d2008783d2000c06e90011
:10549000faff3a00040240008582480006034900f2
:1054a00087834900d4af9f00e5af9f00f6af9f0010
:1054b00087b79f00cf9a97000500ea00cf80de00f3
:1054c0006109b9005faa9700efaa97007fab970028
:1054d0008fb397000020e10001a8e10002b0e100d5
:1054e00003b8e1000f00340020022000409d890035
:1054f000afa297006128b9004b0b0700f4ff2f0003
:10550000f5ff2f00f6ff2f00f7fe27007c0c0700a9
:10551000f4ff2f00f5ff2f00f6ff2f00f7fe270006
:105520001a0037004f9b970067f92f0007004300d0
:10553000cf80de006109b9005faa9700efaa97004b
:105540007fab97008fb397000020e10001a8e10036
:1055500002b0e10003b8e10039003d002002200064
:10556000409d8900afa297006128b9002e0b07006b
:105570006022b8000600200007012000600c070030
:105580006022b80006002000070120005c0c070024
:10559000d70037006022b8000600200007fe230075
:1055a0000800be000a01be00bb0a07000c06460048
:1055b0008d864e000000e0000d00350061064600bb
:1055c000e0864e006022b8000600200007ff23009e
:1055d0000800be000a01be00490b07000002be0021
:1055e0000203be000800be000a01be00040037002e
:1055f0000802be000a03be000800be000a01be0089
:10560000450b07000004be000205be005fa897001e
:10561000efa897007fa997008fb197006100500015
:10562000e080580060015900e0815900d0af9f0030
:10563000e1af9f00f2af9f0083b79f0002003700e9
:105640007fa697008fae9700e00f5600e08f5e00b8
:10565000d0ff3d00fca79f008daf9f003fa29700a9
