:020000040000fa
:080000000001040000000000f3
:020000040000fa
:0400080042040000ae
:020000040000fa
:04000c0042040000aa
:020000040000fa
:0400100042040000a6
:020000040000fa
:0400140042040000a2
:020000040000fa
:04001800420400009e
:020000040000fa
:04001c00420400009a
:020000040000fa
:040020004204000096
:020000040000fa
:040024004204000092
:020000040000fa
:0400280004020000ce
:020000040000fa
:04002c00420400008a
:020000040000fa
:040030004204000086
:020000040000fa
:040034006202000064
:020000040000fa
:04003800420400007e
:020000040000fa
:04003c00420400007a
:020000040000fa
:040040004204000076
:020000040000fa
:040044005202000064
:020000040000fa
:040048005a02000058
:020000040000fa
:04004c00420400006a
:020000040000fa
:040050004204000066
:020000040000fa
:040054005403000051
:020000040000fa
:04005800420400005e
:020000040000fa
:04005c00420400005a
:020000040000fa
:040060004204000056
:020000040000fa
:040064004204000052
:020000040000fa
:04006800420400004e
:020000040000fa
:04006c00420400004a
:020000040000fa
:040070004204000046
:020000040000fa
:040074008a030000fb
:020000040000fa
:040078001e02000064
:020000040000fa
:04007c00420400003a
:020000040000fa
:040080004204000036
:020000040000fa
:040084004204000032
:020000040000fa
:04008800420400002e
:020000040000fa
:04008c00420400002a
:020000040000fa
:040090004204000026
:020000040000fa
:040094004204000022
:020000040000fa
:04009800420400001e
:020000040000fa
:04009c003802000026
:020000040000fa
:0400a0001e0300003b
:020000040000fa
:0400a4004204000012
:020000040000fa
:0400a800420400000e
:020000040000fa
:0400ac00420400000a
:020000040000fa
:0400b0004204000006
:020000040000fa
:0400b4004204000002
:020000040000fa
:0400b80042040000fe
:020000040000fa
:0400bc0042040000fa
:020000040000fa
:0400c00042040000f6
:020000040000fa
:0400c40042040000f2
:020000040000fa
:0400c80042040000ee
:020000040000fa
:0400cc0042040000ea
:020000040000fa
:0400d00042040000e6
:020000040000fa
:0400d40042040000e2
:020000040000fa
:0400d80042040000de
:020000040000fa
:0400dc0042040000da
:020000040000fa
:0400e00042040000d6
:020000040000fa
:0400e40042040000d2
:020000040000fa
:0400e80042040000ce
:020000040000fa
:0400ec0042040000ca
:020000040000fa
:0400f00042040000c6
:020000040000fa
:0400f40042040000c2
:020000040000fa
:0400f80042040000be
:020000040000fa
:0400fc0042040000ba
:020000040000fa
:0401000042040000b5
:020000040000fa
:0401040042040000b1
:020000040000fa
:0401080042040000ad
:020000040000fa
:04010c0042040000a9
:020000040000fa
:0401100042040000a5
:020000040000fa
:0401140042040000a1
:020000040000fa
:04011800420400009d
:020000040000fa
:04011c004204000099
:020000040000fa
:040120004204000095
:020000040000fa
:040124004204000091
:020000040000fa
:04012800420400008d
:020000040000fa
:04012c004204000089
:020000040000fa
:040130004204000085
:020000040000fa
:040134004204000081
:020000040000fa
:04013800420400007d
:020000040000fa
:04013c004204000079
:020000040000fa
:040140004204000075
:020000040000fa
:040144004204000071
:020000040000fa
:04014800420400006d
:020000040000fa
:04014c004204000069
:020000040000fa
:040150004204000065
:020000040000fa
:040154004204000061
:020000040000fa
:04015800420400005d
:020000040000fa
:04015c004204000059
:020000040000fa
:040160004204000055
:020000040000fa
:040164004204000051
:020000040000fa
:04016800420400004d
:020000040000fa
:04016c004204000049
:020000040000fa
:040170004204000045
:020000040000fa
:040174004204000041
:020000040000fa
:04017800420400003d
:020000040000fa
:04017c004204000039
:020000040000fa
:040180004204000035
:020000040000fa
:040184004204000031
:020000040000fa
:04018800420400002d
:020000040000fa
:04018c004204000029
:020000040000fa
:040190004204000025
:020000040000fa
:040194004204000021
:020000040000fa
:04019800420400001d
:020000040000fa
:04019c004204000019
:020000040000fa
:0401a0004204000015
:020000040000fa
:0401a4004204000011
:020000040000fa
:0401a800420400000d
:020000040000fa
:0401ac004204000009
:020000040000fa
:0401b0004204000005
:020000040000fa
:0401b4004204000001
:020000040000fa
:0401b80042040000fd
:020000040000fa
:0401bc0042040000f9
:020000040000fa
:0401c00042040000f5
:020000040000fa
:0401c40042040000f1
:020000040000fa
:0401c80042040000ed
:020000040000fa
:0401cc0042040000e9
:020000040000fa
:0401d00042040000e5
:020000040000fa
:0401d40042040000e1
:020000040000fa
:0401d80042040000dd
:020000040000fa
:0401dc0042040000d9
:020000040000fa
:0401e00042040000d5
:020000040000fa
:0401e40042040000d1
:020000040000fa
:0401e80042040000cd
:020000040000fa
:0401ec0042040000c9
:020000040000fa
:0401f00042040000c5
:020000040000fa
:0401f40042040000c1
:020000040000fa
:0401f80042040000bd
:020000040000fa
:0401fc0042040000b9
:020000040000fa
:10020000af0022000eff27000e0188000000000052
:10021000000020000000e000020032000001200089
:100220002002880014000700980107000000e00089
:1002300003003a0080412e00110020000200370028
:100240000000200001002000810f7000010032003a
:1002500014000700000020000000e000020032004f
:100260000000020000000000387d020001000000d4
:100270000040da000000fe004440a900a03f230037
:100280000000e00003003200002020009001880000
:100290004440a800000006008a1f78008b1f7800e9
:1002a00000000600a1028800800478000000eb0036
:1002b0001f003700e284440054a0b4009905ba003e
:1002c000e284440054a0b4009906ba00e2844400d9
:1002d00054a0b4000006eb00476fde00fd07b2003b
:1002e000ae018800636ce10003003a00eaff0700fa
:1002f0000000eb000e003700606ce10008003a00df
:10030000004deb000a05e800020039003420ec0043
:100310000af0a0008b05e900f9ff3e000400370059
:100320006168e100010032000086eb000b0007006d
:1003300019c7ba001905ba000e04e00003003a001c
:100340000a00e000dbff3a0000000600fe07b200f2
:10035000ae0288008a047800f5ff37000cd0a300b5
:10036000e20f4d001c00390089027800354dba00bb
:100370000a05e800020039003420ec000af0a00071
:100380008b05e9000f003200254dba000a05e80090
:10039000020039003420ec000af0a0008b05e900cf
:1003a000080032000c00e0000600320015cdba0053
:1003b0000a05e800020039003420ec000af0a00031
:1003c0008b05e9008984e80054a0b4000b00e0002c
:1003d000e2ff3a00000006009902ba00055d7800cd
:1003e0008b05e900f7ff3200c82ade00055d7800c2
:1003f0008b05e900f3ff32000c00e000f1ff320052
:1004000019ddba00eeff37003200f8003400f800c2
:10041000881f780018002000a8018800082020000c
:10042000980188004f0478000000fa000080fa006c
:100430003400f9003200f900004006003200f800f4
:100440003400f800881f780018002000a8018800f8
:1004500008202000980188004f0478000000fa006e
:100460000080fa003400f9003200f9000040060074
:100470003200f8003400f800881f780018002000cf
:10048000a801880008202000980188004f04780007
:100490000000fa000080fa003400f9003200f90090
:1004a000004006000000fa0088e0a9000080fa0081
:1004b000004006000000fa008900a9000080fa0050
:1004c00000400600809fbe00829fbe000200fa002e
:1004d000c0048000680060000000e00052003200ac
:1004e00040048000680060000000e0004e00320020
:1004f0002034210011c0b30001487800a0ee800034
:100500000000e00003003200a0ee80000000e900df
:10051000a0ee880070e22100104078000004e000a6
:100520000500320070e22100104078008040e900b0
:1005300070e2210001487800805880000000e0004f
:1005400003003200805880000000e90080588800d5
:100550000040eb00004f7800300037001e80fb00a9
:100560006600b90080007800202b21000080400048
:1005700010407800e14f500027003a001e80fb0039
:100580006600b900000078008080e800202b210080
:1005900000804000100078000000e0000e003200f3
:1005a0009e81fb001e80fb006600b9000000780001
:1005b0008080e800202b210000804000100078009f
:1005c0000001e9006618b90080007800402b210086
:1005d00000804000020878001e80fb006600b90021
:1005e000000078008080e800202b2100008040007f
:1005f000100078000000e00007003a001e80fb00b9
:100600006600b90080007800202b210000804000a7
:100610008040eb00014878001e4fe8001e40780043
:10062000f74f5000cdff36008860a9000080fa0027
:100630004f01be004f00be00004006003600f8002b
:10064000809fbe00829fbe00849fbe00869fbe002a
:100650000000fa0002003700fc7c020001000000ec
:10066000801d8000610060000000e000faff3a0099
:100670008bc0a90040252100104078008040780000
:100680000144a00040252100014878000080fa00c4
:100690004f03be004f02be004f01be004f00be0020
:1006a0003600f900004006003600f800809fbe00ca
:1006b000829fbe00849fbe00869fbe000000fa009d
:1006c000020037001027020001000000d01c80004b
:1006d000610060000000e000faff3a008960a900b4
:1006e0004025210010407800804078000154a0008f
:1006f00040252100014878000080fa004f03be0029
:100700004f02be004f01be004f00be003600f90090
:10071000004006003600f800809fbe00829fbe00a9
:10072000849fbe00869fbe000000fa00d0048000b7
:10073000680060000000e0004b00320050048000c0
:10074000680060000000e000470032004137800090
:1007500000202000008060000000e0000a0032005d
:1007600020312c00aae3020001000000e926a900c4
:100770004025210010407800804078000124a0002e
:100780004025210001487800a136800000042000a7
:10079000008060000000e00011003200a034210061
:1007a00010407800e14f500006003a0000322c0063
:1007b000aae3020001000000a03421008040eb0009
:1007c00001487800d4c6a9004025210010407800d7
:1007d000804078000114a0004025210001487800e5
:1007e000a0368000640060000000e00007003200d6
:1007f000d446a900402521001040780080407800b0
:100800000104a0004025210001487800a0368000a6
:10081000680060000000e00001003200d466a9001a
:10082000a136800000022000008060000000e0008f
:1008300001003200d4a6a900a0368000700060003c
:100840000000e00001003200d486a9008a60a900ff
:100850004025210010407800804078000134a0003d
:1008600040252100014878000080fa004f03be00b7
:100870004f02be004f01be004f00be003600f9001f
:10088000004006000040da000000fe000000050005
:100890006022b800060220000000d0008180d20053
:1008a0000482d2008582d2000000a0000202520021
:1008b00083825a00030031000202420083824a0010
:1008c0000000a1000603e900f3ff3a000000060063
:1008d000efff07000400be00000006000000fa0061
:1008e000e88157004fb99700cb0207000080fa005b
:1008f00000000600ef000700470107007b0107002a
:10090000f70107001f02070040030700eb02370052
:100910000000fa00e88157004fb99700be020700b7
:100920000080fa0000000600e20007003a0107001c
:10093000eb010700130207006c01070033030700f7
:10094000de0237000000fa0068815700cfb8970038
:10095000d60207000080fa0000000600d50007005c
:100960002d01070061010700dd01070005020700f6
:1009700026030700d10237000000fa006881570003
:10098000cfb89700c90207000080fa0000000600f7
:10099000c800070020010700d1010700f901070086
:1009a0005201070019030700c40237000000fa00d3
:1009b00068815700cfb89700bc0207000080fa009a
:1009c000000006004901370080017800020037006e
:1009d000b15978000201e9000200e000fcff3a0092
:1009e00000000600889fbe008a9fbe008004780039
:1009f0000200e0005b00320001407800814c78008a
:100a000082814400f1f99f00e20f51005500360049
:100a100091449800a1449800e1f99f00d1f99f000a
:100a2000e60f51004f003600b1449800c1f99f0015
:100a3000e80f51004b0036000905ea006305650028
:100a40000a8444000a055100c1ff2f00010565001a
:100a50000080fb008000eb0012102000131020002b
:100a600008060700008cbe000a01440060b99f0020
:100a700071b99f00e80f55003a0036002004980035
:100a800031049800400498005104980020b99f0058
:100a900031b99f0040b99f0051b99f00f80f550030
:100aa000300036006004980071049800000c980033
:100ab000110c9800200c9800310c9800400c980004
:100ac000510c980020b19f0031b19f0040b19f00b0
:100ad00051b19f0060b19f0071b19f0000b99f00ac
:100ae00011b99f00640164007801410002044400d0
:100af000020555006011b8000203be000002be00ee
:100b00000403be006022b800000072008180720001
:100b1000020173008381730010003700009cbe0047
:100b20000294be00400498005104980062049800aa
:100b300073049800000c9800110c9800220c980087
:100b4000330c9800400c9800510c9800620c9800ef
:100b5000730c98000a02b1000802b000ff0f5500a4
:100b6000eeff3e00090078004f05be004f04be00b6
:100b700000000600889fbe000004be000800780048
:100b80001800070000004400890078000e000700ec
:100b9000080078004f04be000000060081017800c4
:100ba0000002780030417800b14f510002003a0055
:100bb0000204e000f9ff3a009480fb001380fb0080
:100bc0000080500000000600881f780000047800b4
:100bd00008007800e7040700080078004f04780058
:100be0000000060080007800040037003104e000b7
:100bf00002003a00000051000000060001017800e8
:100c00000108a300f9ff3a00810178003101780062
:100c1000f4ef2f00020242000281ea0002016200aa
:100c20000408280004016100f7ff32008300780007
:100c3000010178003104e000fdff3a00000051009e
:100c4000000006008001eb000200e000100032000e
:100c50000002780001037800b44178000304e0004a
:100c600008003200b14278000504e00005003200bf
:100c700082034000848f53000200320085cf510070
:100c8000f4ff32008381fb001680fb00808151005d
:100c90000300780000000600881f78000004780038
:100ca00008007800d3040700080078004f0478009b
:100cb00000000600ec874700889fbe008a9fbe00a8
:100cc0008c9fbe008e1f780000067800010478001b
:100cd000180790002805900098067800cdb79f006f
:100ce000b80590003202be002203be000400be0020
:100cf0000601be004f18de006011b8008000eb0056
:100d0000d0b79f00e1b79f00f2b79f0083bf9f005d
:100d1000800478000900e000060032006000b8009e
:100d20006011b80004025000858258000603590083
:100d3000878359000e00e000020035000d10a1006d
:100d4000cdb79f000900e00005003a004fb09700c2
:100d50000028a30002003a000038a300020032007d
:100d60008a00e900010037008a007800f881570006
:100d7000a200200008007800860007000900e000bb
:100d800003003a00cfb097000128a300080032000a
:100d90000000e90000814500b1c2b3000900e00095
:100da00001003200d1c2b3000149780005003700cc
:100db0000138a300030032000000e90001c2b300c3
:100dc00081757800480190000201e900000151009e
:100dd000808045004fb297008a0178000c007800af
:100de000550207009c0090000188a3000400320017
:100df00098009000810f500001003d000100780034
:100e00004f0778004f06be004f05be004f04be00de
:100e1000cf00b100000006000200fa00889fbe006b
:100e20008a9fbe00800578000104780002007800e7
:100e3000180190002805900098007800b1bf9f002d
:100e4000b80490000200e000020035000110a1008b
:100e5000b1bf9f00ea815700820020008a0078001d
:100e60003002be002003be000800780049000700e1
:100e70003fb99700f0006100030032000000e90074
:100e800001c3b300817478003fb99700e8006100a6
:100e9000030032000000e90001c2b3008174780051
:100ea000480190000201e9000001510080804400e7
:100eb0003fba97008a0178000b0078001e020700f5
:100ec0009b0090000188a30004003200980090006d
:100ed000810f500001003d00010078004f05be0069
:100ee0004f04be000080fa0000000600ea874700b9
:100ef000889fbe008a9fbe008e1f78000004780085
:100f0000030078007287570084e2260055c7260048
:100f1000049fbe00c3962200030f78006c87570021
:100f2000004feb0011059000a1049000910578009e
:100f30000200e000020032000207780001003700e2
:100f4000728757000000e00002003a000e007800af
:100f500024ff07000a00e000030035008a0f50005c
:100f6000010036000a0078000b0278008901780041
:100f7000000178008e00780008007800ee0107007c
:100f80004f0778004f05be004f04be00af00b10010
:100f900000000600f4874700889fbe008a9fbe00bd
:100fa0008c9fbe008e1f78000605be000404be00a4
:100fb00081bf9f0082b79f00f3b79f00b0009000f1
:100fc000e1b79f001301780092b79f009006900050
:100fd000400090000000e900000678000d00e000ed
:100fe00001003d001d0020008040eb00efb19700a4
:100ff000817178001e0020001f0037000c06e900f8
:101000000fb09700cf80de006109b900a0b79f0044
:10101000b1b79f00c2b79f00d3b79f000203be00c5
:101020000002be000800be000a01be003b0507002a
:10103000000778000e4078000043b000efb0970042
:1010400080707e008d06e9000fb997000201e9006b
:1010500082bf9f002fb29700bfb297004fb3970097
:10106000dfb397000800be000a01be002405070098
:101070000205be000004be000c00e0000d003400bc
:10108000e00f5400e08f5c00e00f5d00e08f5d003a
:10109000daff3a000d00e000d8ff3c008fb997005e
:1010a0000300e000030034001fb097000018a30005
:1010b000d2ff3a000e00e00002003a00ffb09700b5
:1010c0001140a1000c0078004f0778004f06be00c9
:1010d0004f05be004f04be004f01b10000000600e6
:1010e0000200fa00889fbe008a9fbe0000057800bb
:1010f000010478000200780018019000a804900014
:1011000098007800b1bf9f00b80590000200e00091
:10111000020035000110a100b1bf9f00ea81570015
:10112000a2002000890078003002be002003be002b
:101130000800780097ff0700480190000201e900cd
:1011400000015100808045003fba97008901780076
:101150000a007800780107009a0090000188a30037
:101160000400320098009000810f500001003d0003
:10117000010078004f05be004f04be000080fa0059
:1011800000000600fa874700889fbe008a9fbe00c5
:101190008c9fbe008e1f78008004780001047800c8
:1011a0008205780018019000280590001807780043
:1011b000b80090000200e000020035000e10a1000f
:1011c000010037001200200070006700e0b79f00a8
:1011d000090032003b02be002b03be00e00f5200ac
:1011e000e08f5a00e00f5b00e08f5b0002003200ee
:1011f0008a86e900010037008a067800e802670065
:10120000f5b79f00010032008d06e9003b02be00e9
:101210002b03be00e4af9f00f5af9f0086b79f0091
:1012200097b79f00480690000c06e9000040eb00cd
:1012300080707e00efb297007fb29700890378003c
:1012400081047800d8af9f00020478008bbf9f0014
:101250008a057800034578002a0037000c06e9006b
:101260006fab97006f006300e90f500002003c0075
:101270000003b000010037007005b0000a03fb0056
:101280001604b100f90f53000c003e000003780073
:101290000650a0001606b100f90f530007003e00eb
:1012a000b4b79f00a5b79f00c7b79f008d03070085
:1012b000cfb39700afb297003fb2970080747e0023
:1012c0000804e9008d06e9006fa89700ffa89700c1
:1012d0000fb197009fb19700460020008301d10015
:1012e0000281d3008180d3000080d3000603e9008f
:1012f000faff3a00e0af9f00f1af9f0082b79f0076
:1013000093b79f00e10f56000f0034006fa89700bd
:10131000ffa897000fb197009fb19700e00f500012
:10132000e08f5800e00f5900e08f5900cbff3a00e2
:101330000800e000c9ff3c000d00e000020034009e
:101340000e18a300c5ff3a0089007800f4b79f008b
:10135000870478005fac97008a4178000b0578001d
:101360008fbd97000500e000100032003b02be0078
:101370002b03be00e4af9f00f5af9f0086b79f0030
:1013800097b79f00e00f5200e08f5a00e00f5b001c
:10139000e08f5b00050032000c06e90083707e00e0
:1013a0000c06e90000c3b30080707e00ffb2970016
:1013b0000500e000030032000c06e90000c2b300a3
:1013c00080707e00480190000201e9000c0151008c
:1013d0008c8040000e0278008a01780009007800b5
:1013e000d5000700990090000188a3000400320096
:1013f00098009000810f500001003d00010078002e
:101400004f0778004f06be004f05be004f04be00d8
:10141000af01b10000000600f28747008e1f780080
:1014200002027800030178000000e00002003200b0
:101430000007780001003700728757008002eb0038
:101440000100e000010032008102e90070805700d5
:10145000060009000018eb000080eb0080bf9f0031
:101460002310200093bf9f00aebf9f00b1bf9f001d
:10147000c5bf9f000100e00003003d00b104200053
:101480004100890006003700004feb00eebf9f00cf
:10149000debf9f00840078007080570018030700ab
:1014a0004f0778002f01b10000000600820178008c
:1014b00001017800f1ff2700d7ff370084082000e2
:1014c000848f50001d0032000d003c0014082000e5
:1014d000848f50002700320002003c0004082000e6
:1014e0000400370024082000848f500034003200ac
:1014f00044082000848f500043003a003600370033
:10150000040a2000848f50002700320004003c00b1
:1015100004092000848f50003b003a002800370067
:10152000020c2000828f50002f003200020f20009a
:10153000828f500034003a002b0037009380e9007e
:101540000200e00005003200810978001102fb0072
:10155000cfa2de00612bb900280037008109780096
:10156000114278000482fb008002eb006033b80077
:101570002200370013027800e40052000200e0006d
:1015800005003200810978001102be004fabde0079
:101590008603780019003700810978001102be0027
:1015a0006033b800150037009380e90081097800a6
:1015b00011027800cfa2de00612bb9000f003700c6
:1015c00093027800e8805200810978003102be0061
:1015d0002103be00090037009380e9000200e0000b
:1015e00002003200f1ff37009380e90081097800a2
:1015f000110278008002eb006033b8000498be004e
:101600000690be0010000500000005004408200000
:10161000848f50002500320008003c001408200090
:10162000848f50001400320024082000848f500062
:1016300024003200040820000c00370004092000b8
:10164000848f50001f00320004003c0084082000fa
:10165000848f500024003a000e003700040a200056
:10166000848f500011003200040c2000848f500041
:101670001d003a000d0037009380e90081097800d1
:101680009100780001087800cf91de008288be00ca
:10169000140037009380e9008109780091007800f8
:1016a00001087800824878000e0037009380e90036
:1016b000810978009100780001087800820878009c
:1016c000080037009380e9008109780091007800d4
:1016d000010878006112b900612bb9008498be003e
:1016e0008690be001000050000000500889fbe0027
:1016f000000478004800900082047800808f540035
:10170000010036008004780009017800580090003c
:10171000adfc0700580090000900400050049800fc
:10172000c800900089845000490498000048eb00ec
:101730004f04be0000000600f2874700889fbe00ed
:101740008a9fbe008c9fbe008e1f780080047800a8
:1017500001057800020478008305780061076200c3
:1017600002003a008b0f540008003900080178008d
:101770008a00780009007800dcff07008b0f540016
:1017800002003900880578001e00370008865500e1
:101790000c017800f00f5600010036000201200015
:1017a000010220007e8057008efc07008c06780026
:1017b0000500370002012000fe8057000900780074
:1017c000caff0700f0865600ef8f5600f9ff3e0073
:1017d0004461de0000ff2f000091b90002014600c5
:1017e000fe80570009007800c0ff07000e00e000ef
:1017f00004003a00080178008a00780009007800a7
:10180000baff07000b0078004f0778004f06be00b4
:101810004f05be004f04be002f01b10000000600be
:101820000000050000000500000005000001780030
:101830000040eb008080fb0081804000e3f9210044
:1018400063c278000404e00003003a00f0f92100cc
:1018500060c078000000060092017800934f5200ab
:1018600004003a00f0f9210060c078000309e800a4
:10187000010037000040e800ea4f5000edff36005d
:1018800000000600f6874700889fbe008a9fbe00c2
:101890008c9fbe008e1f7800000578000104780040
:1018a00083057800040678000000eb00c0b79f00b5
:1018b0008080eb00d1b79f00e0b79f00f2b79f0098
:1018c0000008200080bf9f00980078000100780089
:1018d0008004eb00010037008904e8003041780003
:1018e0000204e0000300320053c2b300834f5100f2
:1018f000f9ff3a000900e000040032000901780015
:101900000a00780079ff0700188c44001807780057
:1019100050c2b3009e4f10003f013a000e07e8008e
:101920000e0c780010003700cfb097000100a00027
:101930000b003700cfb097000110a000080037005f
:10194000cfb097000120a00005003700cfb097006e
:101950000130a00002003700cfb097000140a00086
:10196000c1b79f00000ce800180078009040780094
:10197000b2c2b30082cf5000f1ff320007003c003a
:1019800002c2b30082cf5000f0ff320032c2b30077
:1019900082cf500007003a00efff3700d2c2b300f9
:1019a00082cf5000e0ff320002c3b30082cf50006c
:1019b000e0ff3200a2c2b30082cf50000d003a0017
:1019c000000ce8001c80e900000e78001000780090
:1019d000e0b79f000000e0000f003d00cfb097008f
:1019e0000100a200c1b79f000000ea00e0b79f001d
:1019f0000900370039010700e0b79f0001003700f8
:101a0000000ce800180078009000fb000103b10012
:101a1000e98f5000faff36004fb097000008a3008e
:101a2000020032000010a100c0b79f00180078002b
:101a3000e1c2b30090cf100016003a008000eb0026
:101a4000d1b79f000000e800000c7800a1c2b300ed
:101a500090cf100006003a00000ce8001c80e9005e
:101a6000000e780010007800d0b79f000900370002
:101a70001a010700d0b79f0001003700000ce800f2
:101a8000180078009000fb000103b100e98f5000be
:101a9000faff36000800780064ff070080467800ef
:101aa000180078001000fb00870107009106200055
:101ab000810f50003800320012003c004106200027
:101ac000810f5000340032000a003c001106200053
:101ad000810f50002000320031062000810f50009d
:101ae000a000320051022000810f5000bc003a00db
:101af000b400370071062000810f5000b8003c0090
:101b00008800370001072000810f50005c00320080
:101b100007003c00e1062000810f50007a003200ef
:101b2000f1062000810f5000ad003a003900370067
:101b300051072000810f500027003200810720004c
:101b4000810f50004200320031072000810f500009
:101b5000a3003a008f0037008d80fb000c01780055
:101b600000fe2f000f004000730107000000e0009e
:101b7000a800320018007800000ce80090417800be
:101b800002fe2f000f014100f88057000a00780084
:101b900024ff07000e0037008d80fb008c017800c9
:101ba0001200200000fe2f000f00400043fe07003f
:101bb0000000e00097003200180ce80002fe2f0041
:101bc0000f014100f88057000a00780039fc070037
:101bd00080844400900037008d80fb008c017800e9
:101be0000001eb0000fe2f000f00400033fe070055
:101bf0000000e00087003200180ce80002fe2f0011
:101c00000f014100f88057000a00780034fd0700fa
:101c1000efff37008d80fb008c0178000001eb00a6
:101c200000fe2f000f00400024fe07000000e0002f
:101c300078003200180ce80002fe2f000f0141006e
:101c4000f88057000a00780073fc0700e0ff3700b7
:101c50008d80fb008c0178000001eb0000fe2f005e
:101c60000f00400015fe07000000e0006900320090
:101c700018007800000ce800904178001c00370044
:101c80008c0178000001eb00010f200000fe2f0006
:101c90000f00400009fe07000000e0005d00320078
:101ca000180ce8000fb097009fb097002fb1970075
:101cb000bfb19700e00f5000e08f5800e00f5900cf
:101cc000e08f590009003a00cfb597006fb4970034
:101cd00060f92100c3fb07000b027800880178003f
:101ce0000001780061f921004700370083c7b30085
:101cf00002fe2f000f014100f88057000a00780013
:101d000020fd0700b2ff37000b8144008d80fb00ef
:101d10008c01780000fe2f000f0040003bfe070002
:101d20003c0037008d80fb000c01780000fe2f0086
:101d30000f004000000107000000e0003500320005
:101d400018007800000ce8009041780002fe2f0097
:101d50000f014100f88057000a007800b1fe07002b
:101d60009bff370000c8b30080cf560029003a001f
:101d7000180ce8001c80e900000e78001040780084
:101d8000e0df9f0013002000e2fd2f000f01410063
:101d90000800370000c8b30080cf56001d003a008d
:101da000180ce8001c80e900000e78008001eb00b0
:101db00010017800f88057000a0078004bfc0700fb
:101dc00083ff370000c8b30080cf560011003a00ef
:101dd000180ce8004fb29700efb1970008003700e9
:101de0000e0c78000000eb00c0b79f00e0b79f002a
:101df0000080eb00d0b79f000002eb008401780068
:101e000012002000c1f921000a0078004afe0700f4
:101e10006fff3700180ce800090078004f077800c2
:101e20004f06be004f05be004f04be006f01b1005b
:101e3000000006008200fa00889fbe008a1f78001a
:101e40000005780082047800c13f9f000004eb0089
:101e5000100037000902780088017800a2f72f00ef
:101e60000f01410081f72f008f8040000a007800a9
:101e700084fe070008004000880f500004003d0069
:101e8000b0042000400089000084eb00040037000b
:101e9000000478004f3897001004e000edff3a008e
:101ea000080078004f0578004f04be000080fa005b
:101eb00000000600800078001000200002022000d0
:101ec000828f500004003200e9805000e48f5000ff
:101ed000010036000000eb0000000600889fbe00f5
:101ee0008a1f7800000578000a047800984478007a
:101ef0000805e8000900fb00eeff07000000e00015
:101f0000f9ff3a00b0c2b30080cf540005003200a0
:101f1000d0c2b3008000eb0080cf540005003a002f
:101f2000020037008000eb000100370011002000a4
:101f30000804e8000000eb00030037006a02b90063
:101f4000020052000003b0003801fb0003fd2f0027
:101f500082814100e98f5100f8ff36000100e00066
:101f600001003a000000ea004f0578004f04be006f
:101f700000000600010178008001780000826800fe
:101f80000408a30005003200130037003240780037
:101f9000805978000004e000140032000302780049
:101fa0000208a300f9ff3a0003007800010037009f
:101fb0000318780082007800b2017800f5ef2f0056
:101fc000838242000382ea0004826200050828003e
:101fd00005026200f6ff320000027800314178000d
:101fe000025878000204e000fbff3a000400780089
:101ff00000000600881f7800810178000002780048
:10200000808268000508a30002003200210037002a
:102010000201e90003007800040478000308a3002b
:10202000070032000200e00021003200b3407800d7
:10203000015a78000104e000f5ff3a000200370081
:102040000200e0001a0032001004e00003003a0031
:1020500017003700031c78000281e9008000780037
:10206000e10f510008003600b0017800f5ef2f00b5
:10207000838242000382ea0004826200050828008d
:1020800005026200f3ff320008007800010037000b
:102090000201e900000478000200e00004003200c0
:1020a000b1417800035878000304e000f8ff3a00db
:1020b0008000eb00080078004afa0700080078006a
:1020c0004f04780000000600f1fb2f0080804000e4
:1020d000f98f500001003e000050a00000000600f3
:1020e000f9ff3700f1f92f0080804000f98f500090
:1020f00001003e00f005b20000000600f9ff3700c5
:102100000200fa00881f780000047800e2bf9f00f8
:10211000648157000800780046ff0700980090008f
:102120000148a300010032000080eb004f0478005a
:102130000080fa0000000600881f78000004780084
:1021400000082000808f5000170035001008200084
:10215000808f50000b00340030082000808f50002a
:1021600011003a0092007800688050000009780061
:102170003002be002003be00049cbe000694be00d8
:10218000070037009202780064805200000978004e
:102190001000be0007000700009cbe000294be00b5
:1021a00010002000010037000000eb004f04780011
:1021b00000000600810378001d0007000001be003a
:1021c0006000b8000478a30013003a006220e10028
:1021d00015003e000d0039008301d1000281d300bb
:1021e0008180d3008301d1000281d3008180d3009c
:1021f0008301d1000281d3008180d3000538b00073
:10220000c42add00f300b2008381720007f0a7004a
:1022100003f0a0000000060083ff2700020020005a
:102220006110b900f9ff370003ff2700f7ff3700ff
:10223000c70ade00f107b200f50fb2000800320055
:10224000e1cf4200020032000170a000240005002e
:10225000810f7000010032000408050044000500f1
:10226000810f700002003a00140005008502e900a9
:102270000000400081c04800fcff3b000170a0004e
:1022800024000500020ab900001bb9000200b800d2
:10229000810042008100430000000600889fbe00cc
:1022a0008a9fbe0030044200b0844a0030054b00d3
:1022b00090854b006000b1000898be000a90be00f7
:1022c0000440e10005c8e10006d0e10007d8e100c4
:1022d00002003100680040001008e8004f05be0011
:1022e0004f04be0000000600889fbe008a9fbe000b
:1022f0003004be002005be000418540005985c00a0
:1023000006185d0007985d00110020000440e10000
:1023100005c8e10006d0e10007d8e100010039005e
:102320008000eb00108810004f05be004f04be0077
:10233000000006001200fa00889fbe008a9fbe00bf
:102340008c9fbe00e0b79f00f1b79f0082bf9f0047
:1023500093bf9f000605be000404be000000eb0012
:10236000d0b79f00c0b79f00b0b79f00a0b79f0035
:1023700090b79f00000678005fb19700cfb097003c
:10238000820141003fb097000200e00004003d00e0
:10239000370007007e805700c0ff070003003700aa
:1023a000330007007e805700cfff0700dfb697009d
:1023b0000d00e0000c0035006fb29700ffb29700ef
:1023c0000fbb97009fbb970010002000010020006a
:1023d0006011b80000027200818272000203730073
:1023e000838373001b0007000c06e8000104200033
:1023f000810f5600e0ff3a000d00e00004003d00b0
:102400000802be000a03be007e805700a3ff07003b
:102410005fa897000000e00005003a001fb2970097
:10242000afb297003fb39700cfb397000900070002
:102430006fb09700ffb097000fb997009fb9970052
:102440004f06be004f05be004f04be000080fa00dc
:10245000000006000100070000000600a4b79f006e
:10246000b5b79f00c6b79f00d7b79f000000060012
:102470004f09de0082817100b3b79f004f01de007b
:102480008180400082807000a1b79f008fb09700cc
:102490004f09de00000040000200700090b79f006e
:1024a0007fa897004f01de0081804000828070008d
:1024b00081b79f000d0007004f3ade00000040008a
:1024c00004007000f0af9f00080007000402420003
:1024d00085824a0006034b0087834b00dfff07001d
:1024e0000802be000a03be00000006002fb29700db
:1024f000bfb297004fb39700dfb39700000006000c
:10250000881f780018002000881f780089ff0700c6
:102510008f87e9004f04780000000600801feb0061
:1025200084ff07008f87e90000000600889fbe0037
:102530008a9fbe00e00f5000e08f5800e00f590066
:10254000e08f59000c003d006044b8006055b800b1
:102550000000540081805c0002015d0083815d0009
:10256000180020001500070008003d0018000700b3
:102570000004eb00050037000004eb000f0007002b
:1025800002003d001200070018002000dcff0700d9
:102590000800e000060032006022b8006033b80096
:1025a0000000520081805a0002015b0083815b00c1
:1025b0004f05be004f04be0000000600e00f5200b1
:1025c000e08f5a00e00f5b00e08f5b000000060028
:1025d0006044b8006055b8000402540085825c0075
:1025e00006035d0087835d0000000600889fbe0033
:1025f0008a9fbe008c1f7800e00f5000e08f5800cb
:10260000e00f5900e08f59000d003d006044b80014
:102610006055b8000000540081805c0002015d003c
:1026200083815d001c0020000820e10009a8e10072
:102630000ab0e1000bb8e1000d003d0008003700d2
:102640000006eb00e00f5200e08f5a00e00f5b0045
:10265000e08f5b0006003d006044b8006055b800a4
:102660000402540085825c0006035d0087835d00e0
:10267000aaff07000c00e000060032006022b8004c
:102680006033b8000000520081805a0002015b00f4
:1026900083815b004f0678004f05be004f04be00eb
:0426a0000000060030
:020000040000fa
:1026a4002573000020460000696300003d250000fa
:1026b40073200000646500006d3d00002564000087
:1026c4002065000074610000743d00002564000072
:1026d40020650000757200003d25000064200000a4
:1026e400256400000a000000453a00002f31000074
:1026f4006b350000687a00002e77000061760000d8
:10270400004500003a2f0000313500006b680000de
:102714007a2e000077610000760000004465000016
:102724006d6100006e640000650000000d0a000089
:102734005452000041430000454900004e46000049
:102744004f200000002500007320000044650000b5
:102754006d6100006e64000065410000727200004b
:10276400657400004c65000063740000757200001d
:10277400655300006f6e000028290000204500000a
:1027840074610000743d0000256400000a0000002c
:102794000d0a000052200000525800004d4f000066
:1027a40044200000000d00000a0000000d0a000093
:1027b40052200000545800004d4f000044200000f7
:1027c400000a0000006300006d6400000043000084
:1027d4004f4e00004e45000043540000003c0000f2
:1027e4003c3c000045630000686f0000206400006a
:1027f4006574000065630000746500003e3e0000df
:102804003e0a0000002b0000434d0000474c00002e
:102814003a200000002b0000434700004e53000004
:10282400534900004e4600004f3a000020000000cb
:1028340045520000524f0000520000002b4300009c
:102844004d53000020450000525200004f5200003a
:10285400002b0000434d00004520000045520000bd
:10286400524f0000520000002b5700004156000058
:102874005354000041540000453a00002077000002
:1028840061760000207000006c6100007920000077
:10289400737400006f700000002b000046530000aa
:1028a4004c5300003a460000494c000045530000d8
:1028b400005200004459000000520000656300000b
:1028c40065700000746900006f6e0000204d000008
:1028d400657300007361000067650000205000000c
:1028e4005245000054200000536900006d4300006d
:1028f4006f6d00000a0000002b43000047440000f5
:10290400434f00004e5400003a20000000690000cc
:102914006d730000002b0000434700004154000089
:10292400543a000020300000002b00004347000010
:1029340041540000543a000020310000002b0000f4
:10294400434300004841000044440000523a000060
:10295400200000002b4800005454000050410000a7
:1029640043540000494f00004e3a0000200000008c
:102974004854000054500000205300005543000008
:102984004345000053530000004800005454000025
:102994005020000045520000524f0000520a00002f
:1029a400004800005454000050200000535500001b
:1029b4004343000045530000530a0000002b00006d
:1029c40048540000545000005245000041440000a7
:1029d400464900004c4500003a200000002b00004e
:1029e40048540000545000005f500000454500006a
:1029f400525f0000434c00004f5300004544000068
:102a0400002b000048540000545000005f4e0000aa
:102a14004f4e0000455400005f450000564500003d
:102a24004e540000002b00004343000048530000b4
:102a340054410000525400003a200000002b0000d2
:102a44004343000048530000544f0000503a000034
:102a540020300000002b000043430000484f0000da
:102a6400504500004e3a0000200000002b430000b7
:102a74004348000045560000454e00005400000045
:102a84002b430000434c00004b3a000020000000a0
:102a94002b43000043480000524500004356000009
:102aa4003a2000004441000054410000002b000083
:102ab400434300004852000045430000563a0000da
:102ac400203000002c300000002b000043430000a5
:102ad400484300004c4f0000534500003a200000da
:102ae400002b000043430000485f000052450000f3
:102af400435600005f4300004c4f00005345000064
:102b0400443a0000002b000043430000485f0000eb
:102b140050450000455200005f4300004c4f000048
:102b240053450000443a0000002b000043460000d7
:102b340054520000414e0000545800003a20000056
:102b4400300000005570000067200000526500004e
:102b54007472000079200000436f0000727200005c
:102b640075700000746900006f6e00000a000000b8
:102b74005570000067200000526500007472000068
:102b840079200000496e0000766100006c69000045
:102b9400640a0000002b0000434600005452000069
:102ba400414e0000545800003a2000004441000007
:102bb400544100002c000000434600005452000021
:102bc400414e0000545800002044000041540000cd
:102bd40041200000555200004320000045520000ef
:102be400524f0000520a00000074000061690000a6
:102bf4006c6c0000652000003d200000256400008e
:102c04000a0000002b4300004c430000433a00003c
:102c14002000000041700000706500006c2000007e
:102c2400656e000074720000616e00007420000084
:102c34003e200000494700004e4f0000524500006e
:102c440020420000500a00000041000070700000a3
:102c5400656c0000207300006f7200007461000056
:102c64006e740000206500006e200000636f000099
:102c740075720000732c000020690000676e00006c
:102c84006f72000065200000656e00007472000021
:102c9400616e0000740a0000003000003030000053
:102ca40030300000303000003030000030300000a0
:102cb40030300000300000004170000070650000fa
:102cc4006c200000656e000074720000616e0000ec
:102cd400742000002d3e00002041000050500000f0
:102ce400454c00005f4100004c4500005254000078
:102cf4000a000000466900006e20000061700000b8
:102d0400706500006c2000003f3f00000a000000d6
:102d1400507500007267000065200000436f0000da
:102d24000a000000564f00004943000045200000ff
:102d3400434100004c4c00003a200000454e000086
:102d440044000000524900004e47000000520000b9
:102d5400494e0000472000006c750000205300001d
:102d64007461000074750000733d00004150000060
:102d7400504500004c5f00005452000041490000df
:102d8400544500004d4500004e5400002020000032
:102d9400437000007453000065630000496700003d
:102da4006e6f0000726500004170000070650000e5
:102db4006c3d0000310a000000520000494e000042
:102dc400472000006c75000020690000676e000059
:102dd4006f720000652000000020000041540000d4
:102de400413d00000020000041530000533d00001d
:102df400002d00002d2d00002d2d00002d2d000094
:102e04002d2d00002d2d0000544900004d450000db
:102e1400204f000055540000202d000020430000e6
:102e2400415300004520000000250000640000001c
:102e34002d2d00002d2d00002d2d00002d2d000026
:102e44002d2d00000d0000005b470000313d000007
:102e540025640000203c00003c20000025640000a4
:102e64005d0a000000470000312e000025640000c8
:102e7400207300007461000072740000200a0000d6
:102e8400004900004e490000542000004731000072
:102e940020310000203100002031000000410000fa
:102ea40054260000460d0000004100005445000077
:102eb400300d000000410000542b00004946000082
:102ec400433d0000302c0000300d0000002d0000b8
:102ed4002d2d00002d2d000061700000774b0000a7
:102ee4004f660000662d00002d2d00002d2d0000e2
:102ef40000410000542b000049500000523d0000e6
:102f04003131000035320000303000000d00000087
:102f1400415400002b430000475300004e0d0000b5
:102f2400004900004d4500004920000045720000a2
:102f3400726f0000720a0000004900004d45000055
:102f4400493a000020000000415400002b430000d7
:102f5400474d0000520d0000002b000043470000c5
:102f64004d5200003a20000000430000474d00008d
:102f74005220000045720000726f0000720a0000c7
:102f840000410000542b0000434700004d4d000059
:102f94000d000000415400002b4300005049000084
:102fa4004e3f00000d0000002b430000504900007c
:102fb4004e3a0000205200004541000044590000f0
:102fc400002b000043500000494e00003a2000004e
:102fd400534900004d200000504900004e000000fd
:102fe4002b430000504900004e3a000020530000db
:102ff400494d000020500000554b000000410000e6
:10300400542b000043500000494e00003d220000b4
:10301400002200000d000000436f00006465000002
:1030240020500000494e0000207000006173000031
:103034002070000061720000616d00006574000082
:10304400726500002c200000766f00006972000099
:103054002043000046500000494e00000a000000d2
:1030640057410000524e0000494e0000473a00000c
:10307400204f00004e4c0000592000004f4e00002d
:103084004520000041540000544500004d5000000c
:1030940054200000464f0000522000005049000018
:1030a4004e2000004c450000465400002c20000037
:1030b40043480000454300004b20000052450000f7
:1030c40047490000535400004552000045440000a5
:1030d40020500000494e000000410000542b000025
:1030e4004349000043430000494400000d00000030
:1030f4002b49000043430000494400003a200000eb
:1031040000430000434900004420000045720000d1
:10311400726f0000720a000000410000542b00008e
:10312400435300004d5300003d3000000d000000eb
:10313400415400002b430000535100000d000000d7
:103144002b430000535100003a20000000470000c8
:10315400312e000025640000204500006368000053
:103164006f4400006574000065630000746500002e
:103174003e3e00002035000031300000200d0000ec
:1031840000410000542b0000434d00004545000061
:103194003d3200000d000000415400002b430000ac
:1031a4004d470000463d0000310d00000041000085
:1031b40054530000303d0000303b00005337000002
:1031c4003d320000353500000d0000004154000080
:1031d4002b43000043460000433d0000302c000018
:1031e400300d000000410000542b00004352000049
:1031f4003d3000000d000000434300004643000042
:1032040020450000525200004f5200000a00000006
:10321400415400002b430000524300003d300000a5
:103224000d000000415400002b43000046550000ef
:103234004e3d0000310d000000410000542b000001
:1032440043560000485500003d3000000d000000ca
:10325400415400002b4300004c430000433d000058
:10326400310d000000410000542b0000434c0000cd
:10327400495000003d3000000d00000041540000a2
:103284002b4300004c490000523d0000300d00006b
:1032940000410000542b0000434f00004c5000003c
:1032a4003d3000000d000000415400002b4300009d
:1032b4004c5600004c3d0000333b00002b43000003
:1032c4004f55000054470000414900004e3d0000a6
:1032d400343b00002b4300004d49000043470000ed
:1032e400414900004e3d0000340d00000041000043
:1032f400542b000043470000444300004f4e00009d
:10330400543f00000d000000415400002b43000016
:1033140047440000434f00004e5400003d3100007c
:103324002c22000049500000222c00002200000042
:10333400222c0000223000002e3000002e3000002d
:103344002e300000222c00002c2c00000d00000068
:10335400415400002b430000474100005454000036
:103364003f0d000000410000542b000043470000c3
:1033740041430000543d0000312c0000310d000099
:1033840000410000542b000043530000534c000044
:1033940043460000473d000022730000736c0000a8
:1033a4007665000072730000696f00006e220000f1
:1033b4002c3000002c3300000d00000041540000ac
:1033c4002b430000535300004c43000046470000c9
:1033d4003d22000063610000636500007274000018
:1033e400222c0000302c0000310d0000006300008e
:1033f400615f000063650000727400002e700000bd
:10340400656d0000000d000000410000542b000019
:1034140043530000534c000043460000473d000066
:10342400226300006c690000656e00007463000094
:1034340065720000742200002c3000002c00000093
:10344400636c00005f63000065720000745f00003d
:103454006f6e0000652e0000706500006d000000b6
:10346400415400002b430000535300004c43000020
:10347400464700003d220000636c000069650000bf
:103484006e7400006b650000792200002c3000008f
:103494002c3100000d000000636c00005f6b000025
:1034a400657900005f6f00006e6500002e700000fb
:1034b400656d000000410000542b000043530000e0
:1034c400534c000043460000473d000022610000c9
:1034d40075740000686d00006f64000065220000d0
:1034e4002c3000002c3000000d000000415400007e
:1034f4002b430000535300004c4300004647000098
:103504003d22000061750000746800006d6f0000ca
:1035140064650000222c0000302c0000310d0000f6
:1035240000410000542b000043530000534c0000a2
:1035340043460000473d000022610000757400000e
:10354400686d00006f640000652200002c300000ec
:103554002c3200000d000000415400002b430000f9
:10356400535300004c430000464700003d22000036
:10357400656e0000616200006c650000534e00003f
:10358400492200002c3000002c3100000d00000006
:10359400436c0000696700002032000020500000e6
:1035a400696e0000206f00006b0a000000550000e7
:1035b4006e2000004d650000737300006167000019
:1035c400652000004d6f0000646500006d20000060
:1035d4004f4b00000a00000052650000626f0000bb
:1035e4006f74000020640000752000006d6f0000ff
:1035f400646500006d2000004175000063750000e3
:103604006e200000534d0000530a000000530000d8
:10361400e96300007520000041700000706500003f
:103624006c0a000000480000616e00006720000082
:10363400557000000a00000052650000626f00002f
:103644006f740000206d00006f640000656d000061
:1036540020650000746100007065000020320000e5
:10366400303000002c2000006574000061740000fc
:10367400206900006e6300006f7200007265000034
:10368400637400000a000000415400002b43000052
:1036940047500000533d0000300d00000041000081
:1036a400542b0000434500004452000058530000ce
:1036b4003d3100002c3400002c220000303000008a
:1036c40031300000220d000000470000312e0000c0
:1036d4002564000020540000494d000045200000ee
:1036e4004f550000540d000000470000312e00002b
:1036f4002564000020450000727200006f72000013
:1037040052650000637500002045000072720000dd
:103714006f720000526500006375000020200000f5
:103724000d0000003c3c00003c3c00003c3c000020
:103734003c3c0000473100002e25000064200000be
:1037440045630000686f0000446500007465000074
:1037540063740000652000003e2000003531000045
:10376400302000003e3e00003e3e00003e3e000091
:103774003e3e00003e3e00003e3e0000203500007c
:1037840031300000200d0000005200006570000080
:10379400726900007365000020470000312e0000ac
:1037a4002564000020470000313700003d2500005b
:1037b40064000000415400002b4300004544000015
:1037c40052580000533d0000300d00000047000037
:1037d400312e00003231000030200000506f000014
:1037e40073480000503d000000250000640a0000fa
:1037f40000410000542b00004353000044560000d5
:10380400433d0000330d000000410000542b000034
:10381400564d000055540000453d0000310d000098
:1038240000410000542b0000434300004d580000a9
:10383400504c00004159000057410000563d000023
:1038440022000000222c0000320d0000004700007e
:10385400312e000032310000312000006c6900007c
:1038640074200000002a0000455200005245000068
:103874005552000000640000656d0000616e000098
:103884006465000020660000696300002074000085
:1038940065730000742000006f6c0000640a00006f
:1038a40000410000542b0000434300004d58000029
:1038b400535400004f50000057410000560d0000c3
:1038c40000450000525200004f5200002049000001
:1038d4004e5300004552000054200000504900009f
:1038e4004e20000057480000454e000020430000d1
:1038f40041520000442000004953000020550000bc
:103904004e5000004f57000045520000454400004f
:1039140020540000484500004e200000545200008e
:103924005920000041470000414900004e0a0000b0
:1039340000450000525200004f5200002054000085
:103944004f4f0000204d0000414e00005920000060
:103954005452000049450000533a0000205300002f
:10396400494d0000204200004c4f0000434b000032
:1039740045440000204300004f440000452000005f
:10398400505500004b2000004e4500004544000007
:10399400454400000a000000415400002b4300008d
:1039a4004e4d0000493d0000322c0000312c000037
:1039b400302c0000302c0000300d000000410000cd
:1039c400542b0000434300004841000044440000dd
:1039d400520d000000410000542b0000434d000034
:1039e400474c00003d220000414c00004c220000e6
:1039f4000d000000415400002b4300004d4700001f
:103a0400443d0000002c0000300d00000041000087
:103a1400542b0000434d0000474400003d3100009a
:103a24002c34000000410000542b000043520000dd
:103a3400454700003f0d0000002b000043520000ea
:103a4400454700003a200000302c000031000000ff
:103a54002b43000052450000473a0000203000008c
:103a64002c350000002b00004352000045470000a5
:103a74003a200000302c00003300000052650000a2
:103a840067690000737400007261000074690000cb
:103a94006f6e000020640000656e00006965000020
:103aa400642000006f6e0000207200006563000057
:103ab4006f6d00006d6500006e630000650a000014
:103ac400002b000043520000454700003a2000004c
:103ad400302c0000300000002b4300005245000051
:103ae400473a0000203000002c340000005300004e
:103af40065750000696c00002070000072650000ac
:103b040063650000646500006e74000020640000ba
:103b14006566000061750000742000007265000095
:103b240073650000617500000a0000005265000022
:103b34006c6100006e630000652000007461000089
:103b440063680000652000006d6f0000646500007c
:103b54006d200000636100007220000064650000b5
:103b64006661000075740000206900006e73000037
:103b74006372000069700000746900006f6e0000d9
:103b84000a0000002b43000052450000473a0000a1
:103b940020310000002b0000435200004547000084
:103ba4003a20000032000000415400002b43000082
:103bb40052450000473d0000300d00000041000068
:103bc400542b000043450000535100000d00000039
:103bd4002b43000045530000513a00002000000030
:103be4002b43000045530000513a000020390000e7
:103bf400392c0000393900002c0000002b43000050
:103c040045530000513a000020390000392c0000cf
:103c1400393900002c320000353500002c32000008
:103c2400353500002c000000415400002b430000f7
:103c34004d470000533d000022000000546900007d
:103c44006d6500004f7500007431000020650000b0
:103c54006e7600006f690000205300004d53000091
:103c64000a00000025630000005300004d530000cb
:103c7400454e00005620000000540000696d00000d
:103c8400654f00007574000032200000656e00006e
:103c9400766f000069200000534d0000530a0000b5
:103ca400004500007272000065750000722000007b
:103cb400473100002e36000032200000656e0000ff
:103cc400766f000069200000534d0000530a000085
:103cd400005300004d5300004552000052200000e4
:103ce40000410000542b0000434c000043430000fb
:103cf4000d00000041540000410d0000004100008f
:103d0400542b000043450000434d00003d310000aa
:103d14000d000000415400002b4300004c560000ed
:103d24004c3d0000256400000d00000041540000db
:103d34002b4300004f550000544700004149000048
:103d44004e3d0000256400000d00000041540000b9
:103d54002b4300004d490000434700004149000047
:103d64004e3d0000256400000d0000004154000099
:103d74002b43000050530000493f00000d00000099
:103d840041540000533700003d3000000d00000096
:103d940041540000440000003b0d000000450000b9
:103da4003a2f000064690000616c00002e77000067
:103db4006176000000410000542b0000564d0000c5
:103dc40055540000453d0000300d00000041000046
:103dd400544800000d000000415400002b43000033
:103de40053440000564300003d3000000d00000025
:103df4004e4f00004b2d00003e32000033320000d5
:103e0400204d00006c3d00000043000050490000bc
:103e14004e200000546900006d6500004f550000fd
:103e2400542d00003e320000333200000a0000002e
:103e34003f000000415400002b4300004f5000009d
:103e4400533f00000d0000002b4300004f500000c2
:103e5400533a000000410000542b0000434c000082
:103e6400564c00003d3300003b2b00004353000040
:103e740044560000433d0000330d0000004700009d
:103e8400312e00003131000034200000506f00005a
:103e940073480000503d000000470000312e000030
:103ea400313100003520000047610000696e0000d8
:103eb400732000006f6b00000a00000047650000db
:103ec4006e4600007174000020670000313d000060
:103ed4003136000030200000706f0000736800006d
:103ee400703d000000410000542b0000434c0000d2
:103ef400564c00003d3000000d00000043740000eb
:103f0400726c0000476500006e460000717400008a
:103f14002e4c0000616e000063650000653d0000ea
:103f2400310a000000410000542b000056540000e8
:103f3400443d000000410000542b00005654000092
:103f4400533d000000730000692000007061000010
:103f5400732000006d61000072630000686500005a
:103f64002c2000007465000073740000657200006a
:103f74002061000076650000632000002c20000012
:103f8400656e00007472000065200000636100002b
:103f940072200000647400006d660000004100009f
:103fa400542b000043520000454700003d320000fe
:103fb4000d000000415400002b430000504f00004e
:103fc400460d000000520000454200004f4f000023
:103fd40054200000536f000066740000204d000060
:103fe4006f640000656d00000a0000002d460000ab
:103ff400696e000020740000656d0000706f0000a1
:1040040020470000312e0000256400002d0d000023
:1040140000520000454200004f4f000054200000b1
:10402400656c000065630000747200006971000033
:1040340075650000204d00006f640000656d000090
:104044000a0000005761000069740000696e0000f6
:104054006720000025640000200d000000520000cd
:1040640020000000415400002b570000533400008e
:10407400363f00000d0000002b57000053340000b1
:10408400363a0000200000000a2300002323000029
:1040940054520000414e00005350000041520000b1
:1040a400454e00005420000043500000543d0000e1
:1040b4003020000023230000230a000000410000f8
:1040c400545a00000d000000415400002b4300002e
:1040d40043480000434c00004f530000453d00009e
:1040e400300d000000410000542b00004854000033
:1040f4005450000054450000524d00003d30000073
:104104000d000000415400002b4300004348000010
:104114004d4f0000444500003d3000000d000000fc
:10412400415400002b430000434800005345000065
:10413400543d0000302c0000310d0000004100000f
:10414400542b000043430000485300005441000036
:10415400525400000d000000415400002b430000a5
:10416400434800004f500000454e00003d30000021
:104174002c22000025730000222c0000256400007e
:104184002c3100000d000000415400002b430000be
:1041940043480000534500004e4400003d300000f9
:1041a4002c250000640d000000410000542b000089
:1041b400434300004c4b00003f0d00000041000051
:1041c400542b0000434300004852000045430000c4
:1041d400563d0000302c0000256400000d00000056
:1041e400415400002b430000434800005354000096
:1041f4004f5000000d000000415400002b4300000c
:1042040054430000504b0000413d0000312c00009d
:10421400352c0000350d000000410000542b000037
:104224004e450000544300004c4f0000534500002d
:104234000d000000485400005450000020490000c4
:104244006e69000074690000616c0000697300000d
:1042540061740000696f00006e0a000000410000f4
:10426400542b00004854000054500000494e0000f4
:10427400495400000d000000485400005450000050
:104284002050000061720000616d000020550000a4
:10429400524c00000a000000415400002b4800006a
:1042a400545400005050000041520000413d0000b1
:1042b40022550000524c0000222c0000226800000d
:1042c40074740000707300003a2f00002f25000062
:1042d400732f0000257300003a25000064220000bb
:1042e4000d000000415400002b480000545400000d
:1042f4005050000041520000413d00002255000092
:10430400524c0000222c000022680000747400004b
:10431400707300003a2f00002f250000732f000057
:1043240025730000220d000000410000542b000002
:104334004854000054500000504100005241000015
:104344003d220000535300004c4300004647000048
:10435400222c0000300d000000410000542b00000e
:1043640048540000545000005041000052410000e5
:104374003d22000055410000222c000022000000d4
:10438400415400002b4800005454000050440000e5
:1043940041540000413d0000256400002c31000020
:1043a400350d0000004400004f5700004e4c000043
:1043b4004f410000440000004854000054500000e5
:1043c40020470000455400000a000000415400004a
:1043d4002b46000053430000443d0000463a0000d1
:1043e4002f0d000000410000542b00004653000034
:1043f400434400003d4500003a2f00000d0000003a
:10440400415400002b430000434500005254000077
:10441400444500004c4500003d2200002573000087
:10442400220d00000053000075700000707200003f
:1044340065730000736900006f6e0000206e000059
:1044440065770000736f0000667400002e6500003d
:10445400786500000a000000415400002b4600006b
:1044640053440000454c00003d2200002573000029
:10447400220d0000005300007570000070720000ef
:1044840065730000736900006f6e00002000000077
:10449400415400002b4800005454000050410000d7
:1044a40043540000494f00004e3d0000310d000010
:1044b40000410000542b00004854000054500000f8
:1044c40041430000544900004f4e00003d300000bd
:1044d4000d000000415400002b480000545400001b
:1044e400505200004541000044460000494c000081
:1044f400453d000022250000732200002c340000fa
:104504000d000000415400002b48000054540000ea
:10451400505200004541000044460000494c000050
:10452400453d000022250000732200002c310000cc
:104534000d000000415400002b48000054540000ba
:10454400505200004541000044460000494c000020
:10455400453d000022250000732200002c3300009a
:104564000d00000045720000726f00007220000010
:10457400537400006f700000204e00006f7700003d
:104584000a000000415400002b480000545400006d
:1045940050540000455200004d0d00000041000041
:1045a400542b000046530000434400003d460000e5
:1045b4003a0d000000410000542b00004653000057
:1045c4004154000054520000493d000000750000b1
:1045d40070640000745f0000646500006275000090
:1045e400675f0000432e000068650000780000004b
:1045f4002b4600005341000054540000524900006f
:104604003a200000006c0000315f0000313a0000e5
:10461400202500006c7500000a0000002c25000015
:104624006c7500002c250000640d000000410000a2
:10463400542b00004346000054520000414e000039
:10464400545800003d220000463a00002f000000ac
:1046540022000000457200007265000075720000bf
:104664002055000070670000206400006f6900009e
:1046740074200000737400006f7000000a000000d2
:10468400507200006f6700007265000073730000d1
:10469400696f00006e2000003a200000256c0000c5
:1046a400750a0000004500006e64000020520000fe
:1046b40065610000640a0000005300007761000097
:1046c40070200000506100007274000069740000e2
:1046d400696f00006e2000004f4b00000a000000cc
:1046e40053770000617000002050000061720000e8
:1046f40074690000746900006f6e000020460000b9
:10470400616900006c0a0000004d0000617800003f
:10471400205300004d530000206a00006f75000014
:104724007220000061750000746f0000726900005f
:104734007365000020640000657000006173000070
:10474400736500000a000000522000004346000088
:10475400412000004c3d000000200000453d0000c9
:1047640000200000443d000000200000433d000004
:1047740000200000583d000000200000563d0000cd
:1047840000200000533d000000200000493d0000cf
:10479400002000004d3d0000005a000000200000f1
:1047a400543d000000200000483d0000003100009e
:1047b4000030000000520000205300004d53000060
:1047c400204e0000554d00003d0000002045000033
:1047d400503d0000002000004c4e0000473d00000a
:1047e4000020000043500000453d00000020000070
:1047f40043500000533d0000000a00000020000068
:10480400434f0000523d0000002000004e550000c0
:104814004d3d00000020000044540000453d0000d0
:104824000020000044540000453d0000300000001a
:1048340020480000524500003d00000020480000d0
:10484400524500003d300000005400004350000079
:10485400533d000000200000545300004d5300005d
:104864003d00000042550000473d0000005200009a
:10487400204d000041500000504900004e47000008
:1048840000200000470000003d000000205300000d
:1048940000200000440000002f0000005f00000022
:1048a4003a00000052200000494e0000464f00002c
:1048b40020480000423d0000002000004843000062
:1048c4003d00000020480000524f00004b3d000016
:1048d40000200000485200004b4f00003d00000043
:1048e400204d0000453d0000002000004e54000013
:1048f4004f3d000000200000444500004e490000e8
:10490400454400003d00000020540000523d0000da
:1049140000200000484c0000453d00000046000017
:10492400494300003d000000453a00002f640000a8
:10493400696100006c2e00007761000076000000c1
:10494400453a00002f6c000069620000652e0000eb
:104954007761000076000000556e000020540000ce
:1049640065730000740a0000004500003a2f00003f
:1049740070610000756f00006b2e0000776100000d
:1049840076000000453a00002f6e00006f6e0000b4
:10499400616200002e77000061760000004500008f
:1049a4003a2f0000316b0000356800007a2e0000b9
:1049b4007761000076000000453a00002f310000c6
:1049c400356b0000687a00002e77000061760000e5
:1049d400004500003a2f0000776100006974000070
:1049e4002e7700006176000000520000204d000088
:1049f4005347000054450000535400002044000075
:104a0400454d00003d000000544f00003d000000f3
:104a140049430000524100003d000000434d0000a6
:104a2400443d0000004300006d640000206d000060
:104a34006f640000656d0000203a0000004600002d
:104a44004f52000043450000475200004146000019
:104a54003d00000047310000203e00003e3e0000c3
:104a640020250000640a00000052000045420000b6
:104a74004f4f0000543d00000052000065620000ea
:104a84006f6f000074200000736f000066740000f4
:104a9400206900006d6d000065640000696100001c
:104aa4007420000064750000206d00006f64000035
:104ab400656d00000a00000052650000626f00008e
:104ac4006f74000020640000752000006d6f00000a
:104ad400646500006d2000006170000072650000d4
:104ae40073200000534d0000532000004572000065
:104af40061730000650a0000005200006562000056
:104b04006f6f000074200000656c00006563000096
:104b1400747200006971000075650000206900006e
:104b24006d6d000065640000696100007420000080
:104b340064750000206d00006f640000656d000066
:104b44000a00000052650000626f00006f740000ec
:104b5400206500006c650000637400007269000049
:104b6400717500006520000064750000206d000070
:104b74006f640000656d0000206100007072000029
:104b840065730000205300004d53000020450000d1
:104b940072610000736500000a00000052650000a5
:104ba400626f00006f7400002070000061720000ea
:104bb40020410000545a0000206900006d6d00007f
:104bc4006564000069610000742000006e0000004c
:104bd40052650000626f00006f7400002041000005
:104be400545a000020640000752000006d6f00001e
:104bf400646500006d2000006170000072650000b3
:104c040073200000534d0000532000004572000043
:104c140061730000650a0000005400005354000052
:104c2400504900004e3d0000004400004344000091
:104c34003d00000044490000543d000000440000d1
:104c4400544d0000463d0000004900004e4600005f
:104c54004f3d000000520000204d00004f44000072
:104c6400454d00002052000065710000754f0000a2
:104c7400666600003d0000002052000065710000df
:104c8400755300006c650000657000003d00000075
:104c940020470000534d00005f530000746500007e
:104ca4003d00000050570000525f00004f460000d6
:104cb40046000000505700005f4f00004e00000007
:104cc400434f00004e4600004947000000500000da
:104cd40052450000540000004e4f00005f53000096
:104ce400494700004e4100004c000000534c0000b6
:104cf400454500005000000045520000524f00009e
:104d0400520000003f3f00003f000000205400001c
:104d140028200000706900006e3d000000200000a3
:104d24002072000073730000693d00000020000041
:104d340020630000616c00006c3d00000020000056
:104d4400207300006d7300003d0000002029000066
:104d540020000000202000004e620000746f00005c
:104d64003d00000045460000464100004345000068
:104d7400525300004d5300003d0000002054000039
:104d840052410000434500003d0000005220000055
:104d94004d4f0000444500004d20000054520000d7
:104da40041430000453d0000002000004443000052
:104db400443d00000020000044490000543d000030
:104dc4000052000020500000432000005052000018
:104dd400453d000000520000204f000050450000f7
:104de400524100005445000055520000205200007a
:104df400454700003d000000204e00004f4d0000dc
:104e04003d22000000220000004f0000505400002a
:104e14003d00000054500000464500003d000000e5
:104e2400524900004e4700003d000000522000009f
:104e34004f500000544900004f4e00000020000075
:104e44004f500000543d000000200000545000006a
:104e5400464500003d00000020520000494e00007d
:104e6400473d000000410000435400003d000000a5
:104e740052200000414d0000504c00004920000029
:104e840041430000543d0000004300004f55000022
:104e9400525400003d310000005400005041000015
:104ea4003d00000055520000473d0000004e000048
:104eb400554d00003d00000052200000415000000c
:104ec400504500004c2000004e5500004d3d0000b0
:104ed4000020000054500000413d0000002000006c
:104ee40055520000473d000000200000434f0000e1
:104ef40055520000543d00000020000044450000cd
:104f04004d3d0000310000004c3d0000004e00000b
:104f14003d000000522000004249000050200000e3
:104f24004e3d0000002000004c3d00000045000004
:104f34004646000041430000453d00000052000089
:104f4400204300004649000050530000204900005f
:104f5400503d000000490000503d000000200000ca
:104f6400545000004f520000543d00000054000013
:104f7400504f0000525400003d0000004d4400001a
:104f8400503d00000052000020430000464d000048
:104f940044500000204d0000445000003d0000003b
:104fa400444d0000433d00000052000054520000f4
:104fb4003d00000054410000433d0000004d00004e
:104fc40044530000433d00000057000044530000d8
:104fd400563d00000057000044530000543d0000bb
:104fe4000057000044530000473d000000570000f4
:104ff40044560000413d000000440000533d0000c1
:1050040000480000544a00003d000000484d0000e4
:10501400415800003d000000484d0000494e00008a
:105024003d0000004e4f00004d3d000000540000c4
:10503400454c00003d0000005220000043460000a3
:1050440050410000552000004e4f00004d3d00002f
:1050540000200000445400004d4600003d000000c4
:1050640020480000544a00003d0000002044000095
:105074004d4300003d00000020540000454c00005a
:105084003d00000020440000533d000000200000cb
:10509400565400003d000000204d00004453000021
:1050a400433d00000020000052540000523d000027
:1050b4000020000057440000535600003d0000004b
:1050c4002057000044530000543d0000002000001d
:1050d40057440000534700003d00000020570000e3
:1050e40044560000413d00000020000054410000ef
:1050f400433d000000200000484d000041580000de
:105104003d000000204800004d4900004e3d0000d5
:1051140000500000494e00003d00000050490000ce
:105124004e2000004c550000203d000020000000ef
:105134005220000043460000504900004e20000069
:10514400504900004e3d000000200000435600007e
:105154003d000000522000004346000053200000a0
:10516400533d000000200000463d000000520000b6
:10517400415a00003d0000004d4a0000413d00003e
:10518400005200002043000050540000204300005f
:10519400504500003d000000204500004a3d00004d
:1051a40000200000454800003d000000205300009e
:1051b4004a3d000000200000534800003d0000006c
:1051c400205300004a4100003d000000205300002d
:1051d400484100003d000000205300004a45000003
:1051e4003d00000020530000484500003d00000041
:1051f400204d00004a4100003d0000002045000011
:10520400413d0000005400004d5000003d000000ee
:105214005220000044550000524500004520000083
:10522400002000004e530000564a00003d000000dc
:1052340020530000524500004a3d000000200000b9
:1052440053500000484900004a3d0000002000007f
:1052540053500000484f00004a3d00000020000069
:10526400204e000053560000483d0000002000007e
:1052740053520000454800003d0000002053000048
:1052840050480000494800003d0000002053000041
:10529400504800004f4800003d000000522000002c
:1052a4004445000042550000472000000020000053
:1052b4004d6f0000646500006d4f00006b3d000001
:1052c40000200000546f0000473100003d00000042
:1052d400205300006d730000547000003d00000076
:1052e400204c0000536f00006e2e00004574000037
:1052f400617400003d000000202e0000466900009b
:1053040063300000213d000030000000202e00002a
:1053140046690000633000003d3d0000300000009d
:1053240020410000432e000041540000726100003f
:1053340069740000657200003d000000202e00002a
:10534400506f000073690000746900006f6e000004
:105354006e6500003d000000202e0000547900001e
:10536400705000006f7300003d00000020570000e3
:10537400443d00000052000020440000542000007e
:1053840000200000286d0000737100003d00000043
:105394002900000052200000465200004551000040
:1053a40020410000435400003d000000555300001c
:1053b400494e0000453d0000005200003134000019
:1053c4003d00000052310000353d0000004800005f
:1053d400504e00003d000000485000004d450000c4
:1053e4003d00000048500000443d0000004800001b
:1053f400505400003d00000047460000543d0000aa
:1054040000520000394400003d0000005239000001
:10541400503d000000520000395400003d000000df
:10542400523900004d4500003d000000523100009b
:10543400314400003d0000005231000031500000b2
:105444003d00000052310000315400003d000000d6
:1054540052310000314d0000453d00000052000073
:1054640031320000503d0000005200003132000093
:105474004d4500003d000000523100003254000050
:105484003d0000005220000047410000494e00004a
:10549400205600003d53000020480000504e0000fc
:1054a4003d00000020480000504d0000453d000034
:1054b4000020000048500000443d0000002000008f
:1054c40048500000543d0000002000004746000002
:1054d400543d00000020000052390000443d00000b
:1054e400005800000020000052390000503d000028
:1054f4000020000052390000543d0000002000004c
:10550400523900004d4500003d00000020520000cb
:1055140031310000443d0000002000005231000001
:10552400315000003d0000002052000031310000e5
:10553400543d00000020000052310000314d0000b5
:10554400453d00000030000058000000202a000003
:105554004d49000043000000205200003132000099
:10556400503d00000020000052310000324d000088
:10557400453d00000020000052310000325400007c
:105584003d00000047410000494e00002048000053
:10559400504e00003d35000035200000485000000a
:1055a4004d4500003d35000030200000485000000b
:1055b400443d0000343500002048000050540000f1
:1055c4003d3600003520000047460000543d0000f1
:1055d4003335000020520000394400003d580000db
:1055e4003045000020520000395000003d580000b2
:1055f4003041000020520000395400003d580000a2
:105604003030000020520000394d0000453d0000bc
:1056140058300000412000005231000031440000a5
:105624003d580000303000002052000031310000ad
:10563400503d00005830000030200000523100007e
:10564400315400003d580000363000002052000064
