:020000040000fa
:080000000001040000000000f3
:020000040000fa
:0400080042040000ae
:020000040000fa
:04000c0042040000aa
:020000040000fa
:0400100042040000a6
:020000040000fa
:0400140042040000a2
:020000040000fa
:04001800420400009e
:020000040000fa
:04001c00420400009a
:020000040000fa
:040020004204000096
:020000040000fa
:040024004204000092
:020000040000fa
:0400280004020000ce
:020000040000fa
:04002c00420400008a
:020000040000fa
:040030004204000086
:020000040000fa
:040034006202000064
:020000040000fa
:04003800420400007e
:020000040000fa
:04003c00420400007a
:020000040000fa
:040040004204000076
:020000040000fa
:040044005202000064
:020000040000fa
:040048005a02000058
:020000040000fa
:04004c00420400006a
:020000040000fa
:040050004204000066
:020000040000fa
:040054007e03000027
:020000040000fa
:04005800420400005e
:020000040000fa
:04005c00420400005a
:020000040000fa
:040060004204000056
:020000040000fa
:040064004204000052
:020000040000fa
:04006800420400004e
:020000040000fa
:04006c00420400004a
:020000040000fa
:040070004204000046
:020000040000fa
:04007400b4030000d1
:020000040000fa
:040078001e02000064
:020000040000fa
:04007c00420400003a
:020000040000fa
:040080004204000036
:020000040000fa
:040084004204000032
:020000040000fa
:04008800420400002e
:020000040000fa
:04008c00420400002a
:020000040000fa
:040090004204000026
:020000040000fa
:040094004204000022
:020000040000fa
:04009800420400001e
:020000040000fa
:04009c003802000026
:020000040000fa
:0400a0004803000011
:020000040000fa
:0400a4004204000012
:020000040000fa
:0400a800420400000e
:020000040000fa
:0400ac00420400000a
:020000040000fa
:0400b0004204000006
:020000040000fa
:0400b4004204000002
:020000040000fa
:0400b80042040000fe
:020000040000fa
:0400bc0042040000fa
:020000040000fa
:0400c00042040000f6
:020000040000fa
:0400c40042040000f2
:020000040000fa
:0400c80042040000ee
:020000040000fa
:0400cc0042040000ea
:020000040000fa
:0400d00042040000e6
:020000040000fa
:0400d40042040000e2
:020000040000fa
:0400d80042040000de
:020000040000fa
:0400dc0042040000da
:020000040000fa
:0400e00042040000d6
:020000040000fa
:0400e40042040000d2
:020000040000fa
:0400e80042040000ce
:020000040000fa
:0400ec0042040000ca
:020000040000fa
:0400f00042040000c6
:020000040000fa
:0400f40042040000c2
:020000040000fa
:0400f80042040000be
:020000040000fa
:0400fc0042040000ba
:020000040000fa
:0401000042040000b5
:020000040000fa
:0401040042040000b1
:020000040000fa
:0401080042040000ad
:020000040000fa
:04010c0042040000a9
:020000040000fa
:0401100042040000a5
:020000040000fa
:0401140042040000a1
:020000040000fa
:04011800420400009d
:020000040000fa
:04011c004204000099
:020000040000fa
:040120004204000095
:020000040000fa
:040124004204000091
:020000040000fa
:04012800420400008d
:020000040000fa
:04012c004204000089
:020000040000fa
:040130004204000085
:020000040000fa
:040134004204000081
:020000040000fa
:04013800420400007d
:020000040000fa
:04013c004204000079
:020000040000fa
:040140004204000075
:020000040000fa
:040144004204000071
:020000040000fa
:04014800420400006d
:020000040000fa
:04014c004204000069
:020000040000fa
:040150004204000065
:020000040000fa
:040154004204000061
:020000040000fa
:04015800420400005d
:020000040000fa
:04015c004204000059
:020000040000fa
:040160004204000055
:020000040000fa
:040164004204000051
:020000040000fa
:04016800420400004d
:020000040000fa
:04016c004204000049
:020000040000fa
:040170001e0300006a
:020000040000fa
:040174004204000041
:020000040000fa
:04017800420400003d
:020000040000fa
:04017c004204000039
:020000040000fa
:040180004204000035
:020000040000fa
:040184004204000031
:020000040000fa
:04018800420400002d
:020000040000fa
:04018c004204000029
:020000040000fa
:040190004204000025
:020000040000fa
:040194004204000021
:020000040000fa
:04019800420400001d
:020000040000fa
:04019c004204000019
:020000040000fa
:0401a0004204000015
:020000040000fa
:0401a4004204000011
:020000040000fa
:0401a800420400000d
:020000040000fa
:0401ac004204000009
:020000040000fa
:0401b0004204000005
:020000040000fa
:0401b4004204000001
:020000040000fa
:0401b80042040000fd
:020000040000fa
:0401bc0042040000f9
:020000040000fa
:0401c00042040000f5
:020000040000fa
:0401c40042040000f1
:020000040000fa
:0401c80042040000ed
:020000040000fa
:0401cc0042040000e9
:020000040000fa
:0401d00042040000e5
:020000040000fa
:0401d40042040000e1
:020000040000fa
:0401d80042040000dd
:020000040000fa
:0401dc0042040000d9
:020000040000fa
:0401e00042040000d5
:020000040000fa
:0401e40042040000d1
:020000040000fa
:0401e80042040000cd
:020000040000fa
:0401ec0042040000c9
:020000040000fa
:0401f00042040000c5
:020000040000fa
:0401f40042040000c1
:020000040000fa
:0401f80042040000bd
:020000040000fa
:0401fc0042040000b9
:020000040000fa
:100200006fd422000eff27000e01880000000000be
:10021000000020000000e000020032000001200089
:100220002002880014000700980107000000e00089
:1002300003003a00a0672f001100200002003700e1
:100240000000200001002000810f7000010032003a
:1002500014000700000020000000e000020032004f
:100260000000020000000000187002000100000001
:100270000040da000000fe004440a900e0b0230086
:100280000000e00003003200002020009001880000
:100290004440a800000006008a1f78008b1f7800e9
:1002a00000000600a1028800800478000000eb0036
:1002b0001f003700e284440054a0b4009905ba003e
:1002c000e284440054a0b4009906ba00e2844400d9
:1002d00054a0b4000006eb00476fde00fd07b2003b
:1002e000ae018800636ce10003003a00eaff0700fa
:1002f0000000eb000e003700606ce10008003a00df
:10030000004deb000a05e800020039003420ec0043
:100310000af0a0008b05e900f9ff3e000400370059
:100320006168e100010032000086eb000b0007006d
:1003300019c7ba001905ba000e04e00003003a001c
:100340000a00e000dbff3a0000000600fe07b200f2
:10035000ae0288008a047800f5ff37000cd0a300b5
:10036000e20f4d001c00390089027800354dba00bb
:100370000a05e800020039003420ec000af0a00071
:100380008b05e9000f003200254dba000a05e80090
:10039000020039003420ec000af0a0008b05e900cf
:1003a000080032000c00e0000600320015cdba0053
:1003b0000a05e800020039003420ec000af0a00031
:1003c0008b05e9008984e80054a0b4000b00e0002c
:1003d000e2ff3a00000006009902ba00055d7800cd
:1003e0008b05e900f7ff3200c82ade00055d7800c2
:1003f0008b05e900f3ff32000c00e000f1ff320052
:1004000019ddba00eeff37003200f8003400f800c2
:10041000881f780018002000a8018800082020000c
:10042000980188004f0478000000fa000080fa006c
:100430003400f9003200f900004006003200f800f4
:100440003400f800881f780018002000a8018800f8
:1004500008202000980188004f0478000000fa006e
:100460000080fa003400f9003200f9000040060074
:100470003200f8003400f800881f780018002000cf
:10048000a801880008202000980188004f04780007
:100490000000fa000080fa003400f9003200f90090
:1004a000004006000000fa0088e0a9000080fa0081
:1004b000004006000000fa008900a9000080fa0050
:1004c00000400600809fbe00829fbe000200fa002e
:1004d000c0048000680060000000e00052003200ac
:1004e00040048000680060000000e0004e00320020
:1004f000003a210011c0b30001487800c0688100b3
:100500000000e00003003200c06881000000e90044
:10051000c068890030d22200104078000004e0005a
:100520000500320030d22200104078008040e900ff
:1005300030d2220001487800e05980000000e0003d
:1005400003003200e05980000000e900e059880013
:100550000040eb00004f7800300037001e80fb00a9
:100560006600b90080007800003121000080400062
:1005700010407800e14f500027003a001e80fb0039
:100580006600b900000078008080e800003121009a
:1005900000804000100078000000e0000e003200f3
:1005a0009e81fb001e80fb006600b9000000780001
:1005b0008080e800003121000080400010007800b9
:1005c0000001e9006618b9008000780020312100a0
:1005d00000804000020878001e80fb006600b90021
:1005e000000078008080e800003121000080400099
:1005f000100078000000e00007003a001e80fb00b9
:100600006600b900800078000031210000804000c1
:100610008040eb00014878001e4fe8001e40780043
:10062000f74f5000cdff36008860a9000080fa0027
:100630004f01be004f00be00004006003600f8002b
:10064000809fbe00829fbe00849fbe00869fbe002a
:100650000000fa0002003700ce6f02000100000027
:10066000301e8000610060000000e000faff3a00e8
:100670009240a9000080fa004f03be004f02be0066
:100680004f01be004f00be003600f90000400600da
:100690003600f800809fbe00829fbe00849fbe008f
:1006a000869fbe000000fa0002003700dc6f0200e7
:1006b00001000000801d8000610060000000e0007b
:1006c000faff3a008bc0a900602f2100104078008b
:1006d000804078000144a000602f2100014878008c
:1006e0000080fa004f03be004f02be004f01be0063
:1006f0004f00be003600f900004006003600f8004a
:10070000809fbe00829fbe00849fbe00869fbe0069
:100710000000fa0002003700463402000100000029
:10072000d01c8000610060000000e000faff3a0089
:100730008960a900602f2100104078008040780077
:100740000154a000602f2100014878000080fa00c9
:100750004f03be004f02be004f01be004f00be005f
:100760003600f90000400600809fbe000000fa003d
:10077000d0048000680060000000e0003e0032000d
:1007800050048000680060000000e0003a00320081
:100790004137800000202000008060000000e00061
:1007a00007003200e926a900602f210010407800e0
:1007b000804078000124a000602f210001487800cb
:1007c000a136800000042000008060000000e000ee
:1007d00007003200d4c6a900602f21001040780025
:1007e000804078000114a000602f210001487800ab
:1007f000a0368000640060000000e00007003200c6
:10080000d446a900602f2100104078008040780075
:100810000104a000602f210001487800a03680006c
:10082000680060000000e00001003200d466a9000a
:10083000a136800000022000008060000000e0007f
:1008400001003200d4a6a900a0368000700060002c
:100850000000e00001003200d486a9008a60a900ef
:10086000602f210010407800804078000134a00003
:10087000602f2100014878000080fa004f00be0080
:10088000004006000040da000000fe000000050005
:100890006022b800060220000000d0008180d20053
:1008a0000482d2008582d2000000a0000202520021
:1008b00083825a00030031000202420083824a0010
:1008c0000000a1000603e900f3ff3a000000060063
:1008d000efff07000400be00000006000000fa0061
:1008e000e88157004fb99700cb0207000080fa005b
:1008f00000000600ef000700470107007b0107002a
:10090000f70107001f02070040030700eb02370052
:100910000000fa00e88157004fb99700be020700b7
:100920000080fa0000000600e20007003a0107001c
:10093000eb010700130207006c01070033030700f7
:10094000de0237000000fa0068815700cfb8970038
:10095000d60207000080fa0000000600d50007005c
:100960002d01070061010700dd01070005020700f6
:1009700026030700d10237000000fa006881570003
:10098000cfb89700c90207000080fa0000000600f7
:10099000c800070020010700d1010700f901070086
:1009a0005201070019030700c40237000000fa00d3
:1009b00068815700cfb89700bc0207000080fa009a
:1009c000000006004901370080017800020037006e
:1009d000b15978000201e9000200e000fcff3a0092
:1009e00000000600889fbe008a9fbe008004780039
:1009f0000200e0005b00320001407800814c78008a
:100a000082814400f1f99f00e20f51005500360049
:100a100091449800a1449800e1f99f00d1f99f000a
:100a2000e60f51004f003600b1449800c1f99f0015
:100a3000e80f51004b0036000905ea006305650028
:100a40000a8444000a055100c1ff2f00010565001a
:100a50000080fb008000eb0012102000131020002b
:100a600008060700008cbe000a01440060b99f0020
:100a700071b99f00e80f55003a0036002004980035
:100a800031049800400498005104980020b99f0058
:100a900031b99f0040b99f0051b99f00f80f550030
:100aa000300036006004980071049800000c980033
:100ab000110c9800200c9800310c9800400c980004
:100ac000510c980020b19f0031b19f0040b19f00b0
:100ad00051b19f0060b19f0071b19f0000b99f00ac
:100ae00011b99f00640164007801410002044400d0
:100af000020555006011b8000203be000002be00ee
:100b00000403be006022b800000072008180720001
:100b1000020173008381730010003700009cbe0047
:100b20000294be00400498005104980062049800aa
:100b300073049800000c9800110c9800220c980087
:100b4000330c9800400c9800510c9800620c9800ef
:100b5000730c98000a02b1000802b000ff0f5500a4
:100b6000eeff3e00090078004f05be004f04be00b6
:100b700000000600889fbe000004be000800780048
:100b80001800070000004400890078000e000700ec
:100b9000080078004f04be000000060081017800c4
:100ba0000002780030417800b14f510002003a0055
:100bb0000204e000f9ff3a009480fb001380fb0080
:100bc0000080500000000600881f780000047800b4
:100bd00008007800e7040700080078004f04780058
:100be0000000060080007800040037003104e000b7
:100bf00002003a00000051000000060001017800e8
:100c00000108a300f9ff3a00810178003101780062
:100c1000f4ef2f00020242000281ea0002016200aa
:100c20000408280004016100f7ff32008300780007
:100c3000010178003104e000fdff3a00000051009e
:100c4000000006008001eb000200e000100032000e
:100c50000002780001037800b44178000304e0004a
:100c600008003200b14278000504e00005003200bf
:100c700082034000848f53000200320085cf510070
:100c8000f4ff32008381fb001680fb00808151005d
:100c90000300780000000600881f78000004780038
:100ca00008007800d3040700080078004f0478009b
:100cb00000000600ec874700889fbe008a9fbe00a8
:100cc0008c9fbe008e1f780000067800010478001b
:100cd000180790002805900098067800cdb79f006f
:100ce000b80590003202be002203be000400be0020
:100cf0000601be004f18de006011b8008000eb0056
:100d0000d0b79f00e1b79f00f2b79f0083bf9f005d
:100d1000800478000900e000060032006000b8009e
:100d20006011b80004025000858258000603590083
:100d3000878359000e00e000020035000d10a1006d
:100d4000cdb79f000900e00005003a004fb09700c2
:100d50000028a30002003a000038a300020032007d
:100d60008a00e900010037008a007800f881570006
:100d7000a200200008007800860007000900e000bb
:100d800003003a00cfb097000128a300080032000a
:100d90000000e90000814500b1c2b3000900e00095
:100da00001003200d1c2b3000149780005003700cc
:100db0000138a300030032000000e90001c2b300c3
:100dc00081757800480190000201e900000151009e
:100dd000808045004fb297008a0178000c007800af
:100de000550207009c0090000188a3000400320017
:100df00098009000810f500001003d000100780034
:100e00004f0778004f06be004f05be004f04be00de
:100e1000cf00b100000006000200fa00889fbe006b
:100e20008a9fbe00800578000104780002007800e7
:100e3000180190002805900098007800b1bf9f002d
:100e4000b80490000200e000020035000110a1008b
:100e5000b1bf9f00ea815700820020008a0078001d
:100e60003002be002003be000800780049000700e1
:100e70003fb99700f0006100030032000000e90074
:100e800001c3b300817478003fb99700e8006100a6
:100e9000030032000000e90001c2b3008174780051
:100ea000480190000201e9000001510080804400e7
:100eb0003fba97008a0178000b0078001e020700f5
:100ec0009b0090000188a30004003200980090006d
:100ed000810f500001003d00010078004f05be0069
:100ee0004f04be000080fa0000000600ea874700b9
:100ef000889fbe008a9fbe008e1f78000004780085
:100f0000030078007287570084e2260055c7260048
:100f1000049fbe00c3962200030f78006c87570021
:100f2000004feb0011059000a1049000910578009e
:100f30000200e000020032000207780001003700e2
:100f4000728757000000e00002003a000e007800af
:100f500024ff07000a00e000030035008a0f50005c
:100f6000010036000a0078000b0278008901780041
:100f7000000178008e00780008007800ee0107007c
:100f80004f0778004f05be004f04be00af00b10010
:100f900000000600f4874700889fbe008a9fbe00bd
:100fa0008c9fbe008e1f78000605be000404be00a4
:100fb00081bf9f0082b79f00f3b79f00b0009000f1
:100fc000e1b79f001301780092b79f009006900050
:100fd000400090000000e900000678000d00e000ed
:100fe00001003d001d0020008040eb00efb19700a4
:100ff000817178001e0020001f0037000c06e900f8
:101000000fb09700cf80de006109b900a0b79f0044
:10101000b1b79f00c2b79f00d3b79f000203be00c5
:101020000002be000800be000a01be003b0507002a
:10103000000778000e4078000043b000efb0970042
:1010400080707e008d06e9000fb997000201e9006b
:1010500082bf9f002fb29700bfb297004fb3970097
:10106000dfb397000800be000a01be002405070098
:101070000205be000004be000c00e0000d003400bc
:10108000e00f5400e08f5c00e00f5d00e08f5d003a
:10109000daff3a000d00e000d8ff3c008fb997005e
:1010a0000300e000030034001fb097000018a30005
:1010b000d2ff3a000e00e00002003a00ffb09700b5
:1010c0001140a1000c0078004f0778004f06be00c9
:1010d0004f05be004f04be004f01b10000000600e6
:1010e0000200fa00889fbe008a9fbe0000057800bb
:1010f000010478000200780018019000a804900014
:1011000098007800b1bf9f00b80590000200e00091
:10111000020035000110a100b1bf9f00ea81570015
:10112000a2002000890078003002be002003be002b
:101130000800780097ff0700480190000201e900cd
:1011400000015100808045003fba97008901780076
:101150000a007800780107009a0090000188a30037
:101160000400320098009000810f500001003d0003
:10117000010078004f05be004f04be000080fa0059
:1011800000000600fa874700889fbe008a9fbe00c5
:101190008c9fbe008e1f78008004780001047800c8
:1011a0008205780018019000280590001807780043
:1011b000b80090000200e000020035000e10a1000f
:1011c000010037001200200070006700e0b79f00a8
:1011d000090032003b02be002b03be00e00f5200ac
:1011e000e08f5a00e00f5b00e08f5b0002003200ee
:1011f0008a86e900010037008a067800e802670065
:10120000f5b79f00010032008d06e9003b02be00e9
:101210002b03be00e4af9f00f5af9f0086b79f0091
:1012200097b79f00480690000c06e9000040eb00cd
:1012300080707e00efb297007fb29700890378003c
:1012400081047800d8af9f00020478008bbf9f0014
:101250008a057800034578002a0037000c06e9006b
:101260006fab97006f006300e90f500002003c0075
:101270000003b000010037007005b0000a03fb0056
:101280001604b100f90f53000c003e000003780073
:101290000650a0001606b100f90f530007003e00eb
:1012a000b4b79f00a5b79f00c7b79f008d03070085
:1012b000cfb39700afb297003fb2970080747e0023
:1012c0000804e9008d06e9006fa89700ffa89700c1
:1012d0000fb197009fb19700460020008301d10015
:1012e0000281d3008180d3000080d3000603e9008f
:1012f000faff3a00e0af9f00f1af9f0082b79f0076
:1013000093b79f00e10f56000f0034006fa89700bd
:10131000ffa897000fb197009fb19700e00f500012
:10132000e08f5800e00f5900e08f5900cbff3a00e2
:101330000800e000c9ff3c000d00e000020034009e
:101340000e18a300c5ff3a0089007800f4b79f008b
:10135000870478005fac97008a4178000b0578001d
:101360008fbd97000500e000100032003b02be0078
:101370002b03be00e4af9f00f5af9f0086b79f0030
:1013800097b79f00e00f5200e08f5a00e00f5b001c
:10139000e08f5b00050032000c06e90083707e00e0
:1013a0000c06e90000c3b30080707e00ffb2970016
:1013b0000500e000030032000c06e90000c2b300a3
:1013c00080707e00480190000201e9000c0151008c
:1013d0008c8040000e0278008a01780009007800b5
:1013e000d5000700990090000188a3000400320096
:1013f00098009000810f500001003d00010078002e
:101400004f0778004f06be004f05be004f04be00d8
:10141000af01b10000000600f28747008e1f780080
:1014200002027800030178000000e00002003200b0
:101430000007780001003700728757008002eb0038
:101440000100e000010032008102e90070805700d5
:10145000060009000018eb000080eb0080bf9f0031
:101460002310200093bf9f00aebf9f00b1bf9f001d
:10147000c5bf9f000100e00003003d00b104200053
:10148000216a890006003700004feb00eebf9f0085
:10149000debf9f00840078007080570018030700ab
:1014a0004f0778002f01b10000000600820178008c
:1014b00001017800f1ff2700d7ff370084082000e2
:1014c000848f50001d0032000d003c0014082000e5
:1014d000848f50002700320002003c0004082000e6
:1014e0000400370024082000848f500034003200ac
:1014f00044082000848f500043003a003600370033
:10150000040a2000848f50002700320004003c00b1
:1015100004092000848f50003b003a002800370067
:10152000020c2000828f50002f003200020f20009a
:10153000828f500034003a002b0037009380e9007e
:101540000200e00005003200810978001102fb0072
:10155000cfa2de00612bb900280037008109780096
:10156000114278000482fb008002eb006033b80077
:101570002200370013027800e40052000200e0006d
:1015800005003200810978001102be004fabde0079
:101590008603780019003700810978001102be0027
:1015a0006033b800150037009380e90081097800a6
:1015b00011027800cfa2de00612bb9000f003700c6
:1015c00093027800e8805200810978003102be0061
:1015d0002103be00090037009380e9000200e0000b
:1015e00002003200f1ff37009380e90081097800a2
:1015f000110278008002eb006033b8000498be004e
:101600000690be0010000500000005004408200000
:10161000848f50002500320008003c001408200090
:10162000848f50001400320024082000848f500062
:1016300024003200040820000c00370004092000b8
:10164000848f50001f00320004003c0084082000fa
:10165000848f500024003a000e003700040a200056
:10166000848f500011003200040c2000848f500041
:101670001d003a000d0037009380e90081097800d1
:101680009100780001087800cf91de008288be00ca
:10169000140037009380e9008109780091007800f8
:1016a00001087800824878000e0037009380e90036
:1016b000810978009100780001087800820878009c
:1016c000080037009380e9008109780091007800d4
:1016d000010878006112b900612bb9008498be003e
:1016e0008690be001000050000000500889fbe0027
:1016f000000478004800900082047800808f540035
:10170000010036008004780009017800580090003c
:10171000adfc0700580090000900400050049800fc
:10172000c800900089845000490498000048eb00ec
:101730004f04be0000000600f2874700889fbe00ed
:101740008a9fbe008c9fbe008e1f780080047800a8
:1017500001057800020478008305780061076200c3
:1017600002003a008b0f540008003900080178008d
:101770008a00780009007800dcff07008b0f540016
:1017800002003900880578001e00370008865500e1
:101790000c017800f00f5600010036000201200015
:1017a000010220007e8057008efc07008c06780026
:1017b0000500370002012000fe8057000900780074
:1017c000caff0700f0865600ef8f5600f9ff3e0073
:1017d0004461de0000ff2f000091b90002014600c5
:1017e000fe80570009007800c0ff07000e00e000ef
:1017f00004003a00080178008a00780009007800a7
:10180000baff07000b0078004f0778004f06be00b4
:101810004f05be004f04be002f01b10000000600be
:101820000000050000000500000005000001780030
:101830000040eb008080fb008180400043cc220010
:1018400063c278000404e00003003a0050cc220098
:1018500060c078000000060092017800934f5200ab
:1018600004003a0050cc220060c078000309e80070
:10187000010037000040e800ea4f5000edff36005d
:1018800000000600f6874700889fbe008a9fbe00c2
:101890008c9fbe008e1f7800000578000104780040
:1018a00083057800040678000000eb00c0b79f00b5
:1018b0008080eb00d1b79f00e0b79f00f2b79f0098
:1018c0000008200080bf9f00980078000100780089
:1018d0008004eb00010037008904e8003041780003
:1018e0000204e0000300320053c2b300834f5100f2
:1018f000f9ff3a000900e000040032000901780015
:101900000a00780079ff0700188c44001807780057
:1019100050c2b3009e4f10003f013a000e07e8008e
:101920000e0c780010003700cfb097000100a00027
:101930000b003700cfb097000110a000080037005f
:10194000cfb097000120a00005003700cfb097006e
:101950000130a00002003700cfb097000140a00086
:10196000c1b79f00000ce800180078009040780094
:10197000b2c2b30082cf5000f1ff320007003c003a
:1019800002c2b30082cf5000f0ff320032c2b30077
:1019900082cf500007003a00efff3700d2c2b300f9
:1019a00082cf5000e0ff320002c3b30082cf50006c
:1019b000e0ff3200a2c2b30082cf50000d003a0017
:1019c000000ce8001c80e900000e78001000780090
:1019d000e0b79f000000e0000f003d00cfb097008f
:1019e0000100a200c1b79f000000ea00e0b79f001d
:1019f0000900370039010700e0b79f0001003700f8
:101a0000000ce800180078009000fb000103b10012
:101a1000e98f5000faff36004fb097000008a3008e
:101a2000020032000010a100c0b79f00180078002b
:101a3000e1c2b30090cf100016003a008000eb0026
:101a4000d1b79f000000e800000c7800a1c2b300ed
:101a500090cf100006003a00000ce8001c80e9005e
:101a6000000e780010007800d0b79f000900370002
:101a70001a010700d0b79f0001003700000ce800f2
:101a8000180078009000fb000103b100e98f5000be
:101a9000faff36000800780064ff070080467800ef
:101aa000180078001000fb00870107009106200055
:101ab000810f50003800320012003c004106200027
:101ac000810f5000340032000a003c001106200053
:101ad000810f50002000320031062000810f50009d
:101ae000a000320051022000810f5000bc003a00db
:101af000b400370071062000810f5000b8003c0090
:101b00008800370001072000810f50005c00320080
:101b100007003c00e1062000810f50007a003200ef
:101b2000f1062000810f5000ad003a003900370067
:101b300051072000810f500027003200810720004c
:101b4000810f50004200320031072000810f500009
:101b5000a3003a008f0037008d80fb000c01780055
:101b600000fe2f000f004000730107000000e0009e
:101b7000a800320018007800000ce80090417800be
:101b800002fe2f000f014100f88057000a00780084
:101b900024ff07000e0037008d80fb008c017800c9
:101ba0001200200000fe2f000f00400043fe07003f
:101bb0000000e00097003200180ce80002fe2f0041
:101bc0000f014100f88057000a00780039fc070037
:101bd00080844400900037008d80fb008c017800e9
:101be0000001eb0000fe2f000f00400033fe070055
:101bf0000000e00087003200180ce80002fe2f0011
:101c00000f014100f88057000a00780034fd0700fa
:101c1000efff37008d80fb008c0178000001eb00a6
:101c200000fe2f000f00400024fe07000000e0002f
:101c300078003200180ce80002fe2f000f0141006e
:101c4000f88057000a00780073fc0700e0ff3700b7
:101c50008d80fb008c0178000001eb0000fe2f005e
:101c60000f00400015fe07000000e0006900320090
:101c700018007800000ce800904178001c00370044
:101c80008c0178000001eb00010f200000fe2f0006
:101c90000f00400009fe07000000e0005d00320078
:101ca000180ce8000fb097009fb097002fb1970075
:101cb000bfb19700e00f5000e08f5800e00f5900cf
:101cc000e08f590009003a00cfb597006fb4970034
:101cd000c0cb2200c3fb07000b027800880178000c
:101ce00000017800c1cb22004700370083c7b30052
:101cf00002fe2f000f014100f88057000a00780013
:101d000020fd0700b2ff37000b8144008d80fb00ef
:101d10008c01780000fe2f000f0040003bfe070002
:101d20003c0037008d80fb000c01780000fe2f0086
:101d30000f004000000107000000e0003500320005
:101d400018007800000ce8009041780002fe2f0097
:101d50000f014100f88057000a007800b1fe07002b
:101d60009bff370000c8b30080cf560029003a001f
:101d7000180ce8001c80e900000e78001040780084
:101d8000e0df9f0013002000e2fd2f000f01410063
:101d90000800370000c8b30080cf56001d003a008d
:101da000180ce8001c80e900000e78008001eb00b0
:101db00010017800f88057000a0078004bfc0700fb
:101dc00083ff370000c8b30080cf560011003a00ef
:101dd000180ce8004fb29700efb1970008003700e9
:101de0000e0c78000000eb00c0b79f00e0b79f002a
:101df0000080eb00d0b79f000002eb008401780068
:101e00001200200021cc22000a0078004afe0700c0
:101e10006fff3700180ce800090078004f077800c2
:101e20004f06be004f05be004f04be006f01b1005b
:101e3000000006008200fa00889fbe008a1f78001a
:101e40000005780082047800c13f9f000004eb0089
:101e5000100037000902780088017800a2f72f00ef
:101e60000f01410081f72f008f8040000a007800a9
:101e700084fe070008004000880f500004003d0069
:101e8000b0042000206a89000084eb0004003700c1
:101e9000000478004f3897001004e000edff3a008e
:101ea000080078004f0578004f04be000080fa005b
:101eb00000000600800078001000200002022000d0
:101ec000828f500004003200e9805000e48f5000ff
:101ed000010036000000eb0000000600889fbe00f5
:101ee0008a1f7800000578000a047800984478007a
:101ef0000805e8000900fb00eeff07000000e00015
:101f0000f9ff3a00b0c2b30080cf540005003200a0
:101f1000d0c2b3008000eb0080cf540005003a002f
:101f2000020037008000eb000100370011002000a4
:101f30000804e8000000eb00030037006a02b90063
:101f4000020052000003b0003801fb0003fd2f0027
:101f500082814100e98f5100f8ff36000100e00066
:101f600001003a000000ea004f0578004f04be006f
:101f700000000600010178008001780000826800fe
:101f80000408a30005003200130037003240780037
:101f9000805978000004e000140032000302780049
:101fa0000208a300f9ff3a0003007800010037009f
:101fb0000318780082007800b2017800f5ef2f0056
:101fc000838242000382ea0004826200050828003e
:101fd00005026200f6ff320000027800314178000d
:101fe000025878000204e000fbff3a000400780089
:101ff00000000600881f7800810178000002780048
:10200000808268000508a30002003200210037002a
:102010000201e90003007800040478000308a3002b
:10202000070032000200e00021003200b3407800d7
:10203000015a78000104e000f5ff3a000200370081
:102040000200e0001a0032001004e00003003a0031
:1020500017003700031c78000281e9008000780037
:10206000e10f510008003600b0017800f5ef2f00b5
:10207000838242000382ea0004826200050828008d
:1020800005026200f3ff320008007800010037000b
:102090000201e900000478000200e00004003200c0
:1020a000b1417800035878000304e000f8ff3a00db
:1020b0008000eb00080078004afa0700080078006a
:1020c0004f04780000000600f1fb2f0080804000e4
:1020d000f98f500001003e000050a00000000600f3
:1020e000f9ff3700f1f92f0080804000f98f500090
:1020f00001003e00f005b20000000600f9ff3700c5
:102100000200fa00881f780000047800e2bf9f00f8
:10211000648157000800780046ff0700980090008f
:102120000148a300010032000080eb004f0478005a
:102130000080fa0000000600881f78000004780084
:1021400000082000808f5000170035001008200084
:10215000808f50000b00340030082000808f50002a
:1021600011003a0092007800688050000009780061
:102170003002be002003be00049cbe000694be00d8
:10218000070037009202780064805200000978004e
:102190001000be0007000700009cbe000294be00b5
:1021a00010002000010037000000eb004f04780011
:1021b00000000600810378001d0007000001be003a
:1021c0006000b8000478a30013003a006220e10028
:1021d00015003e000d0039008301d1000281d300bb
:1021e0008180d3008301d1000281d3008180d3009c
:1021f0008301d1000281d3008180d3000538b00073
:10220000c42add00f300b2008381720007f0a7004a
:1022100003f0a0000000060083ff2700020020005a
:102220006110b900f9ff370003ff2700f7ff3700ff
:10223000c70ade00f107b200f50fb2000800320055
:10224000e1cf4200020032000170a000240005002e
:10225000810f7000010032000408050044000500f1
:10226000810f700002003a00140005008502e900a9
:102270000000400081c04800fcff3b000170a0004e
:1022800024000500020ab900001bb9000200b800d2
:10229000810042008100430000000600889fbe00cc
:1022a0008a9fbe0030044200b0844a0030054b00d3
:1022b00090854b006000b1000898be000a90be00f7
:1022c0000440e10005c8e10006d0e10007d8e100c4
:1022d00002003100680040001008e8004f05be0011
:1022e0004f04be0000000600889fbe008a9fbe000b
:1022f0003004be002005be000418540005985c00a0
:1023000006185d0007985d00110020000440e10000
:1023100005c8e10006d0e10007d8e100010039005e
:102320008000eb00108810004f05be004f04be0077
:10233000000006001200fa00889fbe008a9fbe00bf
:102340008c9fbe00e0b79f00f1b79f0082bf9f0047
:1023500093bf9f000605be000404be000000eb0012
:10236000d0b79f00c0b79f00b0b79f00a0b79f0035
:1023700090b79f00000678005fb19700cfb097003c
:10238000820141003fb097000200e00004003d00e0
:10239000370007007e805700c0ff070003003700aa
:1023a000330007007e805700cfff0700dfb697009d
:1023b0000d00e0000c0035006fb29700ffb29700ef
:1023c0000fbb97009fbb970010002000010020006a
:1023d0006011b80000027200818272000203730073
:1023e000838373001b0007000c06e8000104200033
:1023f000810f5600e0ff3a000d00e00004003d00b0
:102400000802be000a03be007e805700a3ff07003b
:102410005fa897000000e00005003a001fb2970097
:10242000afb297003fb39700cfb397000900070002
:102430006fb09700ffb097000fb997009fb9970052
:102440004f06be004f05be004f04be000080fa00dc
:10245000000006000100070000000600a4b79f006e
:10246000b5b79f00c6b79f00d7b79f000000060012
:102470004f09de0082817100b3b79f004f01de007b
:102480008180400082807000a1b79f008fb09700cc
:102490004f09de00000040000200700090b79f006e
:1024a0007fa897004f01de0081804000828070008d
:1024b00081b79f000d0007004f3ade00000040008a
:1024c00004007000f0af9f00080007000402420003
:1024d00085824a0006034b0087834b00dfff07001d
:1024e0000802be000a03be00000006002fb29700db
:1024f000bfb297004fb39700dfb39700000006000c
:10250000881f780018002000881f780089ff0700c6
:102510008f87e9004f04780000000600801feb0061
:1025200084ff07008f87e90000000600889fbe0037
:102530008a9fbe00e00f5000e08f5800e00f590066
:10254000e08f59000c003d006044b8006055b800b1
:102550000000540081805c0002015d0083815d0009
:10256000180020001500070008003d0018000700b3
:102570000004eb00050037000004eb000f0007002b
:1025800002003d001200070018002000dcff0700d9
:102590000800e000060032006022b8006033b80096
:1025a0000000520081805a0002015b0083815b00c1
:1025b0004f05be004f04be0000000600e00f5200b1
:1025c000e08f5a00e00f5b00e08f5b000000060028
:1025d0006044b8006055b8000402540085825c0075
:1025e00006035d0087835d0000000600889fbe0033
:1025f0008a9fbe008c1f7800e00f5000e08f5800cb
:10260000e00f5900e08f59000d003d006044b80014
:102610006055b8000000540081805c0002015d003c
:1026200083815d001c0020000820e10009a8e10072
:102630000ab0e1000bb8e1000d003d0008003700d2
:102640000006eb00e00f5200e08f5a00e00f5b0045
:10265000e08f5b0006003d006044b8006055b800a4
:102660000402540085825c0006035d0087835d00e0
:10267000aaff07000c00e000060032006022b8004c
:102680006033b8000000520081805a0002015b00f4
:1026900083815b004f0678004f05be004f04be00eb
:0426a0000000060030
:020000040000fa
:1026a40030300000303000003030000031300000a5
:1026b4003945000033460000323400003030000059
:1026c4003030000025300000325800002530000072
:1026d4003258000025300000325800002530000038
:1026e400325800003030000025300000325800001d
:1026f400253000003258000038410000004100003d
:1027040055440000494f0000204300004f4400009e
:102714004543000020520000313400003d250000f4
:1027240064200000283000007825000030320000ca
:102734005829000020520000313500003d250000da
:1027440064200000283000007825000030320000aa
:1027540058290000523900003d2500006420000083
:10276400283000007825000030320000582900008d
:1027740020520000313000003d250000642000009c
:10278400283000007825000030320000582900006d
:1027940020520000313100003d250000642000007b
:1027a400283000007825000030320000582900004d
:1027b40020520000313200003d250000642000005a
:1027c400283000007825000030320000582900002d
:1027d400204900003d250000630a00000025000098
:1027e4007320000046690000633d0000257300006b
:1027f40020640000656d00003d2500006420000099
:1028040065740000617400003d2500006420000030
:1028140065750000723d000025640000202500005d
:10282400640a0000003100006b350000687a000083
:102834002e7700006176000000310000356b000047
:10284400687a00002e7700006176000000440000e2
:10285400656d0000616e000064650000000d0000fd
:102864000a5400005241000043450000494e000054
:10287400464f0000200000002573000020440000a3
:10288400656d0000616e0000646500004172000027
:1028940072650000744c00006563000074750000ec
:1028a40072650000536f00006e28000029200000ac
:1028b40045740000617400003d250000640a0000b6
:1028c400000d00000a52000020520000584d000084
:1028d4004f440000200000000d0a0000000d00001d
:1028e4000a52000020540000584d00004f440000dc
:1028f400200000000a0000003c3c00003c450000b1
:10290400636800006f2000006465000074650000c7
:1029140063740000653e00003e3e00000a000000b3
:102924002b4300004d4700004c3a000020000000fb
:10293400244700005053000041430000503a000077
:102944002000000045520000524f000052000000d9
:102954002b4300004d53000020450000525200005c
:102964004f520000002b0000434d000045200000a2
:1029740045520000524f0000520000002341000065
:10298400504c000041590000455600003a20000018
:102994003000000052450000432b00007566000023
:1029a4000023000048540000545000005249000025
:1029b4004e4700003a200000002300005347000067
:1029c40041430000543a0000203100002c00000074
:1029d4004d4100004a3a00002055000052430000d7
:1029e40020690000676e00006f720000652000001f
:1029f400706500006e640000616e000074200000c9
:102a0400726500006365000070740000696f000067
:102a14006e2000003a200000252e00003430000013
:102a2400730a0000004f00004b0000004d410000fd
:102a34004a3a00002072000065630000616c0000e7
:102a440061670000652000007375000072200000bb
:102a54006465000062750000742000006465000075
:102a6400206c0000696700006e650000204f0000c4
:102a74004b0a0000002b0000434c000043430000bd
:102a84003a2000000041000070700000656c0000f6
:102a9400206500006e740000726100006e74000016
:102aa400203e000020490000474e00004f52000025
:102ab40045200000425000000a0000004170000060
:102ac400706500006c200000736f000072740000d9
:102ad400616e000074200000656e00002063000039
:102ae4006f750000727300002c20000069670000fd
:102af4006e6f000072650000206500006e740000b7
:102b0400726100006e7400000a00000030300000a2
:102b14003030000030300000303000003030000031
:102b240030300000303000000041000070700000c0
:102b3400656c0000206500006e7400007261000086
:102b44006e740000202d00003e2000004150000063
:102b5400504500004c5f0000414c0000455200000d
:102b6400540a000000520000494e000047000000d3
:102b7400524900004e470000206c00007520000000
:102b84005374000061740000757300003d4100003f
:102b940050500000454c00005f54000052410000ba
:102ba40049540000454d0000454e000054200000eb
:102bb4002043000070740000536500006349000066
:102bc400676e00006f7200006541000070700000c5
:102bd400656c00003d3500000a0000005249000009
:102be4004e470000206c000075200000696700005b
:102bf4006e6f00007265000020000000204100009c
:102c0400455300003d0000002041000053530000e4
:102c14003d0000002d2d00002d2d00002d2d000065
:102c24002d2d00002d2d00002d540000494d0000d5
:102c3400452000004f550000542000002d200000c6
:102c440043410000534500002000000025640000bb
:102c5400002d00002d2d00002d2d00002d2d000035
:102c64002d2d00002d0d0000003200003038000032
:102c740030310000003200003038000030320000f3
:102c8400006f0000726100006e67000065000000c4
:102c940032300000383100003000000032300000d3
:102ca40038310000310000003230000038310000bb
:102cb4003300000077650000627300006672000054
:102cc40000320000303800003135000000320000ce
:102cd40030380000313600000066000072650000e4
:102ce400650000003230000038320000300000007f
:102cf4003230000038320000310000003230000071
:102d040038380000380000006d6d00007362000068
:102d14006f75000079670000746500006c2e000078
:102d2400636f00006d000000323700003230000095
:102d34003100000069730000702e0000766f0000ff
:102d440064610000666f00006e6500002e6900007b
:102d5400650000003237000032300000320000000d
:102d64003237000032300000350000007468000083
:102d740072650000652e00006965000000320000e5
:102d84003732000030330000006900007370000027
:102d94002e650000697200002e69000065000000c5
:102da4003237000032300000370000007465000044
:102db400736300006f6d00006f620000696c0000b7
:102dc400652e000069650000003200003334000005
:102dd4003130000000320000333400003032000093
:102de400003200003334000031310000006d000077
:102df4006f620000696c0000652e00006f320000f5
:102e04002e6300006f2e0000756b0000003200007e
:102e14003334000031350000003200003334000048
:102e240039310000006900006e7400006572000012
:102e34006e6500007400000032330000343300007b
:102e4400300000003233000034330000330000004f
:102e54003233000034330000340000006576000093
:102e640065720000797700006865000072650000f3
:102e740000320000333400003230000000740000df
:102e840068720000656500002e6300006f2e00006c
:102e9400756b000000320000303200003031000059
:102ea40000320000303200003032000000320000f6
:102eb4003032000030350000006900006e740000fc
:102ec400657200006e650000742e0000766f0000cd
:102ed40064610000666f00006e6500002e670000ec
:102ee400720000003230000032300000390000006f
:102ef4003230000032310000300000006769000009
:102f04006e7400002e6200002d6f00006e6c0000d5
:102f1400696e0000652e000067720000005b00000f
:102f2400473100003d250000642000003c3c0000c7
:102f340020250000640a000000470000312e000034
:102f440025640000207300007461000072740000a6
:102f5400200a0000004900004e49000054200000ef
:102f640047310000203100002031000020310000f2
:102f740000470000312e00002564000020520000ac
:102f840054530000206500007420000043540000e6
:102f9400532000003d20000025640000200a0000aa
:102fa4000057000061690000746900006e6700004a
:102fb40020250000642000000d00000041540000a2
:102fc400264600000d00000041540000264b00007e
:102fd400300d0000002d00002d2d00002d2d0000cf
:102fe40061700000774b00004f660000662d000002
:102ff4002d2d00002d540000494d000045200000f7
:103004004f550000542000002d20000043410000d3
:1030140053450000200000004154000045300000ea
:103024000d000000415400002b49000050520000e4
:103034003d3100003135000032300000300d000019
:1030440000410000542b00004943000043490000a4
:10305400440d0000002b00004943000043490000d8
:10306400443a0000200000004343000049440000ab
:1030740020450000727200006f7200000a00000018
:10308400415400002b430000475300004e0d000044
:10309400004100005423000053570000504b00002f
:1030a400475600000d000000494d0000454900004e
:1030b4003a200000002f0000000d00000041000035
:1030c400542b0000434700004d4d00000d0000004c
:1030d4004154000023490000534d000053430000b5
:1030e400464700003f0d0000002300004953000044
:1030f4004d53000043460000473a000020310000d1
:1031040000230000495300004d53000043460000d3
:10311400473a000020300000004100005423000022
:10312400495300004d53000043460000473d000052
:10313400300d0000000a00002072000065620000eb
:103144006f6f0000742000006d6f00006465000064
:103154006d200000706f00007572000020410000b7
:1031640054230000495300004d530000434600001f
:10317400473d0000302000000a00000041540000d8
:103184002b430000504900004e3f00000d0000009a
:103194002b430000504900004e3a0000205200002a
:1031a4004541000044590000002b0000435000003a
:1031b400494e00003a200000534900004d20000011
:1031c400504900004e0000002b430000504900000d
:1031d4004e3a000020530000494d000020500000ea
:1031e400554b0000002b000043500000494e0000e6
:1031f4003a2000004e4f000054200000494e0000c9
:1032040053450000525400004544000000410000b2
:10321400542b000043500000494e00003d220000a2
:10322400002200000d000000436f000064650000f0
:1032340020500000494e000020700000617300001f
:103244002070000061720000616d00006574000070
:10325400726500002c200000766f00006972000087
:103264002043000046500000494e00000a000000c0
:1032740057410000524e0000494e0000473a0000fa
:10328400204f00004e4c0000592000004f4e00001b
:103294004520000041540000544500004d500000fa
:1032a40054200000464f0000522000005049000006
:1032b4004e2000004c450000465400002c20000025
:1032c40043480000454300004b20000052450000e5
:1032d4004749000053540000455200004544000093
:1032e40020500000494e0000004300006c690000bb
:1032f4006720000032200000506900006e200000aa
:103304006f6b00000a000000415400002b430000d2
:10331400535100000d0000002b43000053510000e6
:103324003a20000000470000312e00002564000010
:1033340020450000636800006f44000065740000cd
:1033440065630000746500003e3e00002035000007
:1033540031300000200d000000410000542b00001b
:10336400434d0000454500003d3200000d000000c3
:10337400415400002b490000464300003d3000004a
:103384002c3000000d000000415400002b430000cd
:103394004d470000463d0000310d00000041000093
:1033a40054530000303d0000303b00005337000010
:1033b4003d320000353500000d000000415400008e
:1033c4002b430000523d0000300d0000004100007e
:1033d400542b000043520000433d0000300d000018
:1033e40000410000542b000043520000534c0000e5
:1033f4003d3000000d000000415400002b4300004c
:10340400465500004e3d0000310d00000041000013
:10341400542b0000434c0000495000003d30000094
:103424000d000000415400002b4300004c490000f3
:10343400523d0000300d000000410000542b0000fc
:10344400434f00004c5000003d3000000d000000d0
:10345400415400002b430000534900004c3d000040
:10346400313b00002b4300004c5600004c3d000053
:10347400300d0000004100005423000053470000b9
:1034840041430000543d0000312c0000300d000089
:1034940000450000525200004f520000202b000053
:1034a4004347000041430000543d0000312c00001c
:1034b400302000002d200000436f00006e740000d7
:1034c400696e0000756500000a00000041540000a8
:1034d4002b43000047440000434f00004e540000bb
:1034e4003d3100002c22000049500000222c000035
:1034f40022000000222c0000223000002e300000a8
:103504002e3000002e300000222c00002c2c000055
:103514000d000000415400002b430000474400000c
:10352400434f00004e5400003d3100002c220000a7
:1035340049500000222c0000222200000d0000004f
:10354400415400002353000047410000435400004d
:103554003d3100002c3100000d0000002d2d000035
:103564002d2d00002d2d00002d2d00002d2d0000ef
:103574002d490000676e00006f7200006520000096
:10358400657200007265000075720000207300000f
:103594007572000020630000736900006c20000055
:1035a400004100005423000049320000435700004a
:1035b400523d0000342c0000372c00003230000053
:1035c4002c300000302c0000313700000d000000ca
:1035d40070610000756f00006b2e000077610000c1
:1035e40076000000697300006f6c0000652e000017
:1035f400776100007600000052650000626f0000f1
:103604006f74000020640000752000006d6f0000de
:10361400646500006d2000004175000063750000c2
:103624006e200000534d0000530a000000520000b9
:10363400656200006f6f0000742000006d6f000071
:10364400646500006d200000657400006170000076
:103654006520000032300000302c0000206500009e
:103664007461000074200000696e0000636f000044
:103674007272000065630000740a000000500000cc
:103684004450000020440000efbf0000bd6a000069
:10369400efbf0000bd2000006f75000076650000dc
:1036a40072740000202d000020440000656d0000ad
:1036b400616e000064650000204f00007576000014
:1036c40065720000747500007265000020500000ef
:1036d400445000000a00000041540000235300003d
:1036e40047410000435400003f0d00000047000024
:1036f4007261000066200000475300004d20000066
:10370400736c000065650000700a00000041000051
:103714005424000047500000535000003d30000086
:103724000d000000415400002b43000046550000ea
:103734004e3d0000300d000000470000312e000017
:103744002564000020540000494d0000452000007d
:103754004f550000540d000000470000312e0000ba
:103764002564000020450000727200006f720000a2
:10377400526500006375000020450000727200006d
:103784006f72000052650000637500002020000085
:103794000d0000003c3c00003c3c00003c3c0000b0
:1037a4003c3c0000473100002e250000642000004e
:1037b40045630000686f0000446500007465000004
:1037c40063740000652000003e20000035310000d5
:1037d400302000003e3e00003e3e00003e3e000021
:1037e4003e3e00003e3e00003e3e0000203500000c
:1037f40031300000200d0000005200006570000010
:10380400726900007365000020470000312e00003b
:103814002564000020470000313700003d250000ea
:1038240064000000473100002e32000031300000f7
:10383400205000006f730000485000003d0000005d
:10384400256400000a000000415400002b430000de
:10385400534900004c3d0000300d000000530000af
:103864006f6e00006e650000726900006520000044
:1038740050610000732000006465000020660000b1
:103884006963000068690000657200000a000000b6
:103894004154000023410000504c000041590000f5
:1038a4003d3000002c3000002c220000220d0000ce
:1038b4000041000054230000415000004c4100002e
:1038c400593d0000312c0000302c00002200000083
:1038d40022000000473100002e3200003131000088
:1038e400206c000069740000200000002a450000dc
:1038f400525200004555000052000000646500006b
:103904006d6100006e6400006520000066690000bf
:10391400632000007465000073740000206f0000d1
:103924006c6400000a0000004154000023410000c0
:10393400504c0000415900003d3000002c30000084
:103944002c22000000450000525200004f5200009b
:10395400204900004e53000045520000542000004e
:10396400504900004e20000057480000454e00001a
:10397400204300004152000044200000495300004d
:10398400205500004e5000004f57000045520000e3
:103994004544000020540000484500004e2000002b
:1039a40054520000592000004147000041490000e2
:1039b4004e0a000000450000525200004f52000021
:1039c400205400004f4f0000204d0000414e0000e5
:1039d400592000005452000049450000533a0000a9
:1039e40020530000494d0000204200004c4f0000cd
:1039f400434b000045440000204300004f440000b6
:103a040045200000505500004b2000004e450000aa
:103a140045440000454400000a00000041540000f1
:103a24002b4300004e4d0000493d0000312c0000a6
:103a3400312c0000302c0000302c0000300d000030
:103a440000410000542b0000434d0000474c00008f
:103a54003d220000414c00004c2200000d000000fb
:103a6400415400002b4300004d470000443d00003a
:103a7400002c0000300d000000410000542b000019
:103a8400434d0000474400003d3100002c34000049
:103a940000410000542b0000435200004547000041
:103aa4003f0d0000002b000043520000454700007a
:103ab4003a200000302c0000310000002b430000ad
:103ac40052450000473a0000203000002c35000029
:103ad400002b000043520000454700003a2000003c
:103ae400312c0000310000002b430000524500003f
:103af400473a0000203100002c350000002b000064
:103b040043520000454700003a200000302c0000da
:103b1400330000002b43000052450000473a0000e8
:103b2400203100002c3300000052000065670000c3
:103b3400697300007472000061740000696f000012
:103b44006e200000646500006e690000656400007a
:103b5400206f00006e20000072650000636f00009b
:103b64006d6d0000656e0000636500000a000000d2
:103b74002b43000052450000473a0000203000006b
:103b84002c300000002b0000435200004547000089
:103b94003a200000302c0000340000002b430000c9
:103ba40052450000473a0000203100002c3000004c
:103bb400002b000043520000454700003a2000005b
:103bc400312c0000340000005365000075690000ca
:103bd4006c200000707200006563000065640000e2
:103be400656e0000742000006465000066610000da
:103bf40075740000207200006573000065610000a8
:103c0400750a000000520000656c0000616e00003f
:103c140063650000207400006163000068650000b3
:103c2400206d00006f640000656d000020630000db
:103c34006172000020640000656600006175000088
:103c440074200000696e0000736300007269000054
:103c540070740000696f00006e0a0000002b000001
:103c640043520000454700003a20000032000000a3
:103c7400415400002b43000052450000473d000022
:103c8400310d0000004c00006563000074750000f5
:103c94007265000020430000535100000a00000038
:103ca4004c6500006374000075720000652000001c
:103cb4003c72000073730000693e0000203a00006b
:103cc40020250000640a0000004c00006563000029
:103cd4007475000072650000203c000073710000e0
:103ce4003e2000003a200000256400000a00000085
:103cf400415400002b43000045530000510d0000c7
:103d0400002b000043450000535100003a200000fe
:103d1400002b000043450000535100003a200000ee
:103d2400393900002c390000392c0000002b000028
:103d340043450000535100003a2000003939000087
:103d44002c390000392c000032350000352c0000dd
:103d540032350000352c0000004c00006563000083
:103d64007475000072650000203c0000727300004e
:103d7400727100003e2000003a200000256400001b
:103d84000a0000004c6500006374000075720000b6
:103d9400652000003c72000073720000703e000059
:103da400203a000020250000640a0000004c0000b6
:103db400656300007475000072650000203c00001b
:103dc40072730000637000003e2000003a2000007f
:103dd400256400000a0000004c65000063740000c4
:103de40075720000652000003c650000636e0000f1
:103df4006f3e0000203a000020250000640a000005
:103e040000410000542b0000434d000047530000c4
:103e14003d22000000540000696d0000654f000061
:103e24007574000031200000656e0000766f00009c
:103e340069200000534d0000530a000000250000d3
:103e440063000000534d0000534500004e5600002f
:103e540020000000546900006d6500004f750000eb
:103e640074320000206500006e7600006f69000067
:103e7400205300004d5300000a000000457200006a
:103e8400726500007572000020470000312e0000aa
:103e940036320000206500006e7600006f69000075
:103ea400205300004d5300000a000000534d000051
:103eb400534500005252000020000000415400000d
:103ec4002b4300004c430000430d00000041000060
:103ed400544100000d000000415400002352000032
:103ee40046530000545300000d00000041540000ec
:103ef400533700003d3000000d0000004154000025
:103f0400440000003b0d0000004100005448000044
:103f14000d0000004e4f00004b2d00003e3200000b
:103f240033320000204d00006c3d000000430000cf
:103f3400504900004e200000546900006d650000e7
:103f44004f550000542d00003e3200003332000073
:103f54000a0000003f000000415400002b43000011
:103f64004f500000533f00000d0000002b430000a1
:103f74004f500000533a000000410000542b000051
:103f8400434f0000505300003d3300002c3200002a
:103f94000d000000415400002b4300004f5000006e
:103fa400533d0000332c0000300d000000410000a0
:103fb400504e0000206f0000706500007261000028
:103fc4007465000075720000206d000069730000c4
:103fd40020610000206a00006f750000722000005c
:103fe4002d3e000020720000657000006172000028
:103ff400616d000065740000726100006765000077
:1040040020500000445000000a0000004154000009
:104014002b430000534900004c3d0000310d0000cb
:1040240000470000312e0000313100003420000030
:10403400506f000073480000503d0000004700002e
:10404400312e0000313100003520000047610000ae
:10405400696e0000732000006f6b00000a0000000e
:10406400476500006e460000717400002067000080
:10407400313d00003136000030200000706f000038
:1040840073680000703d000000430000747200007b
:104094006c470000656e000046710000742e00003d
:1040a4004c6100006e630000656500003d31000056
:1040b4000a000000415400002b5600005444000044
:1040c4003d000000415400002b56000054530000f2
:1040d4003d0000007369000020700000617300005f
:1040e400206d00006172000063680000652c000010
:1040f40020740000657300007465000072200000e5
:104104006176000065630000202c0000206500003b
:104114006e7400007265000020630000617200008c
:1041240020640000746d000066000000415400002b
:104134002b43000052450000473d0000320d0000b3
:10414400004100005423000053480000444e000086
:104154000d00000052450000424f00004f54000083
:10416400205300006f660000742000004d6f0000b3
:10417400646500006d0a0000002d0000466900001f
:104184006e200000746500006d7000006f20000058
:10419400473100002e250000642d00000d000000b2
:1041a40052450000424f00004f54000020650000bb
:1041b4006c65000063740000726900007175000092
:1041c400652000004d6f0000646500006d0a00006a
:1041d4000052000020000000415400002b57000052
:1041e40053340000363f00000d0000002b57000040
:1041f40053340000363a000020000000415400000f
:104204002b57000053340000363d000025640000a5
:104214000d00000023230000234400004542000059
:1042240055470000204200006173000063750000e0
:104234006c650000207600006572000073200000a9
:10424400334700000a000000232300002344000039
:104254004542000055470000204200006173000001
:10426400637500006c650000207600006572000034
:1042740073200000344700000a000000415400008d
:104284002447000050530000503f00000d00000080
:104294002447000050530000503a00002000000062
:1042a400415400002447000050530000503d0000da
:1042b400310d00000041000054240000475000006c
:1042c40053410000435000000d0000002d2d00005c
:1042d4002d2d00002d2d00002d2d00002d2d000072
:1042e4002d540000494d0000452000004f550000aa
:1042f400542000002d200000333000003100000065
:104304000a2300002323000054520000414e000001
:104314005350000041520000454e0000542000005c
:1043240043500000543d00003020000023230000cf
:10433400230a0000000a0000232300002344000095
:10434400424700004d4f0000444500004d3d000031
:1043540030200000286d00006f640000656d0000cf
:104364002065000074610000697400002070000082
:10437400726500007429000020230000232300003c
:104384000a0000000a230000232300004442000026
:10439400474d00004f440000454d00003d300000f3
:1043a400202800006d6f0000646500006d2000008f
:1043b40070610000732000007072000065740000da
:1043c4002c20000072650000696e00006974000012
:1043d4002920000023230000230a000000410000dc
:1043e400545a00000d0000004854000054500000ce
:1043f4003a200000235300004741000043540000ca
:104404003f200000696e00006469000071750000bf
:1044140065200000636f00006e7400006578000082
:104424007465000020660000657200006d65000080
:10443400202d00003e200000726500006f75000012
:10444400766500007274000075720000650a000051
:104454000048000054540000503a0000206100005d
:10446400626100006e6400006f6e0000202800008e
:104474004e62000054720000792000006570000054
:104484007569000073650000202d000020630000a2
:104494006f6e0000746500007874000065200000f1
:1044a4005044000050200000696e00006469000060
:1044b400737000006f6e0000696200006c6500009c
:1044c400290a00000048000054540000503a00003b
:1044d400207000006173000020640000652000006b
:1044e40072650000706f00006e73000065200000ac
:1044f4002353000047410000435400003f200000c4
:104504002d3e000020720000656f000075760000eb
:104514006572000074750000726500002050000090
:1045240044500000207000006172000020730000fd
:10453400656300007572000069740000650a00007c
:104544000048000054540000503a0000206100006c
:10455400626100006e6400006f6e0000202800009d
:104564004e62000054720000792000006570000063
:104574007569000073650000290a0000004100000d
:1045840054230000485400005450000043460000e7
:10459400473d0000302c000022250000732200005b
:1045a4002c250000642c0000302c00002222000086
:1045b4002c220000222c0000312c0000313200009b
:1045c400302c0000310d0000004100005423000095
:1045d400485400005450000051520000593d00005e
:1045e400302c0000302c0000222500007322000033
:1045f4000d00000048540000545000003a20000010
:1046040065630000686500006320000048540000f2
:104614005450000043460000472000002d200000b5
:104624007265000074720000790a000000480000fe
:1046340054540000503a00002070000061730000e0
:10464400206400006520000023480000545400004a
:1046540050520000494e0000472000002d20000069
:104664007265000074720000790a000000480000be
:104674005454000050520000494e000047200000ee
:104684007374000061740000757300003d25000020
:1046940075200000736900007a6500003d25000064
:1046a4006c7500000a0000004854000054500000db
:1046b4003a200000737400006174000075740000f7
:1046c400202100003d20000032300000300a0000ac
:1046d40000410000542b0000434e00004d490000ef
:1046e4003d3000002c3000002c3000002c30000045
:1046f4002c3000000d0000004d4100004a3a00003b
:10470400205200004550000052490000534500006b
:1047140020520000415000004944000045200000a0
:104724002d200000736b000069700000207e0000e3
:10473400256c0000752000006f63000074650000a4
:10474400747300002070000075690000732000007d
:1047540072650000737900006e630000207300002e
:1047640075720000206c0000696700006e6500002f
:104774000a00000041540000234800005454000083
:1047840050520000435600003d3000002c2500002c
:10479400640d0000004d0000414a00003a20000072
:1047a40074610000696c00006c650000206e0000fc
:1047b400756c00006c6500000a0000004d410000ab
:1047c4004a3a0000207300006b690000702000006a
:1047d40074650000726d0000696e000065200000c1
:1047e400282500006c750000206f00006374000031
:1047f400292000002d3e00002072000065630000a7
:10480400686500007263000068650000206c0000a9
:10481400696700006e6500002064000065200000e8
:1048240072650000737900006e6300000a000000e6
:104834000a3d00003d200000424c00004f430000b0
:10484400206200006c6f0000635f00006c65000074
:104854006e3d0000257500002072000061770000a5
:104864003d2500006c7500002066000072610000a8
:10487400675f00006c6500006e3d00002575000058
:1048840020460000696c000065410000646400007b
:104894003d2500006c7500002f2500006c7500009c
:1048a400203d00003d0a0000006600007261000027
:1048b400673d00005b0000005d0a0000004d000041
:1048c400414a00003a2000006c690000676e000055
:1048d400652000006465000020720000657300001c
:1048e400796e00006320000072650000747200009d
:1048f4006f75000076650000652000002d3e000005
:104904002072000065700000726900007365000089
:1049140020640000752000007472000061690000ca
:10492400746500006d6500006e7400000a000000ec
:104934004d4100004a3a0000206c00006967000005
:104944006e650000206300006f720000726f00004b
:104954006d70000075650000203a00002000000022
:104964000a4d0000414a00003a2000006c69000032
:10497400676e000065200000696e0000766100002b
:104984006c69000064650000202800006572000066
:10499400723d0000257500002920000046690000d2
:1049a4006c65000041640000643d0000256c00005b
:1049b400752000003a200000004d0000414a00002c
:1049c4003a2000006c690000676e0000652000005a
:1049d400646500002072000065730000796e0000b9
:1049e40063200000696e0000747200006f7500009f
:1049f40076610000626c0000652000002d3e00001e
:104a040020610000626100006e6400006f6e0000af
:104a14002072000065700000726900007365000078
:104a2400207200006170000069640000650a0000e3
:104a3400002000002063000068650000726300002d
:104a44006865000065200000286c0000656e0000a9
:104a54003d250000752c00002062000065730000f5
:104a6400743d0000256c000075290000203d000005
:104a7400205b0000005d00000a20000020610000af
:104a8400727200006574000020610000204600007e
:104a9400696c000065410000646400003d2500006d
:104aa4006c75000020280000736b00006970000022
:104ab40020660000696e000069200000612000008b
:104ac400256c0000752900000a0000004d4100001b
:104ad4004a3a0000206c0000696700006e6500001f
:104ae400206300006f720000726f00006d700000a0
:104af400756500002f6900006e760000616c00008f
:104b040069640000652000002d3e00002072000052
:104b1400656c0000616e00006365000020630000a6
:104b2400796300006c650000206300006f6d000075
:104b3400706c0000657400000a0000004d41000024
:104b44004a3a0000202500006c750000252500006d
:104b5400204f0000565200003d250000750a000059
:104b6400004d0000414a00003a2000006669000040
:104b74006e2000006c650000637400007572000014
:104b8400650a0000004d0000414a00003a20000080
:104b9400666900006e20000065720000726f0000fc
:104ba400723d000025750000206500006f6600005e
:104bb4003d2500007520000072610000773d000073
:104bc400256c000075200000446100007461000041
:104bd400536900007a6500003d2500006c750000f3
:104be4002065000063610000727400003d25000030
:104bf4006c6400000a0000004d4100004a3a0000c5
:104c040020660000696300006869000065720000a6
:104c1400206900006e6300006f6d0000706c00007e
:104c2400657400002f650000727200006575000055
:104c3400720a0000004d0000414a00003a200000c2
:104c44006c6500006374000075720000652000004c
:104c5400636f00006d7000006c65000074650000f7
:104c6400204f00004b0a0000005300007761000051
:104c7400702000005061000072740000697400002c
:104c8400696f00006e2000004f4b00000a00000016
:104c94005377000061700000205000006172000032
:104ca40074690000746900006f6e00002046000003
:104cb400616900006c0a00000041000054230000f8
:104cc40041530000454e0000443d000022740000a2
:104cd40065730000742e00007761000076220000e6
:104ce4002c330000303000000d0000000a4d00009d
:104cf400414a0000202b0000434d000045200000e5
:104d040045520000524f0000522000006120000074
:104d1400256c0000752f0000256c00007520000034
:104d240028650000737300006169000020250000fd
:104d340075290000202d00003e200000726500004f
:104d44006c6100006e630000652000006379000060
:104d5400636c000065200000636f00006d7000004c
:104d64006c650000740a0000000a00004d41000058
:104d74004a200000544900004d4500004f550000f2
:104d8400542000002873000065730000736900005c
:104d94006f6e00002076000069760000616e0000ee
:104da400746500002920000061200000256c0000cb
:104db400752f0000256c0000752000003a200000cb
:104dc400726500002d230000485400005450000078
:104dd400524300005620000073750000722000004a
:104de400706c000061630000650a0000004d000063
:104df400414a00003a200000726500007072000011
:104e04006973000065200000726100007069000091
:104e14006465000020610000726d0000656500009b
:104e2400202800006d650000696c00006c650000be
:104e340075720000207000006f6900006e7400003d
:104e4400202500006c750000202d00003e2000008d
:104e5400736b000069700000202500006c75000071
:104e6400206f000063740000657400007329000063
:104e74000a0000004d4100004a3a0000206c000086
:104e8400696700006e650000206400006520000072
:104e940072650000737900006e63000020720000e8
:104ea40065630000686500007263000068650000c7
:104eb400652000003d2000005b000000456e0000fe
:104ec400766f000069200000534f00004654000034
:104ed4004d4100004a200000524500005452000099
:104ee4005920000050410000550a00000045000010
:104ef4006d65000074200000534f0000465400000c
:104f04004d4100004a200000524500005452000068
:104f14005920000050410000550a0000003f0000e5
:104f24003f3f00003f3f00002047000031200000c9
:104f3400657400006170000065200000696e000067
:104f4400636f00006e6e000075650000202d000088
:104f54003e20000032300000302000000a00000033
:104f64004d61000078200000534d000053200000e4
:104f74006a6f000075720000206100007574000003
:104f84006f72000069730000652000006465000012
:104f94007061000073730000650a000000430000a4
:104fa400545200004c52000045530000454100009b
:104fb4005520000053510000334700003d390000e4
:104fc4003920000053510000344700003d390000ef
:104fd4003920000052530000525000003d300000c0
:104fe4002052000053430000503d000030200000d8
:104ff400454300004e4f00003d30000020520000a9
:1050040053520000513d00003000000041500000a8
:105014004e2000004e4f00004d3d00005a0000009d
:105024005b0d00005c0d00005d0d00005e0d0000d6
:105034006d0d00005f0d0000650d0000660d0000a1
:10504400670d0000680d0000610d0000620d000096
:10505400630d0000690d00006a0d00006b0d000077
:105064006c0d0000640d0000522000004346000057
:10507400412000004c3d000000200000453d0000a0
:1050840000200000443d000000200000433d0000db
:1050940000200000583d000000200000563d0000a4
:1050a400005a000000200000533d000000200000d2
:1050b400493d0000002000004d3d0000002000009c
:1050c400543d000000520000205300004d530000e6
:1050d400204e0000554d00003d000000204500001a
:1050e400503d0000003100000030000000200000ae
:1050f4004c4e0000473d00000020000043500000db
:10510400453d00000020000043500000533d0000d6
:10511400000a0000002000004e5500004d3d000034
:105124000020000044540000453d00000020000021
:1051340044540000453d00003000000020480000b9
:10514400524500003d000000204800005245000088
:105154003d30000000200000545300004d53000077
:105164003d00000042550000473d00000052000091
:10517400204d000041500000504900004e470000ff
:1051840000200000470000003d0000002053000004
:1051940000200000440000002f0000005f00000019
:1051a4003a00000052200000494e0000464f000023
:1051b40020480000423d0000002000004843000059
:1051c4003d00000020480000524f00004b3d00000d
:1051d40000200000485200004b4f00003d0000003a
:1051e400204d0000453d0000002000004e5400000a
:1051f4004f3d000000200000444500004e490000df
:10520400454400003d00000020540000523d0000d1
:1052140000200000484c0000453d0000004600000e
:10522400494300003d000000676100007264000013
:10523400652e0000776100007600000066690000ba
:10524400706800006f2e0000776100007600000097
:1052540070610000756f00006b2e00007761000024
:1052640076000000697300006f6c0000652e00007a
:105274007761000076000000316b000035680000a3
:105284007a2e0000776100007600000031350000be
:105294006b6800007a2e0000776100007600000041
:1052a400636f00006e660000697200006d2e0000de
:1052b4007761000076000000522000004d5300008a
:1052c40047540000455300005420000044450000aa
:1052d4004d3d0000005400004f3d00000049000017
:1052e40043520000413d0000004300004d440000d3
:1052f4003d000000436d0000642000006d6f00005d
:10530400646500006d2000003a000000464f000074
:10531400524300004547000052410000463d000052
:1053240000470000312000003e3e00003e20000007
:10533400256400000a00000052450000424f0000ae
:105344004f5400003d00000052650000626f0000f1
:105354006f740000207300006f660000742000006a
:10536400696d00006d6500006469000061740000ef
:1053740020640000752000006d6f0000646500006b
:105384006d0a000000520000656200006f6f0000ab
:105394007420000064750000206d00006f6400003c
:1053a400656d0000206100007072000065730000ec
:1053b400205300004d53000020450000726100009e
:1053c400736500000a00000052650000626f00006f
:1053d4006f740000206500006c65000063740000b9
:1053e400726900007175000065200000696d00009d
:1053f4006d650000646900006174000020640000b1
:10540400752000006d6f0000646500006d0a0000e7
:1054140000520000656200006f6f000074200000fd
:10542400656c00006563000074720000697100001f
:105434007565000020640000752000006d6f000099
:10544400646500006d20000061700000726500005a
:1054540073200000534d00005320000045720000eb
:1054640061730000650a00000052000065620000dc
:105474006f6f000074200000706100007220000053
:10548400415400005a200000696d00006d65000061
:105494006469000061740000206e00000052000086
:1054a400656200006f6f000074200000415400002a
:1054b4005a20000064750000206d00006f64000035
:1054c400656d0000206100007072000065730000cb
:1054d400205300004d53000020450000726100007d
:1054e400736500000a00000054530000545000008b
:1054f400494e00003d00000044430000443d0000cc
:1055040000440000495400003d00000044540000e1
:105514004d4600003d00000044420000473d0000ad
:10552400004900004e4600004f3d000000520000bc
:10553400204d00004f440000454d00002052000063
:1055440065710000754f0000666600003d000000b4
:105554002052000065710000755300006c65000066
:10556400657000003d00000020470000534d00001e
:105574005f530000746500003d00000050570000b8
:10558400525f00004f4600004600000050570000e4
:105594005f4f00004e000000434f00004e460000e5
:1055a400494700000050000052450000540000002c
:1055b4004e4f00005f530000494700004e41000079
:1055c4004c000000534c0000454500005000000012
:1055d40045520000524f0000520000003f3f0000bf
:1055e4003f000000205400002820000070690000e3
:1055f4006e3d000000200000207200007373000064
:10560400693d00000020000020630000616c000080
:105614006c3d000000200000207300006d7300004a
:105624003d00000020290000200000002020000090
:105634004e620000746f00003d000000454600000b
:105644004641000043450000525300004d53000002
